{
  "_format": "hh-sol-artifact-1",
  "contractName": "NFTMarketplace",
  "sourceName": "contracts/NFTMarketplace.sol",
  "abi": [
    {
      "inputs": [],
      "stateMutability": "nonpayable",
      "type": "constructor"
    },
    {
      "anonymous": false,
      "inputs": [
        {
          "indexed": true,
          "internalType": "address",
          "name": "account",
          "type": "address"
        },
        {
          "indexed": true,
          "internalType": "address",
          "name": "operator",
          "type": "address"
        },
        {
          "indexed": false,
          "internalType": "bool",
          "name": "approved",
          "type": "bool"
        }
      ],
      "name": "ApprovalForAll",
      "type": "event"
    },
    {
      "anonymous": false,
      "inputs": [
        {
          "indexed": true,
          "internalType": "uint256",
          "name": "tokenId",
          "type": "uint256"
        },
        {
          "indexed": false,
          "internalType": "address",
          "name": "seller",
          "type": "address"
        },
        {
          "indexed": false,
          "internalType": "address",
          "name": "tokenOwner",
          "type": "address"
        },
        {
          "indexed": false,
          "internalType": "uint256",
          "name": "price",
          "type": "uint256"
        },
        {
          "indexed": false,
          "internalType": "uint256",
          "name": "cuantity",
          "type": "uint256"
        },
        {
          "indexed": false,
          "internalType": "bool",
          "name": "isprivate",
          "type": "bool"
        },
        {
          "indexed": false,
          "internalType": "bool",
          "name": "sold",
          "type": "bool"
        }
      ],
      "name": "MarketItemCreated",
      "type": "event"
    },
    {
      "anonymous": false,
      "inputs": [
        {
          "indexed": true,
          "internalType": "address",
          "name": "previousOwner",
          "type": "address"
        },
        {
          "indexed": true,
          "internalType": "address",
          "name": "newOwner",
          "type": "address"
        }
      ],
      "name": "OwnershipTransferred",
      "type": "event"
    },
    {
      "anonymous": false,
      "inputs": [
        {
          "indexed": true,
          "internalType": "address",
          "name": "operator",
          "type": "address"
        },
        {
          "indexed": true,
          "internalType": "address",
          "name": "from",
          "type": "address"
        },
        {
          "indexed": true,
          "internalType": "address",
          "name": "to",
          "type": "address"
        },
        {
          "indexed": false,
          "internalType": "uint256[]",
          "name": "ids",
          "type": "uint256[]"
        },
        {
          "indexed": false,
          "internalType": "uint256[]",
          "name": "values",
          "type": "uint256[]"
        }
      ],
      "name": "TransferBatch",
      "type": "event"
    },
    {
      "anonymous": false,
      "inputs": [
        {
          "indexed": true,
          "internalType": "address",
          "name": "operator",
          "type": "address"
        },
        {
          "indexed": true,
          "internalType": "address",
          "name": "from",
          "type": "address"
        },
        {
          "indexed": true,
          "internalType": "address",
          "name": "to",
          "type": "address"
        },
        {
          "indexed": false,
          "internalType": "uint256",
          "name": "id",
          "type": "uint256"
        },
        {
          "indexed": false,
          "internalType": "uint256",
          "name": "value",
          "type": "uint256"
        }
      ],
      "name": "TransferSingle",
      "type": "event"
    },
    {
      "anonymous": false,
      "inputs": [
        {
          "indexed": false,
          "internalType": "string",
          "name": "value",
          "type": "string"
        },
        {
          "indexed": true,
          "internalType": "uint256",
          "name": "id",
          "type": "uint256"
        }
      ],
      "name": "URI",
      "type": "event"
    },
    {
      "inputs": [
        {
          "internalType": "address",
          "name": "account",
          "type": "address"
        },
        {
          "internalType": "uint256",
          "name": "id",
          "type": "uint256"
        }
      ],
      "name": "balanceOf",
      "outputs": [
        {
          "internalType": "uint256",
          "name": "",
          "type": "uint256"
        }
      ],
      "stateMutability": "view",
      "type": "function"
    },
    {
      "inputs": [
        {
          "internalType": "address[]",
          "name": "accounts",
          "type": "address[]"
        },
        {
          "internalType": "uint256[]",
          "name": "ids",
          "type": "uint256[]"
        }
      ],
      "name": "balanceOfBatch",
      "outputs": [
        {
          "internalType": "uint256[]",
          "name": "",
          "type": "uint256[]"
        }
      ],
      "stateMutability": "view",
      "type": "function"
    },
    {
      "inputs": [
        {
          "internalType": "uint256",
          "name": "tokenId",
          "type": "uint256"
        },
        {
          "internalType": "uint256",
          "name": "amount",
          "type": "uint256"
        }
      ],
      "name": "createMarketSale",
      "outputs": [],
      "stateMutability": "payable",
      "type": "function"
    },
    {
      "inputs": [
        {
          "internalType": "string",
          "name": "tokenURI",
          "type": "string"
        },
        {
          "internalType": "uint256",
          "name": "amount",
          "type": "uint256"
        },
        {
          "internalType": "uint256",
          "name": "price",
          "type": "uint256"
        },
        {
          "internalType": "bool",
          "name": "isprivate",
          "type": "bool"
        }
      ],
      "name": "createToken",
      "outputs": [
        {
          "internalType": "uint256",
          "name": "",
          "type": "uint256"
        }
      ],
      "stateMutability": "payable",
      "type": "function"
    },
    {
      "inputs": [],
      "name": "fetchItemsListed",
      "outputs": [
        {
          "components": [
            {
              "internalType": "uint256",
              "name": "tokenId",
              "type": "uint256"
            },
            {
              "internalType": "address payable",
              "name": "seller",
              "type": "address"
            },
            {
              "internalType": "address payable",
              "name": "tokenOwner",
              "type": "address"
            },
            {
              "internalType": "uint256",
              "name": "price",
              "type": "uint256"
            },
            {
              "internalType": "uint256",
              "name": "cuantity",
              "type": "uint256"
            },
            {
              "internalType": "bool",
              "name": "isprivate",
              "type": "bool"
            },
            {
              "internalType": "bool",
              "name": "sold",
              "type": "bool"
            }
          ],
          "internalType": "struct NFTMarketplace.MarketItem[]",
          "name": "",
          "type": "tuple[]"
        }
      ],
      "stateMutability": "view",
      "type": "function"
    },
    {
      "inputs": [],
      "name": "fetchMarketItems",
      "outputs": [
        {
          "components": [
            {
              "internalType": "uint256",
              "name": "tokenId",
              "type": "uint256"
            },
            {
              "internalType": "address payable",
              "name": "seller",
              "type": "address"
            },
            {
              "internalType": "address payable",
              "name": "tokenOwner",
              "type": "address"
            },
            {
              "internalType": "uint256",
              "name": "price",
              "type": "uint256"
            },
            {
              "internalType": "uint256",
              "name": "cuantity",
              "type": "uint256"
            },
            {
              "internalType": "bool",
              "name": "isprivate",
              "type": "bool"
            },
            {
              "internalType": "bool",
              "name": "sold",
              "type": "bool"
            }
          ],
          "internalType": "struct NFTMarketplace.MarketItem[]",
          "name": "",
          "type": "tuple[]"
        }
      ],
      "stateMutability": "view",
      "type": "function"
    },
    {
      "inputs": [],
      "name": "fetchMyNFTs",
      "outputs": [
        {
          "components": [
            {
              "internalType": "uint256",
              "name": "tokenId",
              "type": "uint256"
            },
            {
              "internalType": "address payable",
              "name": "seller",
              "type": "address"
            },
            {
              "internalType": "address payable",
              "name": "tokenOwner",
              "type": "address"
            },
            {
              "internalType": "uint256",
              "name": "price",
              "type": "uint256"
            },
            {
              "internalType": "uint256",
              "name": "cuantity",
              "type": "uint256"
            },
            {
              "internalType": "bool",
              "name": "isprivate",
              "type": "bool"
            },
            {
              "internalType": "bool",
              "name": "sold",
              "type": "bool"
            }
          ],
          "internalType": "struct NFTMarketplace.MarketItem[]",
          "name": "",
          "type": "tuple[]"
        }
      ],
      "stateMutability": "view",
      "type": "function"
    },
    {
      "inputs": [],
      "name": "getListingPrice",
      "outputs": [
        {
          "internalType": "uint256",
          "name": "",
          "type": "uint256"
        }
      ],
      "stateMutability": "view",
      "type": "function"
    },
    {
      "inputs": [
        {
          "internalType": "address",
          "name": "account",
          "type": "address"
        },
        {
          "internalType": "address",
          "name": "operator",
          "type": "address"
        }
      ],
      "name": "isApprovedForAll",
      "outputs": [
        {
          "internalType": "bool",
          "name": "",
          "type": "bool"
        }
      ],
      "stateMutability": "view",
      "type": "function"
    },
    {
      "inputs": [
        {
          "internalType": "address",
          "name": "",
          "type": "address"
        },
        {
          "internalType": "address",
          "name": "",
          "type": "address"
        },
        {
          "internalType": "uint256[]",
          "name": "",
          "type": "uint256[]"
        },
        {
          "internalType": "uint256[]",
          "name": "",
          "type": "uint256[]"
        },
        {
          "internalType": "bytes",
          "name": "",
          "type": "bytes"
        }
      ],
      "name": "onERC1155BatchReceived",
      "outputs": [
        {
          "internalType": "bytes4",
          "name": "",
          "type": "bytes4"
        }
      ],
      "stateMutability": "nonpayable",
      "type": "function"
    },
    {
      "inputs": [
        {
          "internalType": "address",
          "name": "",
          "type": "address"
        },
        {
          "internalType": "address",
          "name": "",
          "type": "address"
        },
        {
          "internalType": "uint256",
          "name": "",
          "type": "uint256"
        },
        {
          "internalType": "uint256",
          "name": "",
          "type": "uint256"
        },
        {
          "internalType": "bytes",
          "name": "",
          "type": "bytes"
        }
      ],
      "name": "onERC1155Received",
      "outputs": [
        {
          "internalType": "bytes4",
          "name": "",
          "type": "bytes4"
        }
      ],
      "stateMutability": "nonpayable",
      "type": "function"
    },
    {
      "inputs": [],
      "name": "owner",
      "outputs": [
        {
          "internalType": "address",
          "name": "",
          "type": "address"
        }
      ],
      "stateMutability": "view",
      "type": "function"
    },
    {
      "inputs": [],
      "name": "paused",
      "outputs": [
        {
          "internalType": "bool",
          "name": "",
          "type": "bool"
        }
      ],
      "stateMutability": "view",
      "type": "function"
    },
    {
      "inputs": [],
      "name": "renounceOwnership",
      "outputs": [],
      "stateMutability": "nonpayable",
      "type": "function"
    },
    {
      "inputs": [
        {
          "internalType": "uint256",
          "name": "tokenId",
          "type": "uint256"
        },
        {
          "internalType": "uint256",
          "name": "amount",
          "type": "uint256"
        },
        {
          "internalType": "uint256",
          "name": "price",
          "type": "uint256"
        }
      ],
      "name": "resellToken",
      "outputs": [],
      "stateMutability": "payable",
      "type": "function"
    },
    {
      "inputs": [
        {
          "internalType": "address",
          "name": "from",
          "type": "address"
        },
        {
          "internalType": "address",
          "name": "to",
          "type": "address"
        },
        {
          "internalType": "uint256[]",
          "name": "ids",
          "type": "uint256[]"
        },
        {
          "internalType": "uint256[]",
          "name": "amounts",
          "type": "uint256[]"
        },
        {
          "internalType": "bytes",
          "name": "data",
          "type": "bytes"
        }
      ],
      "name": "safeBatchTransferFrom",
      "outputs": [],
      "stateMutability": "nonpayable",
      "type": "function"
    },
    {
      "inputs": [
        {
          "internalType": "address",
          "name": "from",
          "type": "address"
        },
        {
          "internalType": "address",
          "name": "to",
          "type": "address"
        },
        {
          "internalType": "uint256",
          "name": "id",
          "type": "uint256"
        },
        {
          "internalType": "uint256",
          "name": "amount",
          "type": "uint256"
        },
        {
          "internalType": "bytes",
          "name": "data",
          "type": "bytes"
        }
      ],
      "name": "safeTransferFrom",
      "outputs": [],
      "stateMutability": "nonpayable",
      "type": "function"
    },
    {
      "inputs": [
        {
          "internalType": "address",
          "name": "operator",
          "type": "address"
        },
        {
          "internalType": "bool",
          "name": "approved",
          "type": "bool"
        }
      ],
      "name": "setApprovalForAll",
      "outputs": [],
      "stateMutability": "nonpayable",
      "type": "function"
    },
    {
      "inputs": [
        {
          "internalType": "bool",
          "name": "_paused",
          "type": "bool"
        }
      ],
      "name": "setPaused",
      "outputs": [],
      "stateMutability": "nonpayable",
      "type": "function"
    },
    {
      "inputs": [
        {
          "internalType": "bytes4",
          "name": "interfaceId",
          "type": "bytes4"
        }
      ],
      "name": "supportsInterface",
      "outputs": [
        {
          "internalType": "bool",
          "name": "",
          "type": "bool"
        }
      ],
      "stateMutability": "view",
      "type": "function"
    },
    {
      "inputs": [
        {
          "internalType": "address",
          "name": "newOwner",
          "type": "address"
        }
      ],
      "name": "transferOwnership",
      "outputs": [],
      "stateMutability": "nonpayable",
      "type": "function"
    },
    {
      "inputs": [
        {
          "internalType": "uint256",
          "name": "_listingPrice",
          "type": "uint256"
        }
      ],
      "name": "updateListingPrice",
      "outputs": [],
      "stateMutability": "payable",
      "type": "function"
    },
    {
      "inputs": [
        {
          "internalType": "uint256",
          "name": "tokenId",
          "type": "uint256"
        }
      ],
      "name": "uri",
      "outputs": [
        {
          "internalType": "string",
          "name": "",
          "type": "string"
        }
      ],
      "stateMutability": "view",
      "type": "function"
    }
  ],
  "bytecode": "0x60a06040819052600060808190526200001b91600491620000cc565b50662386f26fc100006008553480156200003457600080fd5b506040805160208101909152600081526200004f8162000061565b506200005b336200007a565b620001af565b805162000076906002906020840190620000cc565b5050565b600380546001600160a01b038381166001600160a01b0319831681179093556040519116919082907f8be0079c531659141344cd1fd0a4f28419497f9722a3daafe3b4186f6b6457e090600090a35050565b828054620000da9062000172565b90600052602060002090601f016020900481019282620000fe576000855562000149565b82601f106200011957805160ff191683800117855562000149565b8280016001018555821562000149579182015b82811115620001495782518255916020019190600101906200012c565b50620001579291506200015b565b5090565b5b808211156200015757600081556001016200015c565b600181811c908216806200018757607f821691505b60208210811415620001a957634e487b7160e01b600052602260045260246000fd5b50919050565b6129aa80620001bf6000396000f3fe60806040526004361061013f5760003560e01c8063715018a6116100b6578063e985e9c51161006f578063e985e9c514610386578063ea31247a146103cf578063f23a6e61146103e2578063f242432a1461040e578063f2fde38b1461042e578063f3aa0d821461044e57600080fd5b8063715018a6146102be5780638da5cb5b146102d3578063a1c11ca8146102fb578063a22cb4651461030e578063ae677aa31461032e578063bc197c811461034157600080fd5b806316c38b3c1161010857806316c38b3c1461020b578063202e37401461022d5780632eb2c2d61461024257806345f8fa80146102625780634e1273f4146102775780635c975abb146102a457600080fd5b8062fdd58e1461014457806301ffc9a7146101775780630e89341c146101a75780630f08efe0146101d457806312e85585146101f6575b600080fd5b34801561015057600080fd5b5061016461015f36600461215a565b610461565b6040519081526020015b60405180910390f35b34801561018357600080fd5b50610197610192366004612268565b6104f8565b604051901515815260200161016e565b3480156101b357600080fd5b506101c76101c2366004612312565b610509565b60405161016e919061260b565b3480156101e057600080fd5b506101e9610514565b60405161016e9190612541565b34801561020257600080fd5b50600854610164565b34801561021757600080fd5b5061022b61022636600461224e565b6106c2565b005b34801561023957600080fd5b506101e96106ff565b34801561024e57600080fd5b5061022b61025d366004612028565b6108eb565b34801561026e57600080fd5b506101e9610982565b34801561028357600080fd5b50610297610292366004612183565b610b6e565b60405161016e91906125d3565b3480156102b057600080fd5b506009546101979060ff1681565b3480156102ca57600080fd5b5061022b610cd0565b3480156102df57600080fd5b506003546040516001600160a01b03909116815260200161016e565b61022b61030936600461232a565b610d06565b34801561031a57600080fd5b5061022b610329366004612131565b610e98565b61022b61033c366004612312565b610ea7565b34801561034d57600080fd5b5061036d61035c366004612028565b63bc197c8160e01b95945050505050565b6040516001600160e01b0319909116815260200161016e565b34801561039257600080fd5b506101976103a1366004611ff6565b6001600160a01b03918216600090815260016020908152604080832093909416825291909152205460ff1690565b61022b6103dd36600461234b565b610ed6565b3480156103ee57600080fd5b5061036d6103fd3660046120ce565b63f23a6e6160e01b95945050505050565b34801561041a57600080fd5b5061022b6104293660046120ce565b610fe1565b34801561043a57600080fd5b5061022b610449366004611fdc565b611068565b61016461045c3660046122a0565b611103565b60006001600160a01b0383166104d25760405162461bcd60e51b815260206004820152602b60248201527f455243313135353a2062616c616e636520717565727920666f7220746865207a60448201526a65726f206164647265737360a81b60648201526084015b60405180910390fd5b506000908152602081815260408083206001600160a01b03949094168352929052205490565b60006105038261114e565b92915050565b606061050382611173565b6060600061052160065490565b9050600061052e60075490565b60065461053b91906127c6565b90506000808267ffffffffffffffff81111561056757634e487b7160e01b600052604160045260246000fd5b6040519080825280602002602001820160405280156105a057816020015b61058d611dea565b8152602001906001900390816105855790505b50905060005b848110156106b95730600a60006105be84600161278f565b81526020810191909152604001600020600201546001600160a01b031614156106a75760006105ee82600161278f565b6000818152600a6020908152604091829020825160e0810184528154815260018201546001600160a01b03908116938201939093526002820154909216928201929092526003820154606082015260048201546080820152600582015460ff808216151560a084015261010090910416151560c08201528551929350909185908790811061068c57634e487b7160e01b600052603260045260246000fd5b60209081029190910101526106a260018661278f565b945050505b806106b181612875565b9150506105a6565b50949350505050565b6003546001600160a01b031633146106ec5760405162461bcd60e51b81526004016104c990612736565b6009805460ff1916911515919091179055565b6060600061070c60065490565b905060008060005b8381101561076f5733600a600061072c84600161278f565b81526020810191909152604001600020600201546001600160a01b0316141561075d5761075a60018461278f565b92505b8061076781612875565b915050610714565b5060008267ffffffffffffffff81111561079957634e487b7160e01b600052604160045260246000fd5b6040519080825280602002602001820160405280156107d257816020015b6107bf611dea565b8152602001906001900390816107b75790505b50905060005b848110156106b95733600a60006107f084600161278f565b81526020810191909152604001600020600201546001600160a01b031614156108d957600061082082600161278f565b6000818152600a6020908152604091829020825160e0810184528154815260018201546001600160a01b03908116938201939093526002820154909216928201929092526003820154606082015260048201546080820152600582015460ff808216151560a084015261010090910416151560c0820152855192935090918590879081106108be57634e487b7160e01b600052603260045260246000fd5b60209081029190910101526108d460018661278f565b945050505b806108e381612875565b9150506107d8565b6001600160a01b038516331480610907575061090785336103a1565b61096e5760405162461bcd60e51b815260206004820152603260248201527f455243313135353a207472616e736665722063616c6c6572206973206e6f74206044820152711bdddb995c881b9bdc88185c1c1c9bdd995960721b60648201526084016104c9565b61097b8585858585611253565b5050505050565b6060600061098f60065490565b905060008060005b838110156109f25733600a60006109af84600161278f565b81526020810191909152604001600020600101546001600160a01b031614156109e0576109dd60018461278f565b92505b806109ea81612875565b915050610997565b5060008267ffffffffffffffff811115610a1c57634e487b7160e01b600052604160045260246000fd5b604051908082528060200260200182016040528015610a5557816020015b610a42611dea565b815260200190600190039081610a3a5790505b50905060005b848110156106b95733600a6000610a7384600161278f565b81526020810191909152604001600020600101546001600160a01b03161415610b5c576000610aa382600161278f565b6000818152600a6020908152604091829020825160e0810184528154815260018201546001600160a01b03908116938201939093526002820154909216928201929092526003820154606082015260048201546080820152600582015460ff808216151560a084015261010090910416151560c082015285519293509091859087908110610b4157634e487b7160e01b600052603260045260246000fd5b6020908102919091010152610b5760018661278f565b945050505b80610b6681612875565b915050610a5b565b60608151835114610bd35760405162461bcd60e51b815260206004820152602960248201527f455243313135353a206163636f756e747320616e6420696473206c656e677468604482015268040dad2e6dac2e8c6d60bb1b60648201526084016104c9565b6000835167ffffffffffffffff811115610bfd57634e487b7160e01b600052604160045260246000fd5b604051908082528060200260200182016040528015610c26578160200160208202803683370190505b50905060005b8451811015610cc857610c8d858281518110610c5857634e487b7160e01b600052603260045260246000fd5b6020026020010151858381518110610c8057634e487b7160e01b600052603260045260246000fd5b6020026020010151610461565b828281518110610cad57634e487b7160e01b600052603260045260246000fd5b6020908102919091010152610cc181612875565b9050610c2c565b509392505050565b6003546001600160a01b03163314610cfa5760405162461bcd60e51b81526004016104c990612736565b610d046000611444565b565b6000828152600a6020526040812060030154610d239083906127a7565b6000848152600a60205260409020600101549091506001600160a01b03166060348314610da55760405162461bcd60e51b815260206004820152602a60248201527f496e73756666696369656e742076616c75652073656e7420746f20637265617460448201526965207468652073616c6560b01b60648201526084016104c9565b6000858152600a602052604090206002810180546001600160a01b0319908116331790915560058201805461ff001916610100179055600190910180549091169055610df5600780546001019055565b610e023033868885611496565b6000858152600a60205260409020600201546008546001600160a01b03909116906108fc90610e329087906127a7565b6040518115909202916000818181858888f19350505050158015610e5a573d6000803e3d6000fd5b506040516001600160a01b038316903480156108fc02916000818181858888f19350505050158015610e90573d6000803e3d6000fd5b505050505050565b610ea33383836115c0565b5050565b6003546001600160a01b03163314610ed15760405162461bcd60e51b81526004016104c990612736565b600855565b600082600854610ee691906127a7565b6000858152600a60205260409020600201549091506001600160a01b03163314610f625760405162461bcd60e51b815260206004820152602760248201527f4f6e6c792074686520746f6b656e206f776e65722063616e2073656c6c20746860448201526632903a37b5b2b760c91b60648201526084016104c9565b803414610f815760405162461bcd60e51b81526004016104c990612666565b6000848152600a6020526040902060058101805461ff0019169055600381018390556001810180546001600160a01b0319908116331790915560029091018054909116301790556060610fd460076116a1565b61097b3330868885611496565b6001600160a01b038516331480610ffd5750610ffd85336103a1565b61105b5760405162461bcd60e51b815260206004820152602960248201527f455243313135353a2063616c6c6572206973206e6f74206f776e6572206e6f7260448201526808185c1c1c9bdd995960ba1b60648201526084016104c9565b61097b8585858585611496565b6003546001600160a01b031633146110925760405162461bcd60e51b81526004016104c990612736565b6001600160a01b0381166110f75760405162461bcd60e51b815260206004820152602660248201527f4f776e61626c653a206e6577206f776e657220697320746865207a65726f206160448201526564647265737360d01b60648201526084016104c9565b61110081611444565b50565b6000611113600680546001019055565b600061111e60065490565b9050606061112e338388846116f8565b611138828861180c565b61114482878787611870565b5095945050505050565b60006001600160e01b03198216630271189760e51b1480610503575061050382611a78565b6000818152600560205260408120805460609291906111919061280d565b80601f01602080910402602001604051908101604052809291908181526020018280546111bd9061280d565b801561120a5780601f106111df5761010080835404028352916020019161120a565b820191906000526020600020905b8154815290600101906020018083116111ed57829003601f168201915b5050505050905060008151116112285761122383611ac8565b61124c565b60048160405160200161123c9291906123f8565b6040516020818303038152906040525b9392505050565b81518351146112b55760405162461bcd60e51b815260206004820152602860248201527f455243313135353a2069647320616e6420616d6f756e7473206c656e677468206044820152670dad2e6dac2e8c6d60c31b60648201526084016104c9565b6001600160a01b0384166112db5760405162461bcd60e51b81526004016104c9906126a7565b3360005b84518110156113de57600085828151811061130a57634e487b7160e01b600052603260045260246000fd5b60200260200101519050600085838151811061133657634e487b7160e01b600052603260045260246000fd5b602090810291909101810151600084815280835260408082206001600160a01b038e1683529093529190912054909150818110156113865760405162461bcd60e51b81526004016104c9906126ec565b6000838152602081815260408083206001600160a01b038e8116855292528083208585039055908b168252812080548492906113c390849061278f565b92505081905550505050806113d790612875565b90506112df565b50846001600160a01b0316866001600160a01b0316826001600160a01b03167f4a39dc06d4c0dbc64b70af90fd698a233a518aa5d07e595d983b8c0526c8f7fb878760405161142e9291906125e6565b60405180910390a4610e90818787878787611b5c565b600380546001600160a01b038381166001600160a01b0319831681179093556040519116919082907f8be0079c531659141344cd1fd0a4f28419497f9722a3daafe3b4186f6b6457e090600090a35050565b6001600160a01b0384166114bc5760405162461bcd60e51b81526004016104c9906126a7565b3360006114c885611cc7565b905060006114d585611cc7565b90506000868152602081815260408083206001600160a01b038c168452909152902054858110156115185760405162461bcd60e51b81526004016104c9906126ec565b6000878152602081815260408083206001600160a01b038d8116855292528083208985039055908a1682528120805488929061155590849061278f565b909155505060408051888152602081018890526001600160a01b03808b16928c821692918816917fc3d58168c5ae7397731d063d5bbf3d657854427343f4c083240f7aacaa2d0f62910160405180910390a46115b5848a8a8a8a8a611d20565b505050505050505050565b816001600160a01b0316836001600160a01b031614156116345760405162461bcd60e51b815260206004820152602960248201527f455243313135353a2073657474696e6720617070726f76616c20737461747573604482015268103337b91039b2b63360b91b60648201526084016104c9565b6001600160a01b03838116600081815260016020908152604080832094871680845294825291829020805460ff191686151590811790915591519182527f17307eab39ab6107e8899845ad3d59bd9653f200f220920489ca2b5937696c31910160405180910390a3505050565b8054806116f05760405162461bcd60e51b815260206004820152601b60248201527f436f756e7465723a2064656372656d656e74206f766572666c6f77000000000060448201526064016104c9565b600019019055565b6001600160a01b0384166117585760405162461bcd60e51b815260206004820152602160248201527f455243313135353a206d696e7420746f20746865207a65726f206164647265736044820152607360f81b60648201526084016104c9565b33600061176485611cc7565b9050600061177185611cc7565b90506000868152602081815260408083206001600160a01b038b168452909152812080548792906117a390849061278f565b909155505060408051878152602081018790526001600160a01b03808a1692600092918716917fc3d58168c5ae7397731d063d5bbf3d657854427343f4c083240f7aacaa2d0f62910160405180910390a461180383600089898989611d20565b50505050505050565b6000828152600560209081526040909120825161182b92840190611e26565b50817f6bb7ff708619ba0610cba295a58592e0451dee2622938c8755667688daf3529b61185784610509565b604051611864919061260b565b60405180910390a25050565b60008360085461188091906127a7565b9050600083116118d25760405162461bcd60e51b815260206004820152601c60248201527f5072696365206d757374206265206174206c656173742031207765690000000060448201526064016104c9565b8034146118f15760405162461bcd60e51b81526004016104c990612666565b60606040518060e00160405280878152602001336001600160a01b03168152602001306001600160a01b03168152602001858152602001868152602001841515815260200160001515815250600a60008881526020019081526020016000206000820151816000015560208201518160010160006101000a8154816001600160a01b0302191690836001600160a01b0316021790555060408201518160020160006101000a8154816001600160a01b0302191690836001600160a01b03160217905550606082015181600301556080820151816004015560a08201518160050160006101000a81548160ff02191690831515021790555060c08201518160050160016101000a81548160ff021916908315150217905550905050611a183330888885611496565b60408051338152306020820152908101859052606081018690528315156080820152600060a082015286907fccadd0ca0fc89317301742d9b5144235cf9ca6b4f5ce7bec9f7a1bb35b95d86f9060c00160405180910390a2505050505050565b60006001600160e01b03198216636cdb3d1360e11b1480611aa957506001600160e01b031982166303a24d0760e21b145b8061050357506301ffc9a760e01b6001600160e01b0319831614610503565b606060028054611ad79061280d565b80601f0160208091040260200160405190810160405280929190818152602001828054611b039061280d565b8015611b505780601f10611b2557610100808354040283529160200191611b50565b820191906000526020600020905b815481529060010190602001808311611b3357829003601f168201915b50505050509050919050565b6001600160a01b0384163b15610e905760405163bc197c8160e01b81526001600160a01b0385169063bc197c8190611ba0908990899088908890889060040161249e565b602060405180830381600087803b158015611bba57600080fd5b505af1925050508015611bea575060408051601f3d908101601f19168201909252611be791810190612284565b60015b611c9757611bf66128bc565b806308c379a01415611c305750611c0b6128d4565b80611c165750611c32565b8060405162461bcd60e51b81526004016104c9919061260b565b505b60405162461bcd60e51b815260206004820152603460248201527f455243313135353a207472616e7366657220746f206e6f6e20455243313135356044820152732932b1b2b4bb32b91034b6b83632b6b2b73a32b960611b60648201526084016104c9565b6001600160e01b0319811663bc197c8160e01b146118035760405162461bcd60e51b81526004016104c99061261e565b60408051600180825281830190925260609160009190602080830190803683370190505090508281600081518110611d0f57634e487b7160e01b600052603260045260246000fd5b602090810291909101015292915050565b6001600160a01b0384163b15610e905760405163f23a6e6160e01b81526001600160a01b0385169063f23a6e6190611d6490899089908890889088906004016124fc565b602060405180830381600087803b158015611d7e57600080fd5b505af1925050508015611dae575060408051601f3d908101601f19168201909252611dab91810190612284565b60015b611dba57611bf66128bc565b6001600160e01b0319811663f23a6e6160e01b146118035760405162461bcd60e51b81526004016104c99061261e565b6040805160e081018252600080825260208201819052918101829052606081018290526080810182905260a0810182905260c081019190915290565b828054611e329061280d565b90600052602060002090601f016020900481019282611e545760008555611e9a565b82601f10611e6d57805160ff1916838001178555611e9a565b82800160010185558215611e9a579182015b82811115611e9a578251825591602001919060010190611e7f565b50611ea6929150611eaa565b5090565b5b80821115611ea65760008155600101611eab565b600067ffffffffffffffff831115611ed957611ed96128a6565b604051611ef0601f8501601f191660200182612848565b809150838152848484011115611f0557600080fd5b83836020830137600060208583010152509392505050565b80356001600160a01b0381168114611f3457600080fd5b919050565b600082601f830112611f49578081fd5b81356020611f568261276b565b604051611f638282612848565b8381528281019150858301600585901b87018401881015611f82578586fd5b855b85811015611fa057813584529284019290840190600101611f84565b5090979650505050505050565b80358015158114611f3457600080fd5b600082601f830112611fcd578081fd5b61124c83833560208501611ebf565b600060208284031215611fed578081fd5b61124c82611f1d565b60008060408385031215612008578081fd5b61201183611f1d565b915061201f60208401611f1d565b90509250929050565b600080600080600060a0868803121561203f578081fd5b61204886611f1d565b945061205660208701611f1d565b9350604086013567ffffffffffffffff80821115612072578283fd5b61207e89838a01611f39565b94506060880135915080821115612093578283fd5b61209f89838a01611f39565b935060808801359150808211156120b4578283fd5b506120c188828901611fbd565b9150509295509295909350565b600080600080600060a086880312156120e5578081fd5b6120ee86611f1d565b94506120fc60208701611f1d565b93506040860135925060608601359150608086013567ffffffffffffffff811115612125578182fd5b6120c188828901611fbd565b60008060408385031215612143578182fd5b61214c83611f1d565b915061201f60208401611fad565b6000806040838503121561216c578182fd5b61217583611f1d565b946020939093013593505050565b60008060408385031215612195578182fd5b823567ffffffffffffffff808211156121ac578384fd5b818501915085601f8301126121bf578384fd5b813560206121cc8261276b565b6040516121d98282612848565b8381528281019150858301600585901b870184018b10156121f8578889fd5b8896505b848710156122215761220d81611f1d565b8352600196909601959183019183016121fc565b5096505086013592505080821115612237578283fd5b5061224485828601611f39565b9150509250929050565b60006020828403121561225f578081fd5b61124c82611fad565b600060208284031215612279578081fd5b813561124c8161295e565b600060208284031215612295578081fd5b815161124c8161295e565b600080600080608085870312156122b5578182fd5b843567ffffffffffffffff8111156122cb578283fd5b8501601f810187136122db578283fd5b6122ea87823560208401611ebf565b945050602085013592506040850135915061230760608601611fad565b905092959194509250565b600060208284031215612323578081fd5b5035919050565b6000806040838503121561233c578182fd5b50508035926020909101359150565b60008060006060848603121561235f578081fd5b505081359360208301359350604090920135919050565b6000815180845260208085019450808401835b838110156123a557815187529582019590820190600101612389565b509495945050505050565b600081518084526123c88160208601602086016127dd565b601f01601f19169290920160200192915050565b600081516123ee8185602086016127dd565b9290920192915050565b600080845482600182811c91508083168061241457607f831692505b602080841082141561243457634e487b7160e01b87526022600452602487fd5b818015612448576001811461245957612485565b60ff19861689528489019650612485565b60008b815260209020885b8681101561247d5781548b820152908501908301612464565b505084890196505b50505050505061249581856123dc565b95945050505050565b6001600160a01b0386811682528516602082015260a0604082018190526000906124ca90830186612376565b82810360608401526124dc8186612376565b905082810360808401526124f081856123b0565b98975050505050505050565b6001600160a01b03868116825285166020820152604081018490526060810183905260a060808201819052600090612536908301846123b0565b979650505050505050565b602080825282518282018190526000919060409081850190868401855b828110156125c657815180518552868101516001600160a01b0390811688870152868201511686860152606080820151908601526080808201519086015260a08082015115159086015260c09081015115159085015260e0909301929085019060010161255e565b5091979650505050505050565b60208152600061124c6020830184612376565b6040815260006125f96040830185612376565b82810360208401526124958185612376565b60208152600061124c60208301846123b0565b60208082526028908201527f455243313135353a204552433131353552656365697665722072656a656374656040820152676420746f6b656e7360c01b606082015260800190565b60208082526021908201527f56616c7565206d757374206d61746368207468652072657175697265642066656040820152606560f81b606082015260800190565b60208082526025908201527f455243313135353a207472616e7366657220746f20746865207a65726f206164604082015264647265737360d81b606082015260800190565b6020808252602a908201527f455243313135353a20696e73756666696369656e742062616c616e636520666f60408201526939103a3930b739b332b960b11b606082015260800190565b6020808252818101527f4f776e61626c653a2063616c6c6572206973206e6f7420746865206f776e6572604082015260600190565b600067ffffffffffffffff821115612785576127856128a6565b5060051b60200190565b600082198211156127a2576127a2612890565b500190565b60008160001904831182151516156127c1576127c1612890565b500290565b6000828210156127d8576127d8612890565b500390565b60005b838110156127f85781810151838201526020016127e0565b83811115612807576000848401525b50505050565b600181811c9082168061282157607f821691505b6020821081141561284257634e487b7160e01b600052602260045260246000fd5b50919050565b601f8201601f1916810167ffffffffffffffff8111828210171561286e5761286e6128a6565b6040525050565b600060001982141561288957612889612890565b5060010190565b634e487b7160e01b600052601160045260246000fd5b634e487b7160e01b600052604160045260246000fd5b600060033d11156128d157600481823e5160e01c5b90565b600060443d10156128e25790565b6040516003193d81016004833e81513d67ffffffffffffffff816024840111818411171561291257505050505090565b828501915081518181111561292a5750505050505090565b843d87010160208285010111156129445750505050505090565b61295360208286010187612848565b509095945050505050565b6001600160e01b03198116811461110057600080fdfea2646970667358221220912b9baeae3d9551d7f9fd01403b6e37ce79802f8dbf3e0240b0a093cabb752a64736f6c63430008040033",
  "linkReferences": {},
  "deployedLinkReferences": {}
}