{
  "_format": "hh-sol-artifact-1",
  "contractName": "NFTMarketplace",
  "sourceName": "contracts/NFTMarketplace.sol",
  "abi": [
    {
      "inputs": [],
      "stateMutability": "nonpayable",
      "type": "constructor"
    },
    {
      "anonymous": false,
      "inputs": [
        {
          "indexed": true,
          "internalType": "address",
          "name": "account",
          "type": "address"
        },
        {
          "indexed": true,
          "internalType": "address",
          "name": "operator",
          "type": "address"
        },
        {
          "indexed": false,
          "internalType": "bool",
          "name": "approved",
          "type": "bool"
        }
      ],
      "name": "ApprovalForAll",
      "type": "event"
    },
    {
      "anonymous": false,
      "inputs": [
        {
          "indexed": true,
          "internalType": "uint256",
          "name": "tokenId",
          "type": "uint256"
        },
        {
          "indexed": false,
          "internalType": "address",
          "name": "seller",
          "type": "address"
        },
        {
          "indexed": false,
          "internalType": "uint256",
          "name": "price",
          "type": "uint256"
        },
        {
          "indexed": false,
          "internalType": "uint256",
          "name": "amount",
          "type": "uint256"
        }
      ],
      "name": "MarketOfferCreated",
      "type": "event"
    },
    {
      "anonymous": false,
      "inputs": [
        {
          "indexed": true,
          "internalType": "address",
          "name": "previousOwner",
          "type": "address"
        },
        {
          "indexed": true,
          "internalType": "address",
          "name": "newOwner",
          "type": "address"
        }
      ],
      "name": "OwnershipTransferred",
      "type": "event"
    },
    {
      "anonymous": false,
      "inputs": [
        {
          "indexed": true,
          "internalType": "address",
          "name": "operator",
          "type": "address"
        },
        {
          "indexed": true,
          "internalType": "address",
          "name": "from",
          "type": "address"
        },
        {
          "indexed": true,
          "internalType": "address",
          "name": "to",
          "type": "address"
        },
        {
          "indexed": false,
          "internalType": "uint256[]",
          "name": "ids",
          "type": "uint256[]"
        },
        {
          "indexed": false,
          "internalType": "uint256[]",
          "name": "values",
          "type": "uint256[]"
        }
      ],
      "name": "TransferBatch",
      "type": "event"
    },
    {
      "anonymous": false,
      "inputs": [
        {
          "indexed": true,
          "internalType": "address",
          "name": "operator",
          "type": "address"
        },
        {
          "indexed": true,
          "internalType": "address",
          "name": "from",
          "type": "address"
        },
        {
          "indexed": true,
          "internalType": "address",
          "name": "to",
          "type": "address"
        },
        {
          "indexed": false,
          "internalType": "uint256",
          "name": "id",
          "type": "uint256"
        },
        {
          "indexed": false,
          "internalType": "uint256",
          "name": "value",
          "type": "uint256"
        }
      ],
      "name": "TransferSingle",
      "type": "event"
    },
    {
      "anonymous": false,
      "inputs": [
        {
          "indexed": false,
          "internalType": "string",
          "name": "value",
          "type": "string"
        },
        {
          "indexed": true,
          "internalType": "uint256",
          "name": "id",
          "type": "uint256"
        }
      ],
      "name": "URI",
      "type": "event"
    },
    {
      "inputs": [
        {
          "internalType": "address",
          "name": "account",
          "type": "address"
        },
        {
          "internalType": "uint256",
          "name": "id",
          "type": "uint256"
        }
      ],
      "name": "balanceOf",
      "outputs": [
        {
          "internalType": "uint256",
          "name": "",
          "type": "uint256"
        }
      ],
      "stateMutability": "view",
      "type": "function"
    },
    {
      "inputs": [
        {
          "internalType": "address[]",
          "name": "accounts",
          "type": "address[]"
        },
        {
          "internalType": "uint256[]",
          "name": "ids",
          "type": "uint256[]"
        }
      ],
      "name": "balanceOfBatch",
      "outputs": [
        {
          "internalType": "uint256[]",
          "name": "",
          "type": "uint256[]"
        }
      ],
      "stateMutability": "view",
      "type": "function"
    },
    {
      "inputs": [
        {
          "internalType": "uint256",
          "name": "tokenId",
          "type": "uint256"
        },
        {
          "internalType": "uint256",
          "name": "amount",
          "type": "uint256"
        },
        {
          "internalType": "uint256",
          "name": "price",
          "type": "uint256"
        }
      ],
      "name": "createMarketOffer",
      "outputs": [],
      "stateMutability": "payable",
      "type": "function"
    },
    {
      "inputs": [
        {
          "internalType": "uint256",
          "name": "offerId",
          "type": "uint256"
        },
        {
          "internalType": "uint256",
          "name": "amount",
          "type": "uint256"
        }
      ],
      "name": "createMarketSale",
      "outputs": [],
      "stateMutability": "payable",
      "type": "function"
    },
    {
      "inputs": [
        {
          "internalType": "string",
          "name": "tokenURI",
          "type": "string"
        },
        {
          "internalType": "uint256",
          "name": "amount",
          "type": "uint256"
        },
        {
          "internalType": "bool",
          "name": "isPrivate",
          "type": "bool"
        }
      ],
      "name": "createToken",
      "outputs": [
        {
          "internalType": "uint256",
          "name": "",
          "type": "uint256"
        }
      ],
      "stateMutability": "payable",
      "type": "function"
    },
    {
      "inputs": [],
      "name": "fetchMarketOffers",
      "outputs": [
        {
          "components": [
            {
              "components": [
                {
                  "internalType": "uint256",
                  "name": "tokenId",
                  "type": "uint256"
                },
                {
                  "internalType": "address payable",
                  "name": "creator",
                  "type": "address"
                },
                {
                  "internalType": "uint256",
                  "name": "totalAmount",
                  "type": "uint256"
                },
                {
                  "internalType": "bool",
                  "name": "isPrivate",
                  "type": "bool"
                }
              ],
              "internalType": "struct NFTMarketplace.MarketItem",
              "name": "item",
              "type": "tuple"
            },
            {
              "internalType": "uint256",
              "name": "offerId",
              "type": "uint256"
            },
            {
              "internalType": "address payable",
              "name": "seller",
              "type": "address"
            },
            {
              "internalType": "uint256",
              "name": "price",
              "type": "uint256"
            },
            {
              "internalType": "uint256",
              "name": "amount",
              "type": "uint256"
            },
            {
              "internalType": "bool",
              "name": "isActive",
              "type": "bool"
            }
          ],
          "internalType": "struct NFTMarketplace.MarketOffer[]",
          "name": "",
          "type": "tuple[]"
        }
      ],
      "stateMutability": "view",
      "type": "function"
    },
    {
      "inputs": [],
      "name": "fetchMyOffers",
      "outputs": [
        {
          "components": [
            {
              "components": [
                {
                  "internalType": "uint256",
                  "name": "tokenId",
                  "type": "uint256"
                },
                {
                  "internalType": "address payable",
                  "name": "creator",
                  "type": "address"
                },
                {
                  "internalType": "uint256",
                  "name": "totalAmount",
                  "type": "uint256"
                },
                {
                  "internalType": "bool",
                  "name": "isPrivate",
                  "type": "bool"
                }
              ],
              "internalType": "struct NFTMarketplace.MarketItem",
              "name": "item",
              "type": "tuple"
            },
            {
              "internalType": "uint256",
              "name": "offerId",
              "type": "uint256"
            },
            {
              "internalType": "address payable",
              "name": "seller",
              "type": "address"
            },
            {
              "internalType": "uint256",
              "name": "price",
              "type": "uint256"
            },
            {
              "internalType": "uint256",
              "name": "amount",
              "type": "uint256"
            },
            {
              "internalType": "bool",
              "name": "isActive",
              "type": "bool"
            }
          ],
          "internalType": "struct NFTMarketplace.MarketOffer[]",
          "name": "",
          "type": "tuple[]"
        }
      ],
      "stateMutability": "view",
      "type": "function"
    },
    {
      "inputs": [],
      "name": "fetchOwnedItems",
      "outputs": [
        {
          "components": [
            {
              "internalType": "uint256",
              "name": "tokenId",
              "type": "uint256"
            },
            {
              "internalType": "address payable",
              "name": "creator",
              "type": "address"
            },
            {
              "internalType": "uint256",
              "name": "totalAmount",
              "type": "uint256"
            },
            {
              "internalType": "bool",
              "name": "isPrivate",
              "type": "bool"
            }
          ],
          "internalType": "struct NFTMarketplace.MarketItem[]",
          "name": "",
          "type": "tuple[]"
        }
      ],
      "stateMutability": "view",
      "type": "function"
    },
    {
      "inputs": [],
      "name": "getFee",
      "outputs": [
        {
          "internalType": "uint256",
          "name": "",
          "type": "uint256"
        }
      ],
      "stateMutability": "view",
      "type": "function"
    },
    {
      "inputs": [],
      "name": "getMarketFee",
      "outputs": [
        {
          "internalType": "uint256",
          "name": "",
          "type": "uint256"
        }
      ],
      "stateMutability": "view",
      "type": "function"
    },
    {
      "inputs": [
        {
          "internalType": "address",
          "name": "account",
          "type": "address"
        },
        {
          "internalType": "address",
          "name": "operator",
          "type": "address"
        }
      ],
      "name": "isApprovedForAll",
      "outputs": [
        {
          "internalType": "bool",
          "name": "",
          "type": "bool"
        }
      ],
      "stateMutability": "view",
      "type": "function"
    },
    {
      "inputs": [
        {
          "internalType": "address",
          "name": "",
          "type": "address"
        },
        {
          "internalType": "address",
          "name": "",
          "type": "address"
        },
        {
          "internalType": "uint256[]",
          "name": "",
          "type": "uint256[]"
        },
        {
          "internalType": "uint256[]",
          "name": "",
          "type": "uint256[]"
        },
        {
          "internalType": "bytes",
          "name": "",
          "type": "bytes"
        }
      ],
      "name": "onERC1155BatchReceived",
      "outputs": [
        {
          "internalType": "bytes4",
          "name": "",
          "type": "bytes4"
        }
      ],
      "stateMutability": "nonpayable",
      "type": "function"
    },
    {
      "inputs": [
        {
          "internalType": "address",
          "name": "",
          "type": "address"
        },
        {
          "internalType": "address",
          "name": "",
          "type": "address"
        },
        {
          "internalType": "uint256",
          "name": "",
          "type": "uint256"
        },
        {
          "internalType": "uint256",
          "name": "",
          "type": "uint256"
        },
        {
          "internalType": "bytes",
          "name": "",
          "type": "bytes"
        }
      ],
      "name": "onERC1155Received",
      "outputs": [
        {
          "internalType": "bytes4",
          "name": "",
          "type": "bytes4"
        }
      ],
      "stateMutability": "nonpayable",
      "type": "function"
    },
    {
      "inputs": [],
      "name": "owner",
      "outputs": [
        {
          "internalType": "address",
          "name": "",
          "type": "address"
        }
      ],
      "stateMutability": "view",
      "type": "function"
    },
    {
      "inputs": [],
      "name": "paused",
      "outputs": [
        {
          "internalType": "bool",
          "name": "",
          "type": "bool"
        }
      ],
      "stateMutability": "view",
      "type": "function"
    },
    {
      "inputs": [],
      "name": "renounceOwnership",
      "outputs": [],
      "stateMutability": "nonpayable",
      "type": "function"
    },
    {
      "inputs": [
        {
          "internalType": "address",
          "name": "from",
          "type": "address"
        },
        {
          "internalType": "address",
          "name": "to",
          "type": "address"
        },
        {
          "internalType": "uint256[]",
          "name": "ids",
          "type": "uint256[]"
        },
        {
          "internalType": "uint256[]",
          "name": "amounts",
          "type": "uint256[]"
        },
        {
          "internalType": "bytes",
          "name": "data",
          "type": "bytes"
        }
      ],
      "name": "safeBatchTransferFrom",
      "outputs": [],
      "stateMutability": "nonpayable",
      "type": "function"
    },
    {
      "inputs": [
        {
          "internalType": "address",
          "name": "from",
          "type": "address"
        },
        {
          "internalType": "address",
          "name": "to",
          "type": "address"
        },
        {
          "internalType": "uint256",
          "name": "id",
          "type": "uint256"
        },
        {
          "internalType": "uint256",
          "name": "amount",
          "type": "uint256"
        },
        {
          "internalType": "bytes",
          "name": "data",
          "type": "bytes"
        }
      ],
      "name": "safeTransferFrom",
      "outputs": [],
      "stateMutability": "nonpayable",
      "type": "function"
    },
    {
      "inputs": [
        {
          "internalType": "address",
          "name": "operator",
          "type": "address"
        },
        {
          "internalType": "bool",
          "name": "approved",
          "type": "bool"
        }
      ],
      "name": "setApprovalForAll",
      "outputs": [],
      "stateMutability": "nonpayable",
      "type": "function"
    },
    {
      "inputs": [
        {
          "internalType": "bool",
          "name": "_paused",
          "type": "bool"
        }
      ],
      "name": "setPaused",
      "outputs": [],
      "stateMutability": "nonpayable",
      "type": "function"
    },
    {
      "inputs": [
        {
          "internalType": "bytes4",
          "name": "interfaceId",
          "type": "bytes4"
        }
      ],
      "name": "supportsInterface",
      "outputs": [
        {
          "internalType": "bool",
          "name": "",
          "type": "bool"
        }
      ],
      "stateMutability": "view",
      "type": "function"
    },
    {
      "inputs": [
        {
          "internalType": "address",
          "name": "newOwner",
          "type": "address"
        }
      ],
      "name": "transferOwnership",
      "outputs": [],
      "stateMutability": "nonpayable",
      "type": "function"
    },
    {
      "inputs": [
        {
          "internalType": "uint256",
          "name": "_fee",
          "type": "uint256"
        }
      ],
      "name": "updateFee",
      "outputs": [],
      "stateMutability": "payable",
      "type": "function"
    },
    {
      "inputs": [
        {
          "internalType": "uint256",
          "name": "_fee",
          "type": "uint256"
        }
      ],
      "name": "updateMarketFee",
      "outputs": [],
      "stateMutability": "payable",
      "type": "function"
    },
    {
      "inputs": [
        {
          "internalType": "uint256",
          "name": "tokenId",
          "type": "uint256"
        }
      ],
      "name": "uri",
      "outputs": [
        {
          "internalType": "string",
          "name": "",
          "type": "string"
        }
      ],
      "stateMutability": "view",
      "type": "function"
    }
  ],
  "bytecode": "0x60a06040819052600060808190526200001b91600491620000c6565b5060646009553480156200002e57600080fd5b5060408051602081019091526000815262000049816200005b565b50620000553362000074565b620001a9565b805162000070906002906020840190620000c6565b5050565b600380546001600160a01b038381166001600160a01b0319831681179093556040519116919082907f8be0079c531659141344cd1fd0a4f28419497f9722a3daafe3b4186f6b6457e090600090a35050565b828054620000d4906200016c565b90600052602060002090601f016020900481019282620000f8576000855562000143565b82601f106200011357805160ff191683800117855562000143565b8280016001018555821562000143579182015b828111156200014357825182559160200191906001019062000126565b506200015192915062000155565b5090565b5b8082111562000151576000815560010162000156565b600181811c908216806200018157607f821691505b60208210811415620001a357634e487b7160e01b600052602260045260246000fd5b50919050565b612a6380620001b96000396000f3fe6080604052600436106101655760003560e01c80638da5cb5b116100d1578063bc197c811161008a578063f23a6e6111610064578063f23a6e6114610415578063f242432a14610441578063f2fde38b14610461578063fe97b82e1461048157600080fd5b8063bc197c8114610387578063ced72f87146102a5578063e985e9c5146103cc57600080fd5b80638da5cb5b146103045780639012c4a81461032c578063940c160d1461033f5780639b4843791461032c578063a1c11ca814610354578063a22cb4651461036757600080fd5b80634e1273f4116101235780634e1273f41461025e5780635c975abb1461028b5780635e123add146102a5578063715018a6146102ba578063775cdaad146102cf57806385313915146102f157600080fd5b8062fdd58e1461016a57806301ffc9a71461019d57806304a59f0c146101cd5780630e89341c146101ef57806316c38b3c1461021c5780632eb2c2d61461023e575b600080fd5b34801561017657600080fd5b5061018a61018536600461219e565b610494565b6040519081526020015b60405180910390f35b3480156101a957600080fd5b506101bd6101b83660046122ac565b61052b565b6040519015158152602001610194565b3480156101d957600080fd5b506101e261053c565b60405161019491906125f2565b3480156101fb57600080fd5b5061020f61020a36600461234c565b610757565b60405161019491906126e5565b34801561022857600080fd5b5061023c610237366004612292565b610762565b005b34801561024a57600080fd5b5061023c61025936600461206c565b61079f565b34801561026a57600080fd5b5061027e6102793660046121c7565b610836565b60405161019491906126ad565b34801561029757600080fd5b50600a546101bd9060ff1681565b3480156102b157600080fd5b5060095461018a565b3480156102c657600080fd5b5061023c610998565b3480156102db57600080fd5b506102e46109ce565b604051610194919061257b565b61023c6102ff366004612385565b610b53565b34801561031057600080fd5b506003546040516001600160a01b039091168152602001610194565b61023c61033a36600461234c565b610e35565b34801561034b57600080fd5b506101e2610e64565b61023c610362366004612364565b610fe9565b34801561037357600080fd5b5061023c610382366004612175565b611195565b34801561039357600080fd5b506103b36103a236600461206c565b63bc197c8160e01b95945050505050565b6040516001600160e01b03199091168152602001610194565b3480156103d857600080fd5b506101bd6103e736600461203a565b6001600160a01b03918216600090815260016020908152604080832093909416825291909152205460ff1690565b34801561042157600080fd5b506103b3610430366004612112565b63f23a6e6160e01b95945050505050565b34801561044d57600080fd5b5061023c61045c366004612112565b6111a4565b34801561046d57600080fd5b5061023c61047c366004612020565b61122b565b61018a61048f3660046122e4565b6112c6565b60006001600160a01b0383166105055760405162461bcd60e51b815260206004820152602b60248201527f455243313135353a2062616c616e636520717565727920666f7220746865207a60448201526a65726f206164647265737360a81b60648201526084015b60405180910390fd5b506000908152602081815260408083206001600160a01b03949094168352929052205490565b60006105368261137b565b92915050565b6060600061054960075490565b905060008060015b8381116105b7576000818152600c602052604090206008015460ff16801561059257506000818152600c60205260409020600501546001600160a01b031633145b156105a5576105a2600183612828565b91505b806105af8161292e565b915050610551565b5060008167ffffffffffffffff8111156105e157634e487b7160e01b600052604160045260246000fd5b60405190808252806020026020018201604052801561061a57816020015b610607611e17565b8152602001906001900390816105ff5790505b50905060015b84811161074e576000818152600c602052604090206008015460ff16801561066157506000818152600c60205260409020600501546001600160a01b031633145b1561073c576000818152600c6020908152604091829020825161014081018452815460c0820190815260018301546001600160a01b0390811660e08401526002840154610100840152600384015460ff908116151561012085015291835260048401549483019490945260058301549093169381019390935260068101546060840152600781015460808401526008810154909116151560a0830152835190919084908790811061072257634e487b7160e01b600052603260045260246000fd5b6020908102919091010152610738600186612828565b9450505b806107468161292e565b915050610620565b50949350505050565b6060610536826113a0565b6003546001600160a01b0316331461078c5760405162461bcd60e51b81526004016104fc906127cf565b600a805460ff1916911515919091179055565b6001600160a01b0385163314806107bb57506107bb85336103e7565b6108225760405162461bcd60e51b815260206004820152603260248201527f455243313135353a207472616e736665722063616c6c6572206973206e6f74206044820152711bdddb995c881b9bdc88185c1c1c9bdd995960721b60648201526084016104fc565b61082f8585858585611480565b5050505050565b6060815183511461089b5760405162461bcd60e51b815260206004820152602960248201527f455243313135353a206163636f756e747320616e6420696473206c656e677468604482015268040dad2e6dac2e8c6d60bb1b60648201526084016104fc565b6000835167ffffffffffffffff8111156108c557634e487b7160e01b600052604160045260246000fd5b6040519080825280602002602001820160405280156108ee578160200160208202803683370190505b50905060005b84518110156109905761095585828151811061092057634e487b7160e01b600052603260045260246000fd5b602002602001015185838151811061094857634e487b7160e01b600052603260045260246000fd5b6020026020010151610494565b82828151811061097557634e487b7160e01b600052603260045260246000fd5b60209081029190910101526109898161292e565b90506108f4565b509392505050565b6003546001600160a01b031633146109c25760405162461bcd60e51b81526004016104fc906127cf565b6109cc6000611679565b565b606060006109db60065490565b905060008060015b838111610a1c5760006109f63383610494565b1115610a0a57610a07600184612828565b92505b80610a148161292e565b9150506109e3565b5060008267ffffffffffffffff811115610a4657634e487b7160e01b600052604160045260246000fd5b604051908082528060200260200182016040528015610a9857816020015b604080516080810182526000808252602080830182905292820181905260608201528252600019909201910181610a645790505b50905060015b84811161074e576000610ab13383610494565b1115610b41576000818152600b602090815260409182902082516080810184528154815260018201546001600160a01b031692810192909252600281015492820192909252600382015460ff16151560608201528351849086908110610b2757634e487b7160e01b600052603260045260246000fd5b6020908102919091010152610b3d600185612828565b9350505b80610b4b8161292e565b915050610a9e565b60008111610ba35760405162461bcd60e51b815260206004820152601c60248201527f5072696365206d757374206265206174206c656173742031207765690000000060448201526064016104fc565b600954610bb08383612860565b610bba9190612840565b3414610c125760405162461bcd60e51b815260206004820152602160248201527f56616c7565206d757374206d61746368207468652072657175697265642066656044820152606560f81b60648201526084016104fc565b6060610c2133308686856116cb565b610c2f600780546001019055565b6000610c3a60075490565b90506040518060c00160405280600b6000888152602001908152602001600020604051806080016040529081600082015481526020016001820160009054906101000a90046001600160a01b03166001600160a01b03166001600160a01b03168152602001600282015481526020016003820160009054906101000a900460ff1615151515815250508152602001828152602001336001600160a01b0316815260200184815260200185815260200160011515815250600c60008381526020019081526020016000206000820151816000016000820151816000015560208201518160010160006101000a8154816001600160a01b0302191690836001600160a01b031602179055506040820151816002015560608201518160030160006101000a81548160ff02191690831515021790555050506020820151816004015560408201518160050160006101000a8154816001600160a01b0302191690836001600160a01b03160217905550606082015181600601556080820151816007015560a08201518160080160006101000a81548160ff021916908315150217905550905050610deb600880546001019055565b604080513381526020810185905290810185905285907f7bb754e08cb84d9d03b1897a0f97cadcae639d5c40ac9ee86ce78c0509f7b3bc9060600160405180910390a25050505050565b6003546001600160a01b03163314610e5f5760405162461bcd60e51b81526004016104fc906127cf565b600955565b6060600080610e7260085490565b67ffffffffffffffff811115610e9857634e487b7160e01b600052604160045260246000fd5b604051908082528060200260200182016040528015610ed157816020015b610ebe611e17565b815260200190600190039081610eb65790505b50905060015b6007548111610fe2576000818152600c602052604090206008015460ff1615610fd0576000818152600c6020908152604091829020825161014081018452815460c0820190815260018301546001600160a01b0390811660e08401526002840154610100840152600384015460ff908116151561012085015291835260048401549483019490945260058301549093169381019390935260068101546060840152600781015460808401526008810154909116151560a08301528351909190849086908110610fb657634e487b7160e01b600052603260045260246000fd5b6020908102919091010152610fcc600185612828565b9350505b80610fda8161292e565b915050610ed7565b5092915050565b6000828152600c602052604081208054600182015460069092015490926001600160a01b03909216919061101e908590612860565b6000868152600c6020526040812060058101546007909101549293506001600160a01b03169161104f90879061287f565b905060608334146110b55760405162461bcd60e51b815260206004820152602a60248201527f496e73756666696369656e742076616c75652073656e7420746f20637265617460448201526965207468652073616c6560b01b60648201526084016104fc565b6110c23033888a856116cb565b846001600160a01b03166108fc600954866110dd9190612840565b6040518115909202916000818181858888f19350505050158015611105573d6000803e3d6000fd5b506040516001600160a01b038416903480156108fc02916000818181858888f1935050505015801561113b573d6000803e3d6000fd5b506000888152600c602052604090206007018290558161118b576000888152600c602052604090206005810180546001600160a01b03191690556008908101805460ff1916905561118b906117f5565b5050505050505050565b6111a033838361184c565b5050565b6001600160a01b0385163314806111c057506111c085336103e7565b61121e5760405162461bcd60e51b815260206004820152602960248201527f455243313135353a2063616c6c6572206973206e6f74206f776e6572206e6f7260448201526808185c1c1c9bdd995960ba1b60648201526084016104fc565b61082f85858585856116cb565b6003546001600160a01b031633146112555760405162461bcd60e51b81526004016104fc906127cf565b6001600160a01b0381166112ba5760405162461bcd60e51b815260206004820152602660248201527f4f776e61626c653a206e6577206f776e657220697320746865207a65726f206160448201526564647265737360d01b60648201526084016104fc565b6112c381611679565b50565b60006112d6600680546001019055565b60006112e160065490565b905060606112f13383878461192d565b6112fb8287611a41565b5060408051608081018252828152336020808301918252828401978852951515606083019081526000858152600b909752929095209051815593516001850180546001600160a01b0319166001600160a01b039092169190911790559351600284015592516003909201805460ff19169215159290921790915550919050565b60006001600160e01b03198216630271189760e51b1480610536575061053682611aa5565b6000818152600560205260408120805460609291906113be906128c6565b80601f01602080910402602001604051908101604052809291908181526020018280546113ea906128c6565b80156114375780601f1061140c57610100808354040283529160200191611437565b820191906000526020600020905b81548152906001019060200180831161141a57829003601f168201915b5050505050905060008151116114555761145083611af5565b611479565b600481604051602001611469929190612432565b6040516020818303038152906040525b9392505050565b81518351146114e25760405162461bcd60e51b815260206004820152602860248201527f455243313135353a2069647320616e6420616d6f756e7473206c656e677468206044820152670dad2e6dac2e8c6d60c31b60648201526084016104fc565b6001600160a01b0384166115085760405162461bcd60e51b81526004016104fc90612740565b3360005b845181101561160b57600085828151811061153757634e487b7160e01b600052603260045260246000fd5b60200260200101519050600085838151811061156357634e487b7160e01b600052603260045260246000fd5b602090810291909101810151600084815280835260408082206001600160a01b038e1683529093529190912054909150818110156115b35760405162461bcd60e51b81526004016104fc90612785565b6000838152602081815260408083206001600160a01b038e8116855292528083208585039055908b168252812080548492906115f0908490612828565b92505081905550505050806116049061292e565b905061150c565b50846001600160a01b0316866001600160a01b0316826001600160a01b03167f4a39dc06d4c0dbc64b70af90fd698a233a518aa5d07e595d983b8c0526c8f7fb878760405161165b9291906126c0565b60405180910390a4611671818787878787611b89565b505050505050565b600380546001600160a01b038381166001600160a01b0319831681179093556040519116919082907f8be0079c531659141344cd1fd0a4f28419497f9722a3daafe3b4186f6b6457e090600090a35050565b6001600160a01b0384166116f15760405162461bcd60e51b81526004016104fc90612740565b3360006116fd85611cf4565b9050600061170a85611cf4565b90506000868152602081815260408083206001600160a01b038c1684529091529020548581101561174d5760405162461bcd60e51b81526004016104fc90612785565b6000878152602081815260408083206001600160a01b038d8116855292528083208985039055908a1682528120805488929061178a908490612828565b909155505060408051888152602081018890526001600160a01b03808b16928c821692918816917fc3d58168c5ae7397731d063d5bbf3d657854427343f4c083240f7aacaa2d0f62910160405180910390a46117ea848a8a8a8a8a611d4d565b505050505050505050565b8054806118445760405162461bcd60e51b815260206004820152601b60248201527f436f756e7465723a2064656372656d656e74206f766572666c6f77000000000060448201526064016104fc565b600019019055565b816001600160a01b0316836001600160a01b031614156118c05760405162461bcd60e51b815260206004820152602960248201527f455243313135353a2073657474696e6720617070726f76616c20737461747573604482015268103337b91039b2b63360b91b60648201526084016104fc565b6001600160a01b03838116600081815260016020908152604080832094871680845294825291829020805460ff191686151590811790915591519182527f17307eab39ab6107e8899845ad3d59bd9653f200f220920489ca2b5937696c31910160405180910390a3505050565b6001600160a01b03841661198d5760405162461bcd60e51b815260206004820152602160248201527f455243313135353a206d696e7420746f20746865207a65726f206164647265736044820152607360f81b60648201526084016104fc565b33600061199985611cf4565b905060006119a685611cf4565b90506000868152602081815260408083206001600160a01b038b168452909152812080548792906119d8908490612828565b909155505060408051878152602081018790526001600160a01b03808a1692600092918716917fc3d58168c5ae7397731d063d5bbf3d657854427343f4c083240f7aacaa2d0f62910160405180910390a4611a3883600089898989611d4d565b50505050505050565b60008281526005602090815260409091208251611a6092840190611e6a565b50817f6bb7ff708619ba0610cba295a58592e0451dee2622938c8755667688daf3529b611a8c84610757565b604051611a9991906126e5565b60405180910390a25050565b60006001600160e01b03198216636cdb3d1360e11b1480611ad657506001600160e01b031982166303a24d0760e21b145b8061053657506301ffc9a760e01b6001600160e01b0319831614610536565b606060028054611b04906128c6565b80601f0160208091040260200160405190810160405280929190818152602001828054611b30906128c6565b8015611b7d5780601f10611b5257610100808354040283529160200191611b7d565b820191906000526020600020905b815481529060010190602001808311611b6057829003601f168201915b50505050509050919050565b6001600160a01b0384163b156116715760405163bc197c8160e01b81526001600160a01b0385169063bc197c8190611bcd90899089908890889088906004016124d8565b602060405180830381600087803b158015611be757600080fd5b505af1925050508015611c17575060408051601f3d908101601f19168201909252611c14918101906122c8565b60015b611cc457611c23612975565b806308c379a01415611c5d5750611c3861298d565b80611c435750611c5f565b8060405162461bcd60e51b81526004016104fc91906126e5565b505b60405162461bcd60e51b815260206004820152603460248201527f455243313135353a207472616e7366657220746f206e6f6e20455243313135356044820152732932b1b2b4bb32b91034b6b83632b6b2b73a32b960611b60648201526084016104fc565b6001600160e01b0319811663bc197c8160e01b14611a385760405162461bcd60e51b81526004016104fc906126f8565b60408051600180825281830190925260609160009190602080830190803683370190505090508281600081518110611d3c57634e487b7160e01b600052603260045260246000fd5b602090810291909101015292915050565b6001600160a01b0384163b156116715760405163f23a6e6160e01b81526001600160a01b0385169063f23a6e6190611d919089908990889088908890600401612536565b602060405180830381600087803b158015611dab57600080fd5b505af1925050508015611ddb575060408051601f3d908101601f19168201909252611dd8918101906122c8565b60015b611de757611c23612975565b6001600160e01b0319811663f23a6e6160e01b14611a385760405162461bcd60e51b81526004016104fc906126f8565b6040805161014081018252600060c0820181815260e0830182905261010083018290526101208301829052825260208201819052918101829052606081018290526080810182905260a081019190915290565b828054611e76906128c6565b90600052602060002090601f016020900481019282611e985760008555611ede565b82601f10611eb157805160ff1916838001178555611ede565b82800160010185558215611ede579182015b82811115611ede578251825591602001919060010190611ec3565b50611eea929150611eee565b5090565b5b80821115611eea5760008155600101611eef565b600067ffffffffffffffff831115611f1d57611f1d61295f565b604051611f34601f8501601f191660200182612901565b809150838152848484011115611f4957600080fd5b83836020830137600060208583010152509392505050565b80356001600160a01b0381168114611f7857600080fd5b919050565b600082601f830112611f8d578081fd5b81356020611f9a82612804565b604051611fa78282612901565b8381528281019150858301600585901b87018401881015611fc6578586fd5b855b85811015611fe457813584529284019290840190600101611fc8565b5090979650505050505050565b80358015158114611f7857600080fd5b600082601f830112612011578081fd5b61147983833560208501611f03565b600060208284031215612031578081fd5b61147982611f61565b6000806040838503121561204c578081fd5b61205583611f61565b915061206360208401611f61565b90509250929050565b600080600080600060a08688031215612083578081fd5b61208c86611f61565b945061209a60208701611f61565b9350604086013567ffffffffffffffff808211156120b6578283fd5b6120c289838a01611f7d565b945060608801359150808211156120d7578283fd5b6120e389838a01611f7d565b935060808801359150808211156120f8578283fd5b5061210588828901612001565b9150509295509295909350565b600080600080600060a08688031215612129578081fd5b61213286611f61565b945061214060208701611f61565b93506040860135925060608601359150608086013567ffffffffffffffff811115612169578182fd5b61210588828901612001565b60008060408385031215612187578182fd5b61219083611f61565b915061206360208401611ff1565b600080604083850312156121b0578182fd5b6121b983611f61565b946020939093013593505050565b600080604083850312156121d9578182fd5b823567ffffffffffffffff808211156121f0578384fd5b818501915085601f830112612203578384fd5b8135602061221082612804565b60405161221d8282612901565b8381528281019150858301600585901b870184018b101561223c578889fd5b8896505b848710156122655761225181611f61565b835260019690960195918301918301612240565b509650508601359250508082111561227b578283fd5b5061228885828601611f7d565b9150509250929050565b6000602082840312156122a3578081fd5b61147982611ff1565b6000602082840312156122bd578081fd5b813561147981612a17565b6000602082840312156122d9578081fd5b815161147981612a17565b6000806000606084860312156122f8578081fd5b833567ffffffffffffffff81111561230e578182fd5b8401601f8101861361231e578182fd5b61232d86823560208401611f03565b9350506020840135915061234360408501611ff1565b90509250925092565b60006020828403121561235d578081fd5b5035919050565b60008060408385031215612376578182fd5b50508035926020909101359150565b600080600060608486031215612399578081fd5b505081359360208301359350604090920135919050565b6000815180845260208085019450808401835b838110156123df578151875295820195908201906001016123c3565b509495945050505050565b60008151808452612402816020860160208601612896565b601f01601f19169290920160200192915050565b60008151612428818560208601612896565b9290920192915050565b600080845482600182811c91508083168061244e57607f831692505b602080841082141561246e57634e487b7160e01b87526022600452602487fd5b8180156124825760018114612493576124bf565b60ff198616895284890196506124bf565b60008b815260209020885b868110156124b75781548b82015290850190830161249e565b505084890196505b5050505050506124cf8185612416565b95945050505050565b6001600160a01b0386811682528516602082015260a060408201819052600090612504908301866123b0565b828103606084015261251681866123b0565b9050828103608084015261252a81856123ea565b98975050505050505050565b6001600160a01b03868116825285166020820152604081018490526060810183905260a060808201819052600090612570908301846123ea565b979650505050505050565b6020808252825182820181905260009190848201906040850190845b818110156125e6576125d3838551805182526020808201516001600160a01b031690830152604080820151908301526060908101511515910152565b9284019260809290920191600101612597565b50909695505050505050565b602080825282518282018190526000919060409081850190868401855b828110156126a057815161264d858251805182526020808201516001600160a01b031690830152604080820151908301526060908101511515910152565b80870151608086810191909152868201516001600160a01b031660a080880191909152606083015160c08801529082015160e087015201511515610100850152610120909301929085019060010161260f565b5091979650505050505050565b60208152600061147960208301846123b0565b6040815260006126d360408301856123b0565b82810360208401526124cf81856123b0565b60208152600061147960208301846123ea565b60208082526028908201527f455243313135353a204552433131353552656365697665722072656a656374656040820152676420746f6b656e7360c01b606082015260800190565b60208082526025908201527f455243313135353a207472616e7366657220746f20746865207a65726f206164604082015264647265737360d81b606082015260800190565b6020808252602a908201527f455243313135353a20696e73756666696369656e742062616c616e636520666f60408201526939103a3930b739b332b960b11b606082015260800190565b6020808252818101527f4f776e61626c653a2063616c6c6572206973206e6f7420746865206f776e6572604082015260600190565b600067ffffffffffffffff82111561281e5761281e61295f565b5060051b60200190565b6000821982111561283b5761283b612949565b500190565b60008261285b57634e487b7160e01b81526012600452602481fd5b500490565b600081600019048311821515161561287a5761287a612949565b500290565b60008282101561289157612891612949565b500390565b60005b838110156128b1578181015183820152602001612899565b838111156128c0576000848401525b50505050565b600181811c908216806128da57607f821691505b602082108114156128fb57634e487b7160e01b600052602260045260246000fd5b50919050565b601f8201601f1916810167ffffffffffffffff811182821017156129275761292761295f565b6040525050565b600060001982141561294257612942612949565b5060010190565b634e487b7160e01b600052601160045260246000fd5b634e487b7160e01b600052604160045260246000fd5b600060033d111561298a57600481823e5160e01c5b90565b600060443d101561299b5790565b6040516003193d81016004833e81513d67ffffffffffffffff81602484011181841117156129cb57505050505090565b82850191508151818111156129e35750505050505090565b843d87010160208285010111156129fd5750505050505090565b612a0c60208286010187612901565b509095945050505050565b6001600160e01b0319811681146112c357600080fdfea2646970667358221220f29d31069c712ef643578c6127cbe1676fdaafc535d71bb99604f618cbae7d0264736f6c63430008040033",
  "linkReferences": {},
  "deployedLinkReferences": {}
}