{
  "_format": "hh-sol-artifact-1",
  "contractName": "NFTMarketplace",
  "sourceName": "contracts/NFTMarketplace.sol",
  "abi": [
    {
      "inputs": [],
      "stateMutability": "nonpayable",
      "type": "constructor"
    },
    {
      "anonymous": false,
      "inputs": [
        {
          "indexed": true,
          "internalType": "address",
          "name": "account",
          "type": "address"
        },
        {
          "indexed": true,
          "internalType": "address",
          "name": "operator",
          "type": "address"
        },
        {
          "indexed": false,
          "internalType": "bool",
          "name": "approved",
          "type": "bool"
        }
      ],
      "name": "ApprovalForAll",
      "type": "event"
    },
    {
      "anonymous": false,
      "inputs": [
        {
          "indexed": true,
          "internalType": "uint256",
          "name": "tokenId",
          "type": "uint256"
        },
        {
          "indexed": false,
          "internalType": "uint256",
          "name": "offerId",
          "type": "uint256"
        },
        {
          "indexed": false,
          "internalType": "address",
          "name": "buyer",
          "type": "address"
        },
        {
          "indexed": false,
          "internalType": "address",
          "name": "seller",
          "type": "address"
        },
        {
          "indexed": false,
          "internalType": "uint256",
          "name": "price",
          "type": "uint256"
        },
        {
          "indexed": false,
          "internalType": "uint256",
          "name": "amount",
          "type": "uint256"
        }
      ],
      "name": "MarketItemSold",
      "type": "event"
    },
    {
      "anonymous": false,
      "inputs": [
        {
          "indexed": true,
          "internalType": "uint256",
          "name": "tokenId",
          "type": "uint256"
        },
        {
          "indexed": false,
          "internalType": "uint256",
          "name": "offerId",
          "type": "uint256"
        },
        {
          "indexed": false,
          "internalType": "address",
          "name": "seller",
          "type": "address"
        }
      ],
      "name": "MarketOfferCancelled",
      "type": "event"
    },
    {
      "anonymous": false,
      "inputs": [
        {
          "indexed": true,
          "internalType": "uint256",
          "name": "tokenId",
          "type": "uint256"
        },
        {
          "indexed": false,
          "internalType": "uint256",
          "name": "offerId",
          "type": "uint256"
        },
        {
          "indexed": false,
          "internalType": "address",
          "name": "seller",
          "type": "address"
        },
        {
          "indexed": false,
          "internalType": "uint256",
          "name": "price",
          "type": "uint256"
        },
        {
          "indexed": false,
          "internalType": "uint256",
          "name": "amount",
          "type": "uint256"
        }
      ],
      "name": "MarketOfferCreated",
      "type": "event"
    },
    {
      "anonymous": false,
      "inputs": [
        {
          "indexed": true,
          "internalType": "address",
          "name": "previousOwner",
          "type": "address"
        },
        {
          "indexed": true,
          "internalType": "address",
          "name": "newOwner",
          "type": "address"
        }
      ],
      "name": "OwnershipTransferred",
      "type": "event"
    },
    {
      "anonymous": false,
      "inputs": [
        {
          "indexed": true,
          "internalType": "uint256",
          "name": "tokenId",
          "type": "uint256"
        },
        {
          "indexed": false,
          "internalType": "address",
          "name": "creator",
          "type": "address"
        },
        {
          "indexed": false,
          "internalType": "uint256",
          "name": "totalAmount",
          "type": "uint256"
        },
        {
          "indexed": false,
          "internalType": "bool",
          "name": "isPrivate",
          "type": "bool"
        },
        {
          "indexed": false,
          "internalType": "bool",
          "name": "isFungible",
          "type": "bool"
        }
      ],
      "name": "TokenMinted",
      "type": "event"
    },
    {
      "anonymous": false,
      "inputs": [
        {
          "indexed": true,
          "internalType": "address",
          "name": "operator",
          "type": "address"
        },
        {
          "indexed": true,
          "internalType": "address",
          "name": "from",
          "type": "address"
        },
        {
          "indexed": true,
          "internalType": "address",
          "name": "to",
          "type": "address"
        },
        {
          "indexed": false,
          "internalType": "uint256[]",
          "name": "ids",
          "type": "uint256[]"
        },
        {
          "indexed": false,
          "internalType": "uint256[]",
          "name": "values",
          "type": "uint256[]"
        }
      ],
      "name": "TransferBatch",
      "type": "event"
    },
    {
      "anonymous": false,
      "inputs": [
        {
          "indexed": true,
          "internalType": "address",
          "name": "operator",
          "type": "address"
        },
        {
          "indexed": true,
          "internalType": "address",
          "name": "from",
          "type": "address"
        },
        {
          "indexed": true,
          "internalType": "address",
          "name": "to",
          "type": "address"
        },
        {
          "indexed": false,
          "internalType": "uint256",
          "name": "id",
          "type": "uint256"
        },
        {
          "indexed": false,
          "internalType": "uint256",
          "name": "value",
          "type": "uint256"
        }
      ],
      "name": "TransferSingle",
      "type": "event"
    },
    {
      "anonymous": false,
      "inputs": [
        {
          "indexed": false,
          "internalType": "string",
          "name": "value",
          "type": "string"
        },
        {
          "indexed": true,
          "internalType": "uint256",
          "name": "id",
          "type": "uint256"
        }
      ],
      "name": "URI",
      "type": "event"
    },
    {
      "inputs": [],
      "name": "airdrop",
      "outputs": [],
      "stateMutability": "payable",
      "type": "function"
    },
    {
      "inputs": [
        {
          "internalType": "address",
          "name": "account",
          "type": "address"
        },
        {
          "internalType": "uint256",
          "name": "id",
          "type": "uint256"
        }
      ],
      "name": "balanceOf",
      "outputs": [
        {
          "internalType": "uint256",
          "name": "",
          "type": "uint256"
        }
      ],
      "stateMutability": "view",
      "type": "function"
    },
    {
      "inputs": [
        {
          "internalType": "address[]",
          "name": "accounts",
          "type": "address[]"
        },
        {
          "internalType": "uint256[]",
          "name": "ids",
          "type": "uint256[]"
        }
      ],
      "name": "balanceOfBatch",
      "outputs": [
        {
          "internalType": "uint256[]",
          "name": "",
          "type": "uint256[]"
        }
      ],
      "stateMutability": "view",
      "type": "function"
    },
    {
      "inputs": [
        {
          "internalType": "uint256",
          "name": "offerId",
          "type": "uint256"
        }
      ],
      "name": "cancelMarketOffer",
      "outputs": [],
      "stateMutability": "nonpayable",
      "type": "function"
    },
    {
      "inputs": [
        {
          "internalType": "uint256",
          "name": "tokenId",
          "type": "uint256"
        },
        {
          "internalType": "uint256",
          "name": "amount",
          "type": "uint256"
        },
        {
          "internalType": "uint256",
          "name": "price",
          "type": "uint256"
        }
      ],
      "name": "createMarketOffer",
      "outputs": [],
      "stateMutability": "nonpayable",
      "type": "function"
    },
    {
      "inputs": [
        {
          "internalType": "uint256",
          "name": "offerId",
          "type": "uint256"
        },
        {
          "internalType": "uint256",
          "name": "amount",
          "type": "uint256"
        }
      ],
      "name": "createMarketSale",
      "outputs": [],
      "stateMutability": "payable",
      "type": "function"
    },
    {
      "inputs": [
        {
          "internalType": "string",
          "name": "tokenURI",
          "type": "string"
        },
        {
          "internalType": "uint256",
          "name": "amount",
          "type": "uint256"
        },
        {
          "internalType": "bool",
          "name": "isPrivate",
          "type": "bool"
        },
        {
          "internalType": "bool",
          "name": "isFungible",
          "type": "bool"
        }
      ],
      "name": "createToken",
      "outputs": [
        {
          "internalType": "uint256",
          "name": "",
          "type": "uint256"
        }
      ],
      "stateMutability": "payable",
      "type": "function"
    },
    {
      "inputs": [
        {
          "internalType": "uint256",
          "name": "tokenType",
          "type": "uint256"
        }
      ],
      "name": "fetchMarketOffers",
      "outputs": [
        {
          "components": [
            {
              "components": [
                {
                  "internalType": "uint256",
                  "name": "tokenId",
                  "type": "uint256"
                },
                {
                  "internalType": "address payable",
                  "name": "creator",
                  "type": "address"
                },
                {
                  "internalType": "uint256",
                  "name": "totalAmount",
                  "type": "uint256"
                },
                {
                  "internalType": "bool",
                  "name": "isPrivate",
                  "type": "bool"
                },
                {
                  "internalType": "bool",
                  "name": "isFungible",
                  "type": "bool"
                }
              ],
              "internalType": "struct NFTMarketplace.MarketItem",
              "name": "item",
              "type": "tuple"
            },
            {
              "internalType": "uint256",
              "name": "offerId",
              "type": "uint256"
            },
            {
              "internalType": "address payable",
              "name": "seller",
              "type": "address"
            },
            {
              "internalType": "uint256",
              "name": "price",
              "type": "uint256"
            },
            {
              "internalType": "uint256",
              "name": "amount",
              "type": "uint256"
            },
            {
              "internalType": "bool",
              "name": "isActive",
              "type": "bool"
            }
          ],
          "internalType": "struct NFTMarketplace.MarketOffer[]",
          "name": "",
          "type": "tuple[]"
        }
      ],
      "stateMutability": "view",
      "type": "function"
    },
    {
      "inputs": [],
      "name": "fetchMyOffers",
      "outputs": [
        {
          "components": [
            {
              "components": [
                {
                  "internalType": "uint256",
                  "name": "tokenId",
                  "type": "uint256"
                },
                {
                  "internalType": "address payable",
                  "name": "creator",
                  "type": "address"
                },
                {
                  "internalType": "uint256",
                  "name": "totalAmount",
                  "type": "uint256"
                },
                {
                  "internalType": "bool",
                  "name": "isPrivate",
                  "type": "bool"
                },
                {
                  "internalType": "bool",
                  "name": "isFungible",
                  "type": "bool"
                }
              ],
              "internalType": "struct NFTMarketplace.MarketItem",
              "name": "item",
              "type": "tuple"
            },
            {
              "internalType": "uint256",
              "name": "offerId",
              "type": "uint256"
            },
            {
              "internalType": "address payable",
              "name": "seller",
              "type": "address"
            },
            {
              "internalType": "uint256",
              "name": "price",
              "type": "uint256"
            },
            {
              "internalType": "uint256",
              "name": "amount",
              "type": "uint256"
            },
            {
              "internalType": "bool",
              "name": "isActive",
              "type": "bool"
            }
          ],
          "internalType": "struct NFTMarketplace.MarketOffer[]",
          "name": "",
          "type": "tuple[]"
        }
      ],
      "stateMutability": "view",
      "type": "function"
    },
    {
      "inputs": [],
      "name": "fetchOwnedItems",
      "outputs": [
        {
          "components": [
            {
              "internalType": "uint256",
              "name": "tokenId",
              "type": "uint256"
            },
            {
              "internalType": "address payable",
              "name": "creator",
              "type": "address"
            },
            {
              "internalType": "uint256",
              "name": "totalAmount",
              "type": "uint256"
            },
            {
              "internalType": "bool",
              "name": "isPrivate",
              "type": "bool"
            },
            {
              "internalType": "bool",
              "name": "isFungible",
              "type": "bool"
            }
          ],
          "internalType": "struct NFTMarketplace.MarketItem[]",
          "name": "",
          "type": "tuple[]"
        }
      ],
      "stateMutability": "view",
      "type": "function"
    },
    {
      "inputs": [],
      "name": "getCreatorFee",
      "outputs": [
        {
          "internalType": "uint256",
          "name": "",
          "type": "uint256"
        }
      ],
      "stateMutability": "view",
      "type": "function"
    },
    {
      "inputs": [],
      "name": "getFungMintingFee",
      "outputs": [
        {
          "internalType": "uint256",
          "name": "",
          "type": "uint256"
        }
      ],
      "stateMutability": "view",
      "type": "function"
    },
    {
      "inputs": [],
      "name": "getMintingFee",
      "outputs": [
        {
          "internalType": "uint256",
          "name": "",
          "type": "uint256"
        }
      ],
      "stateMutability": "view",
      "type": "function"
    },
    {
      "inputs": [
        {
          "internalType": "address",
          "name": "account",
          "type": "address"
        },
        {
          "internalType": "address",
          "name": "operator",
          "type": "address"
        }
      ],
      "name": "isApprovedForAll",
      "outputs": [
        {
          "internalType": "bool",
          "name": "",
          "type": "bool"
        }
      ],
      "stateMutability": "view",
      "type": "function"
    },
    {
      "inputs": [
        {
          "internalType": "address",
          "name": "",
          "type": "address"
        },
        {
          "internalType": "address",
          "name": "",
          "type": "address"
        },
        {
          "internalType": "uint256[]",
          "name": "",
          "type": "uint256[]"
        },
        {
          "internalType": "uint256[]",
          "name": "",
          "type": "uint256[]"
        },
        {
          "internalType": "bytes",
          "name": "",
          "type": "bytes"
        }
      ],
      "name": "onERC1155BatchReceived",
      "outputs": [
        {
          "internalType": "bytes4",
          "name": "",
          "type": "bytes4"
        }
      ],
      "stateMutability": "nonpayable",
      "type": "function"
    },
    {
      "inputs": [
        {
          "internalType": "address",
          "name": "",
          "type": "address"
        },
        {
          "internalType": "address",
          "name": "",
          "type": "address"
        },
        {
          "internalType": "uint256",
          "name": "",
          "type": "uint256"
        },
        {
          "internalType": "uint256",
          "name": "",
          "type": "uint256"
        },
        {
          "internalType": "bytes",
          "name": "",
          "type": "bytes"
        }
      ],
      "name": "onERC1155Received",
      "outputs": [
        {
          "internalType": "bytes4",
          "name": "",
          "type": "bytes4"
        }
      ],
      "stateMutability": "nonpayable",
      "type": "function"
    },
    {
      "inputs": [],
      "name": "owner",
      "outputs": [
        {
          "internalType": "address",
          "name": "",
          "type": "address"
        }
      ],
      "stateMutability": "view",
      "type": "function"
    },
    {
      "inputs": [],
      "name": "renounceOwnership",
      "outputs": [],
      "stateMutability": "nonpayable",
      "type": "function"
    },
    {
      "inputs": [
        {
          "internalType": "address",
          "name": "from",
          "type": "address"
        },
        {
          "internalType": "address",
          "name": "to",
          "type": "address"
        },
        {
          "internalType": "uint256[]",
          "name": "ids",
          "type": "uint256[]"
        },
        {
          "internalType": "uint256[]",
          "name": "amounts",
          "type": "uint256[]"
        },
        {
          "internalType": "bytes",
          "name": "data",
          "type": "bytes"
        }
      ],
      "name": "safeBatchTransferFrom",
      "outputs": [],
      "stateMutability": "nonpayable",
      "type": "function"
    },
    {
      "inputs": [
        {
          "internalType": "address",
          "name": "from",
          "type": "address"
        },
        {
          "internalType": "address",
          "name": "to",
          "type": "address"
        },
        {
          "internalType": "uint256",
          "name": "id",
          "type": "uint256"
        },
        {
          "internalType": "uint256",
          "name": "amount",
          "type": "uint256"
        },
        {
          "internalType": "bytes",
          "name": "data",
          "type": "bytes"
        }
      ],
      "name": "safeTransferFrom",
      "outputs": [],
      "stateMutability": "nonpayable",
      "type": "function"
    },
    {
      "inputs": [
        {
          "internalType": "address",
          "name": "operator",
          "type": "address"
        },
        {
          "internalType": "bool",
          "name": "approved",
          "type": "bool"
        }
      ],
      "name": "setApprovalForAll",
      "outputs": [],
      "stateMutability": "nonpayable",
      "type": "function"
    },
    {
      "inputs": [
        {
          "internalType": "bytes4",
          "name": "interfaceId",
          "type": "bytes4"
        }
      ],
      "name": "supportsInterface",
      "outputs": [
        {
          "internalType": "bool",
          "name": "",
          "type": "bool"
        }
      ],
      "stateMutability": "view",
      "type": "function"
    },
    {
      "inputs": [
        {
          "internalType": "address",
          "name": "newOwner",
          "type": "address"
        }
      ],
      "name": "transferOwnership",
      "outputs": [],
      "stateMutability": "nonpayable",
      "type": "function"
    },
    {
      "inputs": [
        {
          "internalType": "uint256",
          "name": "_creatorFee",
          "type": "uint256"
        }
      ],
      "name": "updateCreatorFee",
      "outputs": [],
      "stateMutability": "payable",
      "type": "function"
    },
    {
      "inputs": [
        {
          "internalType": "uint256",
          "name": "_fungMintingFee",
          "type": "uint256"
        }
      ],
      "name": "updateFungMintingFee",
      "outputs": [],
      "stateMutability": "payable",
      "type": "function"
    },
    {
      "inputs": [
        {
          "internalType": "uint256",
          "name": "_mintingFee",
          "type": "uint256"
        }
      ],
      "name": "updateMintingFee",
      "outputs": [],
      "stateMutability": "payable",
      "type": "function"
    },
    {
      "inputs": [
        {
          "internalType": "uint256",
          "name": "tokenId",
          "type": "uint256"
        }
      ],
      "name": "uri",
      "outputs": [
        {
          "internalType": "string",
          "name": "",
          "type": "string"
        }
      ],
      "stateMutability": "view",
      "type": "function"
    }
  ],
  "bytecode": "0x60a06040819052600060808190526200001b91600491620000db565b50606460095566038d7ea4c68000600a556509184e72a000600b553480156200004357600080fd5b506040805160208101909152600081526200005e8162000070565b506200006a3362000089565b620001be565b805162000085906002906020840190620000db565b5050565b600380546001600160a01b038381166001600160a01b0319831681179093556040519116919082907f8be0079c531659141344cd1fd0a4f28419497f9722a3daafe3b4186f6b6457e090600090a35050565b828054620000e99062000181565b90600052602060002090601f0160209004810192826200010d576000855562000158565b82601f106200012857805160ff191683800117855562000158565b8280016001018555821562000158579182015b82811115620001585782518255916020019190600101906200013b565b50620001669291506200016a565b5090565b5b808211156200016657600081556001016200016b565b600181811c908216806200019657607f821691505b60208210811415620001b857634e487b7160e01b600052602260045260246000fd5b50919050565b6139b080620001ce6000396000f3fe60806040526004361061019b5760003560e01c8063775cdaad116100ec578063c0275a251161008a578063f23a6e6111610064578063f23a6e61146104a1578063f242432a146104cd578063f2fde38b146104ed578063f54303401461050d57600080fd5b8063c0275a2514610425578063e985e9c514610438578063f2259a801461048157600080fd5b8063a1c11ca8116100c6578063a1c11ca814610398578063a22cb465146103ab578063b59d88a9146103cb578063bc197c81146103e057600080fd5b8063775cdaad1461032e57806385313915146103505780638da5cb5b1461037057600080fd5b80633884d635116101595780634e1273f4116101335780634e1273f4146102c457806359322b37146102f15780635a5b0f5614610304578063715018a61461031957600080fd5b80633884d63514610289578063426179cb146102915780634a4bbdf9146102b157600080fd5b8062fdd58e146101a057806301ffc9a7146101d357806304a59f0c146102035780630e89341c146102255780631c4c9dad146102525780632eb2c2d614610267575b600080fd5b3480156101ac57600080fd5b506101c06101bb366004612d07565b610520565b6040519081526020015b60405180910390f35b3480156101df57600080fd5b506101f36101ee366004612dfa565b6105b7565b60405190151581526020016101ca565b34801561020f57600080fd5b506102186105c8565b6040516101ca9190613161565b34801561023157600080fd5b50610245610240366004612eaa565b6107f3565b6040516101ca9190613229565b34801561025e57600080fd5b50600b546101c0565b34801561027357600080fd5b50610287610282366004612bd7565b6107fe565b005b610287610895565b34801561029d57600080fd5b506102876102ac366004612eaa565b610fac565b6102876102bf366004612eaa565b6110bd565b3480156102d057600080fd5b506102e46102df366004612d30565b6110ec565b6040516101ca91906131f1565b6102876102ff366004612eaa565b61124d565b34801561031057600080fd5b506009546101c0565b34801561032557600080fd5b5061028761127c565b34801561033a57600080fd5b506103436112b2565b6040516101ca9190613113565b34801561035c57600080fd5b5061028761036b366004612ee3565b61144d565b34801561037c57600080fd5b506003546040516001600160a01b0390911681526020016101ca565b6102876103a6366004612ec2565b6116f7565b3480156103b757600080fd5b506102876103c6366004612cde565b61190c565b3480156103d757600080fd5b50600a546101c0565b3480156103ec57600080fd5b5061040c6103fb366004612bd7565b63bc197c8160e01b95945050505050565b6040516001600160e01b031990911681526020016101ca565b610287610433366004612eaa565b61191b565b34801561044457600080fd5b506101f3610453366004612ba5565b6001600160a01b03918216600090815260016020908152604080832093909416825291909152205460ff1690565b34801561048d57600080fd5b5061021861049c366004612eaa565b61194a565b3480156104ad57600080fd5b5061040c6104bc366004612c7c565b63f23a6e6160e01b95945050505050565b3480156104d957600080fd5b506102876104e8366004612c7c565b611bef565b3480156104f957600080fd5b50610287610508366004612b8b565b611c76565b6101c061051b366004612e32565b611d11565b60006001600160a01b0383166105915760405162461bcd60e51b815260206004820152602b60248201527f455243313135353a2062616c616e636520717565727920666f7220746865207a60448201526a65726f206164647265737360a81b60648201526084015b60405180910390fd5b506000908152602081815260408083206001600160a01b03949094168352929052205490565b60006105c282611ee8565b92915050565b606060006105d560075490565b905060008060015b838111610643576000818152600d602052604090206008015460ff16801561061e57506000818152600d60205260409020600501546001600160a01b031633145b156106315761062e60018361336b565b91505b8061063b81613470565b9150506105dd565b506000816001600160401b0381111561066c57634e487b7160e01b600052604160045260246000fd5b6040519080825280602002602001820160405280156106a557816020015b61069261297b565b81526020019060019003908161068a5790505b50905060015b8481116107ea576000818152600d602052604090206008015460ff1680156106ec57506000818152600d60205260409020600501546001600160a01b031633145b156107d8576000818152600d6020908152604091829020825161016081018452815460c0820190815260018301546001600160a01b0390811660e0840152600284015461010080850191909152600385015460ff80821615156101208701529190048116151561014085015291835260048401549483019490945260058301549093169381019390935260068101546060840152600781015460808401526008810154909116151560a083015283519091908490879081106107be57634e487b7160e01b600052603260045260246000fd5b60209081029190910101526107d460018661336b565b9450505b806107e281613470565b9150506106ab565b50949350505050565b60606105c282611f0d565b6001600160a01b03851633148061081a575061081a8533610453565b6108815760405162461bcd60e51b815260206004820152603260248201527f455243313135353a207472616e736665722063616c6c6572206973206e6f74206044820152711bdddb995c881b9bdc88185c1c1c9bdd995960721b6064820152608401610588565b61088e8585858585611fed565b5050505050565b6003546001600160a01b031633146108bf5760405162461bcd60e51b815260040161058890613313565b6000604051806101c001604052806040518060800160405280604a8152602001613809604a913981526020016040518060800160405280604a815260200161389d604a913981526020016040518060800160405280604a8152602001613603604a913981526020016040518060800160405280604a81526020016136e1604a913981526020016040518060800160405280604a8152602001613931604a913981526020016040518060800160405280604a8152602001613697604a913981526020016040518060800160405280604a8152602001613853604a913981526020016040518060800160405280604a81526020016135b9604a913981526020016040518060800160405280604a815260200161372b604a913981526020016040518060800160405280604a81526020016137bf604a913981526020016040518060800160405280604a815260200161356f604a913981526020016040518060800160405280604a8152602001613775604a913981526020016040518060800160405280604a815260200161364d604a913981526020016040518060800160405280604a81526020016138e7604a913981525090506000604051806101c00160405280602362ffffff168152602001601962ffffff168152602001602862ffffff168152602001603262ffffff168152602001602362ffffff168152602001601462ffffff168152602001606462ffffff168152602001603262ffffff168152602001603c62ffffff168152602001603762ffffff168152602001604662ffffff168152602001603262ffffff168152602001620f424062ffffff168152602001620186a062ffffff1681525090506000604051806101c00160405280600015151515815260200160001515151581526020016000151515158152602001600015151515815260200160001515151581526020016000151515158152602001600015151515815260200160001515151581526020016001151515158152602001600115151515815260200160011515151581526020016001151515158152602001600015151515815260200160001515151581525090506000604051806101c00160405280600015151515815260200160001515151581526020016000151515158152602001600015151515815260200160001515151581526020016000151515158152602001600015151515815260200160001515151581526020016000151515158152602001600015151515815260200160001515151581526020016000151515158152602001600115151515815260200160011515151581525090506000604051806101c00160405280600f62ffffff168152602001600562ffffff168152602001601962ffffff168152602001602862ffffff168152602001601962ffffff168152602001600f62ffffff168152602001605062ffffff168152602001601962ffffff168152602001601e62ffffff168152602001602d62ffffff168152602001603c62ffffff168152602001602d62ffffff168152602001620c350062ffffff168152602001620124f862ffffff1681525090506000604051806101c00160405280662386f26fc100006001600160401b0316815260200166470de4df8200006001600160401b0316815260200166354a6ba7a180006001600160401b031681526020016618de76816d80006001600160401b031681526020016658d15e176280006001600160401b0316815260200166038d7ea4c680006001600160401b0316815260200166071afd498d00006001600160401b031681526020016613e52b9abe00006001600160401b0316815260200167016345785d8a00006001600160401b0316815260200166c3663566a580006001600160401b03168152602001670214e8348c4f00006001600160401b0316815260200167016345785d8a00006001600160401b031681526020016509184e72a0006001600160401b03168152602001650ae9f7bcc0006001600160401b0316815250905060005b600e811015610fa357610f258782600e8110610ea757634e487b7160e01b600052603260045260246000fd5b60200201518783600e8110610ecc57634e487b7160e01b600052603260045260246000fd5b602002015162ffffff168784600e8110610ef657634e487b7160e01b600052603260045260246000fd5b60200201518785600e8110610f1b57634e487b7160e01b600052603260045260246000fd5b6020020151611d11565b50610f91610f3482600161336b565b8483600e8110610f5457634e487b7160e01b600052603260045260246000fd5b602002015162ffffff168484600e8110610f7e57634e487b7160e01b600052603260045260246000fd5b60200201516001600160401b031661144d565b80610f9b81613470565b915050610e7b565b50505050505050565b6000818152600d602052604090208054600582015460079092015490916001600160a01b03169060603383146110305760405162461bcd60e51b815260206004820152602360248201527f4f6e6c79207468652073656c6c65722063616e2063616e63656c207468652073604482015262616c6560e81b6064820152608401610588565b61103d30338685856121e6565b6000858152600d6020526040812060078101919091556005810180546001600160a01b03191690556008908101805460ff1916905561107b90612310565b6040805186815233602082015285917fe82db9af8cd71c18e953d64568deed25b2ba94b709c5c23725499917827df60891015b60405180910390a25050505050565b6003546001600160a01b031633146110e75760405162461bcd60e51b815260040161058890613313565b600955565b606081518351146111515760405162461bcd60e51b815260206004820152602960248201527f455243313135353a206163636f756e747320616e6420696473206c656e677468604482015268040dad2e6dac2e8c6d60bb1b6064820152608401610588565b600083516001600160401b0381111561117a57634e487b7160e01b600052604160045260246000fd5b6040519080825280602002602001820160405280156111a3578160200160208202803683370190505b50905060005b84518110156112455761120a8582815181106111d557634e487b7160e01b600052603260045260246000fd5b60200260200101518583815181106111fd57634e487b7160e01b600052603260045260246000fd5b6020026020010151610520565b82828151811061122a57634e487b7160e01b600052603260045260246000fd5b602090810291909101015261123e81613470565b90506111a9565b509392505050565b6003546001600160a01b031633146112775760405162461bcd60e51b815260040161058890613313565b600b55565b6003546001600160a01b031633146112a65760405162461bcd60e51b815260040161058890613313565b6112b06000612367565b565b606060006112bf60065490565b905060008060015b8381116113005760006112da3383610520565b11156112ee576112eb60018461336b565b92505b806112f881613470565b9150506112c7565b506000826001600160401b0381111561132957634e487b7160e01b600052604160045260246000fd5b60405190808252806020026020018201604052801561138257816020015b6040805160a0810182526000808252602080830182905292820181905260608201819052608082015282526000199092019101816113475790505b50905060015b8481116107ea57600061139b3383610520565b111561143b576000818152600c6020908152604091829020825160a0810184528154815260018201546001600160a01b031692810192909252600281015492820192909252600382015460ff808216151560608401526101009091041615156080820152835184908690811061142157634e487b7160e01b600052603260045260246000fd5b602090810291909101015261143760018561336b565b9350505b8061144581613470565b915050611388565b6000811161149d5760405162461bcd60e51b815260206004820152601c60248201527f5072696365206d757374206265206174206c65617374203120776569000000006044820152606401610588565b60606114ac33308686856121e6565b6114ba600780546001019055565b60006114c560075490565b90506040518060c00160405280600c60008881526020019081526020016000206040518060a0016040529081600082015481526020016001820160009054906101000a90046001600160a01b03166001600160a01b03166001600160a01b03168152602001600282015481526020016003820160009054906101000a900460ff161515151581526020016003820160019054906101000a900460ff1615151515815250508152602001828152602001336001600160a01b0316815260200184815260200185815260200160011515815250600d60008381526020019081526020016000206000820151816000016000820151816000015560208201518160010160006101000a8154816001600160a01b0302191690836001600160a01b031602179055506040820151816002015560608201518160030160006101000a81548160ff02191690831515021790555060808201518160030160016101000a81548160ff02191690831515021790555050506020820151816004015560408201518160050160006101000a8154816001600160a01b0302191690836001600160a01b03160217905550606082015181600601556080820151816007015560a08201518160080160006101000a81548160ff0219169083151502179055509050506116b1600880546001019055565b604080518281523360208201529081018490526060810185905285907f5018fe313dfa61e452b0230bbc0edeb12208931a9fea00bc5d3ad3e6599f7f34906080016110ae565b6000828152600d602052604081208054600182015460069092015490926001600160a01b03909216919061172c9085906133a3565b905060006009548261173e9190613383565b6000878152600d6020526040812060058101546007909101549293506001600160a01b03169161176f9088906133c2565b9050606061177d848661336b565b3410156117df5760405162461bcd60e51b815260206004820152602a60248201527f496e73756666696369656e742076616c75652073656e7420746f20637265617460448201526965207468652073616c6560b01b6064820152608401610588565b6117ec3033898b856121e6565b6040516001600160a01b0387169085156108fc029086906000818181858888f19350505050158015611822573d6000803e3d6000fd5b506040516001600160a01b0384169086156108fc029087906000818181858888f19350505050158015611859573d6000803e3d6000fd5b506000898152600d60205260409020600701829055816118a9576000898152600d602052604090206005810180546001600160a01b03191690556008908101805460ff191690556118a990612310565b604080518a81523360208201526001600160a01b0385168183015260608101879052608081018a9052905188917f46e3967d9aef98d74780ace0931f6e82e00d91621c0b6c95867374a16047f909919081900360a00190a2505050505050505050565b6119173383836123b9565b5050565b6003546001600160a01b031633146119455760405162461bcd60e51b815260040161058890613313565b600a55565b6060600061195661297b565b600061196160085490565b6001600160401b0381111561198657634e487b7160e01b600052604160045260246000fd5b6040519080825280602002602001820160405280156119bf57816020015b6119ac61297b565b8152602001906001900390816119a45790505b50905060015b60075481116107ea576000818152600d6020908152604091829020825161016081018452815460c0820190815260018301546001600160a01b0390811660e0840152600284015461010080850191909152600385015460ff80821615156101208701529190048116151561014085015291835260048401549483019490945260058301549093169381019390935260068101546060840152600781015460808401526008015416151560a0820152925085158015611a8457508260a001515b8015611a935750825160600151155b8015611aa25750825160800151155b15611ae55782828581518110611ac857634e487b7160e01b600052603260045260246000fd5b6020908102919091010152611ade60018561336b565b9350611bdd565b856001148015611af657508260a001515b8015611b0457508251606001515b8015611b135750825160800151155b15611b395782828581518110611ac857634e487b7160e01b600052603260045260246000fd5b856002148015611b4a57508260a001515b8015611b595750825160600151155b8015611b6757508251608001515b15611b8d5782828581518110611ac857634e487b7160e01b600052603260045260246000fd5b856003148015611b9e57508260a001515b15611bdd5782828581518110611bc457634e487b7160e01b600052603260045260246000fd5b6020908102919091010152611bda60018561336b565b93505b80611be781613470565b9150506119c5565b6001600160a01b038516331480611c0b5750611c0b8533610453565b611c695760405162461bcd60e51b815260206004820152602960248201527f455243313135353a2063616c6c6572206973206e6f74206f776e6572206e6f7260448201526808185c1c1c9bdd995960ba1b6064820152608401610588565b61088e85858585856121e6565b6003546001600160a01b03163314611ca05760405162461bcd60e51b815260040161058890613313565b6001600160a01b038116611d055760405162461bcd60e51b815260206004820152602660248201527f4f776e61626c653a206e6577206f776e657220697320746865207a65726f206160448201526564647265737360d01b6064820152608401610588565b611d0e81612367565b50565b6000808215611d2e57600b54611d2790866133a3565b9050611d3e565b600a54611d3b90866133a3565b90505b80341015611d8e5760405162461bcd60e51b815260206004820152601f60248201527f496e73756666696369656e74206d696e74696e672076616c75652073656e74006044820152606401610588565b6003546040516001600160a01b039091169082156108fc029083906000818181858888f19350505050158015611dc8573d6000803e3d6000fd5b50611dd7600680546001019055565b6000611de260065490565b90506060611df23383898461249a565b611dfc82896125a5565b6040805160a0810182528381523360208083018281528385018c81528b151560608087018281528d15156080808a0182815260008e8152600c8a528c90209a518b55965160018b0180546001600160a01b0319166001600160a01b03909216919091179055945160028a0155905160039098018054955161ffff1990961698151561ff00191698909817610100951515959095029490941790965586519485529284018d9052948301919091529181019190915283917fc6a6c4d3c5f9c0c824685d71c7bb63f275bec2860727e8234225eb2147c02cfd910160405180910390a2509695505050505050565b60006001600160e01b03198216630271189760e51b14806105c257506105c282612609565b600081815260056020526040812080546060929190611f2b90613409565b80601f0160208091040260200160405190810160405280929190818152602001828054611f5790613409565b8015611fa45780601f10611f7957610100808354040283529160200191611fa4565b820191906000526020600020905b815481529060010190602001808311611f8757829003601f168201915b505050505090506000815111611fc257611fbd83612659565b611fe6565b600481604051602001611fd6929190612fca565b6040516020818303038152906040525b9392505050565b815183511461204f5760405162461bcd60e51b815260206004820152602860248201527f455243313135353a2069647320616e6420616d6f756e7473206c656e677468206044820152670dad2e6dac2e8c6d60c31b6064820152608401610588565b6001600160a01b0384166120755760405162461bcd60e51b815260040161058890613284565b3360005b84518110156121785760008582815181106120a457634e487b7160e01b600052603260045260246000fd5b6020026020010151905060008583815181106120d057634e487b7160e01b600052603260045260246000fd5b602090810291909101810151600084815280835260408082206001600160a01b038e1683529093529190912054909150818110156121205760405162461bcd60e51b8152600401610588906132c9565b6000838152602081815260408083206001600160a01b038e8116855292528083208585039055908b1682528120805484929061215d90849061336b565b925050819055505050508061217190613470565b9050612079565b50846001600160a01b0316866001600160a01b0316826001600160a01b03167f4a39dc06d4c0dbc64b70af90fd698a233a518aa5d07e595d983b8c0526c8f7fb87876040516121c8929190613204565b60405180910390a46121de8187878787876126ed565b505050505050565b6001600160a01b03841661220c5760405162461bcd60e51b815260040161058890613284565b33600061221885612858565b9050600061222585612858565b90506000868152602081815260408083206001600160a01b038c168452909152902054858110156122685760405162461bcd60e51b8152600401610588906132c9565b6000878152602081815260408083206001600160a01b038d8116855292528083208985039055908a168252812080548892906122a590849061336b565b909155505060408051888152602081018890526001600160a01b03808b16928c821692918816917fc3d58168c5ae7397731d063d5bbf3d657854427343f4c083240f7aacaa2d0f62910160405180910390a4612305848a8a8a8a8a6128b1565b505050505050505050565b80548061235f5760405162461bcd60e51b815260206004820152601b60248201527f436f756e7465723a2064656372656d656e74206f766572666c6f7700000000006044820152606401610588565b600019019055565b600380546001600160a01b038381166001600160a01b0319831681179093556040519116919082907f8be0079c531659141344cd1fd0a4f28419497f9722a3daafe3b4186f6b6457e090600090a35050565b816001600160a01b0316836001600160a01b0316141561242d5760405162461bcd60e51b815260206004820152602960248201527f455243313135353a2073657474696e6720617070726f76616c20737461747573604482015268103337b91039b2b63360b91b6064820152608401610588565b6001600160a01b03838116600081815260016020908152604080832094871680845294825291829020805460ff191686151590811790915591519182527f17307eab39ab6107e8899845ad3d59bd9653f200f220920489ca2b5937696c31910160405180910390a3505050565b6001600160a01b0384166124fa5760405162461bcd60e51b815260206004820152602160248201527f455243313135353a206d696e7420746f20746865207a65726f206164647265736044820152607360f81b6064820152608401610588565b33600061250685612858565b9050600061251385612858565b90506000868152602081815260408083206001600160a01b038b1684529091528120805487929061254590849061336b565b909155505060408051878152602081018790526001600160a01b03808a1692600092918716917fc3d58168c5ae7397731d063d5bbf3d657854427343f4c083240f7aacaa2d0f62910160405180910390a4610fa3836000898989896128b1565b600082815260056020908152604090912082516125c4928401906129d6565b50817f6bb7ff708619ba0610cba295a58592e0451dee2622938c8755667688daf3529b6125f0846107f3565b6040516125fd9190613229565b60405180910390a25050565b60006001600160e01b03198216636cdb3d1360e11b148061263a57506001600160e01b031982166303a24d0760e21b145b806105c257506301ffc9a760e01b6001600160e01b03198316146105c2565b60606002805461266890613409565b80601f016020809104026020016040519081016040528092919081815260200182805461269490613409565b80156126e15780601f106126b6576101008083540402835291602001916126e1565b820191906000526020600020905b8154815290600101906020018083116126c457829003601f168201915b50505050509050919050565b6001600160a01b0384163b156121de5760405163bc197c8160e01b81526001600160a01b0385169063bc197c81906127319089908990889088908890600401613070565b602060405180830381600087803b15801561274b57600080fd5b505af192505050801561277b575060408051601f3d908101601f1916820190925261277891810190612e16565b60015b612828576127876134b7565b806308c379a014156127c1575061279c6134cf565b806127a757506127c3565b8060405162461bcd60e51b81526004016105889190613229565b505b60405162461bcd60e51b815260206004820152603460248201527f455243313135353a207472616e7366657220746f206e6f6e20455243313135356044820152732932b1b2b4bb32b91034b6b83632b6b2b73a32b960611b6064820152608401610588565b6001600160e01b0319811663bc197c8160e01b14610fa35760405162461bcd60e51b81526004016105889061323c565b604080516001808252818301909252606091600091906020808301908036833701905050905082816000815181106128a057634e487b7160e01b600052603260045260246000fd5b602090810291909101015292915050565b6001600160a01b0384163b156121de5760405163f23a6e6160e01b81526001600160a01b0385169063f23a6e61906128f590899089908890889088906004016130ce565b602060405180830381600087803b15801561290f57600080fd5b505af192505050801561293f575060408051601f3d908101601f1916820190925261293c91810190612e16565b60015b61294b576127876134b7565b6001600160e01b0319811663f23a6e6160e01b14610fa35760405162461bcd60e51b81526004016105889061323c565b6040805161016081018252600060c0820181815260e08301829052610100830182905261012083018290526101408301829052825260208201819052918101829052606081018290526080810182905260a081019190915290565b8280546129e290613409565b90600052602060002090601f016020900481019282612a045760008555612a4a565b82601f10612a1d57805160ff1916838001178555612a4a565b82800160010185558215612a4a579182015b82811115612a4a578251825591602001919060010190612a2f565b50612a56929150612a5a565b5090565b5b80821115612a565760008155600101612a5b565b60006001600160401b03831115612a8857612a886134a1565b604051612a9f601f8501601f191660200182613444565b809150838152848484011115612ab457600080fd5b83836020830137600060208583010152509392505050565b80356001600160a01b0381168114612ae357600080fd5b919050565b600082601f830112612af8578081fd5b81356020612b0582613348565b604051612b128282613444565b8381528281019150858301600585901b87018401881015612b31578586fd5b855b85811015612b4f57813584529284019290840190600101612b33565b5090979650505050505050565b80358015158114612ae357600080fd5b600082601f830112612b7c578081fd5b611fe683833560208501612a6f565b600060208284031215612b9c578081fd5b611fe682612acc565b60008060408385031215612bb7578081fd5b612bc083612acc565b9150612bce60208401612acc565b90509250929050565b600080600080600060a08688031215612bee578081fd5b612bf786612acc565b9450612c0560208701612acc565b935060408601356001600160401b0380821115612c20578283fd5b612c2c89838a01612ae8565b94506060880135915080821115612c41578283fd5b612c4d89838a01612ae8565b93506080880135915080821115612c62578283fd5b50612c6f88828901612b6c565b9150509295509295909350565b600080600080600060a08688031215612c93578081fd5b612c9c86612acc565b9450612caa60208701612acc565b9350604086013592506060860135915060808601356001600160401b03811115612cd2578182fd5b612c6f88828901612b6c565b60008060408385031215612cf0578182fd5b612cf983612acc565b9150612bce60208401612b5c565b60008060408385031215612d19578182fd5b612d2283612acc565b946020939093013593505050565b60008060408385031215612d42578182fd5b82356001600160401b0380821115612d58578384fd5b818501915085601f830112612d6b578384fd5b81356020612d7882613348565b604051612d858282613444565b8381528281019150858301600585901b870184018b1015612da4578889fd5b8896505b84871015612dcd57612db981612acc565b835260019690960195918301918301612da8565b5096505086013592505080821115612de3578283fd5b50612df085828601612ae8565b9150509250929050565b600060208284031215612e0b578081fd5b8135611fe681613558565b600060208284031215612e27578081fd5b8151611fe681613558565b60008060008060808587031215612e47578182fd5b84356001600160401b03811115612e5c578283fd5b8501601f81018713612e6c578283fd5b612e7b87823560208401612a6f565b94505060208501359250612e9160408601612b5c565b9150612e9f60608601612b5c565b905092959194509250565b600060208284031215612ebb578081fd5b5035919050565b60008060408385031215612ed4578182fd5b50508035926020909101359150565b600080600060608486031215612ef7578081fd5b505081359360208301359350604090920135919050565b6000815180845260208085019450808401835b83811015612f3d57815187529582019590820190600101612f21565b509495945050505050565b60008151808452612f608160208601602086016133d9565b601f01601f19169290920160200192915050565b60008151612f868185602086016133d9565b9290920192915050565b805182526020808201516001600160a01b031690830152604080820151908301526060808201511515908301526080908101511515910152565b600080845482600182811c915080831680612fe657607f831692505b602080841082141561300657634e487b7160e01b87526022600452602487fd5b81801561301a576001811461302b57613057565b60ff19861689528489019650613057565b60008b815260209020885b8681101561304f5781548b820152908501908301613036565b505084890196505b5050505050506130678185612f74565b95945050505050565b6001600160a01b0386811682528516602082015260a06040820181905260009061309c90830186612f0e565b82810360608401526130ae8186612f0e565b905082810360808401526130c28185612f48565b98975050505050505050565b6001600160a01b03868116825285166020820152604081018490526060810183905260a06080820181905260009061310890830184612f48565b979650505050505050565b6020808252825182820181905260009190848201906040850190845b8181101561315557613142838551612f90565b9284019260a0929092019160010161312f565b50909695505050505050565b602080825282518282018190526000919060409081850190868401855b828110156131e4578151613193858251612f90565b8087015160a086810191909152868201516001600160a01b031660c0870152606082015160e0870152608082015161010087015201511515610120850152610140909301929085019060010161317e565b5091979650505050505050565b602081526000611fe66020830184612f0e565b6040815260006132176040830185612f0e565b82810360208401526130678185612f0e565b602081526000611fe66020830184612f48565b60208082526028908201527f455243313135353a204552433131353552656365697665722072656a656374656040820152676420746f6b656e7360c01b606082015260800190565b60208082526025908201527f455243313135353a207472616e7366657220746f20746865207a65726f206164604082015264647265737360d81b606082015260800190565b6020808252602a908201527f455243313135353a20696e73756666696369656e742062616c616e636520666f60408201526939103a3930b739b332b960b11b606082015260800190565b6020808252818101527f4f776e61626c653a2063616c6c6572206973206e6f7420746865206f776e6572604082015260600190565b60006001600160401b03821115613361576133616134a1565b5060051b60200190565b6000821982111561337e5761337e61348b565b500190565b60008261339e57634e487b7160e01b81526012600452602481fd5b500490565b60008160001904831182151516156133bd576133bd61348b565b500290565b6000828210156133d4576133d461348b565b500390565b60005b838110156133f45781810151838201526020016133dc565b83811115613403576000848401525b50505050565b600181811c9082168061341d57607f821691505b6020821081141561343e57634e487b7160e01b600052602260045260246000fd5b50919050565b601f8201601f191681016001600160401b0381118282101715613469576134696134a1565b6040525050565b60006000198214156134845761348461348b565b5060010190565b634e487b7160e01b600052601160045260246000fd5b634e487b7160e01b600052604160045260246000fd5b600060033d11156134cc57600481823e5160e01c5b90565b600060443d10156134dd5790565b6040516003193d81016004833e81513d6001600160401b03816024840111818411171561350c57505050505090565b82850191508151818111156135245750505050505090565b843d870101602082850101111561353e5750505050505090565b61354d60208286010187613444565b509095945050505050565b6001600160e01b031981168114611d0e57600080fdfe68747470733a2f2f697066732e696e667572612e696f2f697066732f516d5468585454784d6f6a384e64614e4e634678537861636e675258483458746779526d514d4a335a334468357168747470733a2f2f697066732e696e667572612e696f2f697066732f516d5279746a476236633870453532334c35327638483145446941446965397879796936656f323836394c77715068747470733a2f2f697066732e696e667572612e696f2f697066732f516d547072516346424b56444d664b33735444413468784e79436d62537a586466365a67544d797057463735466668747470733a2f2f697066732e696e667572612e696f2f697066732f516d5169393776456d4651554237455a76336a6d39615a48754656776e584769727746634558784c6d784275315568747470733a2f2f697066732e696e667572612e696f2f697066732f516d51706a4a41716247793345374d3379464c394b795a543957456f57664e33544568507279527179697071457268747470733a2f2f697066732e696e667572612e696f2f697066732f516d6167424a6174577559675368383733776b3143347839636937545a53364d73554353365957484a6b4d68396d68747470733a2f2f697066732e696e667572612e696f2f697066732f516d50554b737a51344e55705a626d4378713144586a4352735372416f706a50365970686d66484c3478736e395668747470733a2f2f697066732e696e667572612e696f2f697066732f516d57464a486d5a46356f4e684c5a58474c5a667a686a4e6247696d73353641376d4862576d77364a445537773268747470733a2f2f697066732e696e667572612e696f2f697066732f516d597575534e794875517154714c785855374c77566569707133723644476a59686a35354b51394b6f6a4a6d7268747470733a2f2f697066732e696e667572612e696f2f697066732f516d6468567667736750633346434a454a6454334b6165707a69504b6933646b79656f36357768367a4d574d6e4168747470733a2f2f697066732e696e667572612e696f2f697066732f516d665674417054684151677a7a6262516d437262757845396978334d56534d714b4b79674635784e6d6977613468747470733a2f2f697066732e696e667572612e696f2f697066732f516d55353656504b5872564b4e775a57354a6a4d4e4a5542594b566d3866785a776f6f79545353526e514143537668747470733a2f2f697066732e696e667572612e696f2f697066732f516d5951713369483236525a37674555377a4b7277757541627a776f6d6d366b4c45635378464c38684c6170627568747470733a2f2f697066732e696e667572612e696f2f697066732f516d516b6e654e51597a4d6668656979703155614e3158413563486642684c434474326b46726846544773474864a26469706673582212208fa816a156f8319540588834b3d241c0cdd69a80bf1b7b52baab24f9f19be20764736f6c63430008040033",
  "linkReferences": {},
  "deployedLinkReferences": {}
}