{
  "_format": "hh-sol-artifact-1",
  "contractName": "NFTMarketplace",
  "sourceName": "contracts/NFTMarketplace.sol",
  "abi": [
    {
      "inputs": [],
      "stateMutability": "nonpayable",
      "type": "constructor"
    },
    {
      "anonymous": false,
      "inputs": [
        {
          "indexed": true,
          "internalType": "address",
          "name": "account",
          "type": "address"
        },
        {
          "indexed": true,
          "internalType": "address",
          "name": "operator",
          "type": "address"
        },
        {
          "indexed": false,
          "internalType": "bool",
          "name": "approved",
          "type": "bool"
        }
      ],
      "name": "ApprovalForAll",
      "type": "event"
    },
    {
      "anonymous": false,
      "inputs": [
        {
          "indexed": true,
          "internalType": "uint256",
          "name": "tokenId",
          "type": "uint256"
        },
        {
          "indexed": false,
          "internalType": "address",
          "name": "seller",
          "type": "address"
        },
        {
          "indexed": false,
          "internalType": "uint256",
          "name": "price",
          "type": "uint256"
        },
        {
          "indexed": false,
          "internalType": "uint256",
          "name": "amount",
          "type": "uint256"
        }
      ],
      "name": "MarketOfferCreated",
      "type": "event"
    },
    {
      "anonymous": false,
      "inputs": [
        {
          "indexed": true,
          "internalType": "address",
          "name": "previousOwner",
          "type": "address"
        },
        {
          "indexed": true,
          "internalType": "address",
          "name": "newOwner",
          "type": "address"
        }
      ],
      "name": "OwnershipTransferred",
      "type": "event"
    },
    {
      "anonymous": false,
      "inputs": [
        {
          "indexed": true,
          "internalType": "address",
          "name": "operator",
          "type": "address"
        },
        {
          "indexed": true,
          "internalType": "address",
          "name": "from",
          "type": "address"
        },
        {
          "indexed": true,
          "internalType": "address",
          "name": "to",
          "type": "address"
        },
        {
          "indexed": false,
          "internalType": "uint256[]",
          "name": "ids",
          "type": "uint256[]"
        },
        {
          "indexed": false,
          "internalType": "uint256[]",
          "name": "values",
          "type": "uint256[]"
        }
      ],
      "name": "TransferBatch",
      "type": "event"
    },
    {
      "anonymous": false,
      "inputs": [
        {
          "indexed": true,
          "internalType": "address",
          "name": "operator",
          "type": "address"
        },
        {
          "indexed": true,
          "internalType": "address",
          "name": "from",
          "type": "address"
        },
        {
          "indexed": true,
          "internalType": "address",
          "name": "to",
          "type": "address"
        },
        {
          "indexed": false,
          "internalType": "uint256",
          "name": "id",
          "type": "uint256"
        },
        {
          "indexed": false,
          "internalType": "uint256",
          "name": "value",
          "type": "uint256"
        }
      ],
      "name": "TransferSingle",
      "type": "event"
    },
    {
      "anonymous": false,
      "inputs": [
        {
          "indexed": false,
          "internalType": "string",
          "name": "value",
          "type": "string"
        },
        {
          "indexed": true,
          "internalType": "uint256",
          "name": "id",
          "type": "uint256"
        }
      ],
      "name": "URI",
      "type": "event"
    },
    {
      "inputs": [
        {
          "internalType": "address",
          "name": "account",
          "type": "address"
        },
        {
          "internalType": "uint256",
          "name": "id",
          "type": "uint256"
        }
      ],
      "name": "balanceOf",
      "outputs": [
        {
          "internalType": "uint256",
          "name": "",
          "type": "uint256"
        }
      ],
      "stateMutability": "view",
      "type": "function"
    },
    {
      "inputs": [
        {
          "internalType": "address[]",
          "name": "accounts",
          "type": "address[]"
        },
        {
          "internalType": "uint256[]",
          "name": "ids",
          "type": "uint256[]"
        }
      ],
      "name": "balanceOfBatch",
      "outputs": [
        {
          "internalType": "uint256[]",
          "name": "",
          "type": "uint256[]"
        }
      ],
      "stateMutability": "view",
      "type": "function"
    },
    {
      "inputs": [
        {
          "internalType": "uint256",
          "name": "offerId",
          "type": "uint256"
        }
      ],
      "name": "cancelMarketOffer",
      "outputs": [],
      "stateMutability": "payable",
      "type": "function"
    },
    {
      "inputs": [
        {
          "internalType": "uint256",
          "name": "tokenId",
          "type": "uint256"
        },
        {
          "internalType": "uint256",
          "name": "amount",
          "type": "uint256"
        },
        {
          "internalType": "uint256",
          "name": "price",
          "type": "uint256"
        }
      ],
      "name": "createMarketOffer",
      "outputs": [],
      "stateMutability": "payable",
      "type": "function"
    },
    {
      "inputs": [
        {
          "internalType": "uint256",
          "name": "offerId",
          "type": "uint256"
        },
        {
          "internalType": "uint256",
          "name": "amount",
          "type": "uint256"
        }
      ],
      "name": "createMarketSale",
      "outputs": [],
      "stateMutability": "payable",
      "type": "function"
    },
    {
      "inputs": [
        {
          "internalType": "string",
          "name": "tokenURI",
          "type": "string"
        },
        {
          "internalType": "uint256",
          "name": "amount",
          "type": "uint256"
        },
        {
          "internalType": "bool",
          "name": "isPrivate",
          "type": "bool"
        },
        {
          "internalType": "bool",
          "name": "isFungible",
          "type": "bool"
        }
      ],
      "name": "createToken",
      "outputs": [
        {
          "internalType": "uint256",
          "name": "",
          "type": "uint256"
        }
      ],
      "stateMutability": "payable",
      "type": "function"
    },
    {
      "inputs": [
        {
          "internalType": "uint256",
          "name": "tokenType",
          "type": "uint256"
        }
      ],
      "name": "fetchMarketOffers",
      "outputs": [
        {
          "components": [
            {
              "components": [
                {
                  "internalType": "uint256",
                  "name": "tokenId",
                  "type": "uint256"
                },
                {
                  "internalType": "address payable",
                  "name": "creator",
                  "type": "address"
                },
                {
                  "internalType": "uint256",
                  "name": "totalAmount",
                  "type": "uint256"
                },
                {
                  "internalType": "bool",
                  "name": "isPrivate",
                  "type": "bool"
                },
                {
                  "internalType": "bool",
                  "name": "isFungible",
                  "type": "bool"
                }
              ],
              "internalType": "struct NFTMarketplace.MarketItem",
              "name": "item",
              "type": "tuple"
            },
            {
              "internalType": "uint256",
              "name": "offerId",
              "type": "uint256"
            },
            {
              "internalType": "address payable",
              "name": "seller",
              "type": "address"
            },
            {
              "internalType": "uint256",
              "name": "price",
              "type": "uint256"
            },
            {
              "internalType": "uint256",
              "name": "amount",
              "type": "uint256"
            },
            {
              "internalType": "bool",
              "name": "isActive",
              "type": "bool"
            }
          ],
          "internalType": "struct NFTMarketplace.MarketOffer[]",
          "name": "",
          "type": "tuple[]"
        }
      ],
      "stateMutability": "view",
      "type": "function"
    },
    {
      "inputs": [],
      "name": "fetchMyOffers",
      "outputs": [
        {
          "components": [
            {
              "components": [
                {
                  "internalType": "uint256",
                  "name": "tokenId",
                  "type": "uint256"
                },
                {
                  "internalType": "address payable",
                  "name": "creator",
                  "type": "address"
                },
                {
                  "internalType": "uint256",
                  "name": "totalAmount",
                  "type": "uint256"
                },
                {
                  "internalType": "bool",
                  "name": "isPrivate",
                  "type": "bool"
                },
                {
                  "internalType": "bool",
                  "name": "isFungible",
                  "type": "bool"
                }
              ],
              "internalType": "struct NFTMarketplace.MarketItem",
              "name": "item",
              "type": "tuple"
            },
            {
              "internalType": "uint256",
              "name": "offerId",
              "type": "uint256"
            },
            {
              "internalType": "address payable",
              "name": "seller",
              "type": "address"
            },
            {
              "internalType": "uint256",
              "name": "price",
              "type": "uint256"
            },
            {
              "internalType": "uint256",
              "name": "amount",
              "type": "uint256"
            },
            {
              "internalType": "bool",
              "name": "isActive",
              "type": "bool"
            }
          ],
          "internalType": "struct NFTMarketplace.MarketOffer[]",
          "name": "",
          "type": "tuple[]"
        }
      ],
      "stateMutability": "view",
      "type": "function"
    },
    {
      "inputs": [],
      "name": "fetchOwnedItems",
      "outputs": [
        {
          "components": [
            {
              "internalType": "uint256",
              "name": "tokenId",
              "type": "uint256"
            },
            {
              "internalType": "address payable",
              "name": "creator",
              "type": "address"
            },
            {
              "internalType": "uint256",
              "name": "totalAmount",
              "type": "uint256"
            },
            {
              "internalType": "bool",
              "name": "isPrivate",
              "type": "bool"
            },
            {
              "internalType": "bool",
              "name": "isFungible",
              "type": "bool"
            }
          ],
          "internalType": "struct NFTMarketplace.MarketItem[]",
          "name": "",
          "type": "tuple[]"
        }
      ],
      "stateMutability": "view",
      "type": "function"
    },
    {
      "inputs": [],
      "name": "getCreatorFee",
      "outputs": [
        {
          "internalType": "uint256",
          "name": "",
          "type": "uint256"
        }
      ],
      "stateMutability": "view",
      "type": "function"
    },
    {
      "inputs": [],
      "name": "getFungMintingFee",
      "outputs": [
        {
          "internalType": "uint256",
          "name": "",
          "type": "uint256"
        }
      ],
      "stateMutability": "view",
      "type": "function"
    },
    {
      "inputs": [],
      "name": "getMintingFee",
      "outputs": [
        {
          "internalType": "uint256",
          "name": "",
          "type": "uint256"
        }
      ],
      "stateMutability": "view",
      "type": "function"
    },
    {
      "inputs": [
        {
          "internalType": "address",
          "name": "account",
          "type": "address"
        },
        {
          "internalType": "address",
          "name": "operator",
          "type": "address"
        }
      ],
      "name": "isApprovedForAll",
      "outputs": [
        {
          "internalType": "bool",
          "name": "",
          "type": "bool"
        }
      ],
      "stateMutability": "view",
      "type": "function"
    },
    {
      "inputs": [
        {
          "internalType": "address",
          "name": "",
          "type": "address"
        },
        {
          "internalType": "address",
          "name": "",
          "type": "address"
        },
        {
          "internalType": "uint256[]",
          "name": "",
          "type": "uint256[]"
        },
        {
          "internalType": "uint256[]",
          "name": "",
          "type": "uint256[]"
        },
        {
          "internalType": "bytes",
          "name": "",
          "type": "bytes"
        }
      ],
      "name": "onERC1155BatchReceived",
      "outputs": [
        {
          "internalType": "bytes4",
          "name": "",
          "type": "bytes4"
        }
      ],
      "stateMutability": "nonpayable",
      "type": "function"
    },
    {
      "inputs": [
        {
          "internalType": "address",
          "name": "",
          "type": "address"
        },
        {
          "internalType": "address",
          "name": "",
          "type": "address"
        },
        {
          "internalType": "uint256",
          "name": "",
          "type": "uint256"
        },
        {
          "internalType": "uint256",
          "name": "",
          "type": "uint256"
        },
        {
          "internalType": "bytes",
          "name": "",
          "type": "bytes"
        }
      ],
      "name": "onERC1155Received",
      "outputs": [
        {
          "internalType": "bytes4",
          "name": "",
          "type": "bytes4"
        }
      ],
      "stateMutability": "nonpayable",
      "type": "function"
    },
    {
      "inputs": [],
      "name": "owner",
      "outputs": [
        {
          "internalType": "address",
          "name": "",
          "type": "address"
        }
      ],
      "stateMutability": "view",
      "type": "function"
    },
    {
      "inputs": [],
      "name": "renounceOwnership",
      "outputs": [],
      "stateMutability": "nonpayable",
      "type": "function"
    },
    {
      "inputs": [
        {
          "internalType": "address",
          "name": "from",
          "type": "address"
        },
        {
          "internalType": "address",
          "name": "to",
          "type": "address"
        },
        {
          "internalType": "uint256[]",
          "name": "ids",
          "type": "uint256[]"
        },
        {
          "internalType": "uint256[]",
          "name": "amounts",
          "type": "uint256[]"
        },
        {
          "internalType": "bytes",
          "name": "data",
          "type": "bytes"
        }
      ],
      "name": "safeBatchTransferFrom",
      "outputs": [],
      "stateMutability": "nonpayable",
      "type": "function"
    },
    {
      "inputs": [
        {
          "internalType": "address",
          "name": "from",
          "type": "address"
        },
        {
          "internalType": "address",
          "name": "to",
          "type": "address"
        },
        {
          "internalType": "uint256",
          "name": "id",
          "type": "uint256"
        },
        {
          "internalType": "uint256",
          "name": "amount",
          "type": "uint256"
        },
        {
          "internalType": "bytes",
          "name": "data",
          "type": "bytes"
        }
      ],
      "name": "safeTransferFrom",
      "outputs": [],
      "stateMutability": "nonpayable",
      "type": "function"
    },
    {
      "inputs": [
        {
          "internalType": "address",
          "name": "operator",
          "type": "address"
        },
        {
          "internalType": "bool",
          "name": "approved",
          "type": "bool"
        }
      ],
      "name": "setApprovalForAll",
      "outputs": [],
      "stateMutability": "nonpayable",
      "type": "function"
    },
    {
      "inputs": [
        {
          "internalType": "bytes4",
          "name": "interfaceId",
          "type": "bytes4"
        }
      ],
      "name": "supportsInterface",
      "outputs": [
        {
          "internalType": "bool",
          "name": "",
          "type": "bool"
        }
      ],
      "stateMutability": "view",
      "type": "function"
    },
    {
      "inputs": [
        {
          "internalType": "address",
          "name": "newOwner",
          "type": "address"
        }
      ],
      "name": "transferOwnership",
      "outputs": [],
      "stateMutability": "nonpayable",
      "type": "function"
    },
    {
      "inputs": [
        {
          "internalType": "uint256",
          "name": "_creatorFee",
          "type": "uint256"
        }
      ],
      "name": "updateCreatorFee",
      "outputs": [],
      "stateMutability": "payable",
      "type": "function"
    },
    {
      "inputs": [
        {
          "internalType": "uint256",
          "name": "_fungMintingFee",
          "type": "uint256"
        }
      ],
      "name": "updateFungMintingFee",
      "outputs": [],
      "stateMutability": "payable",
      "type": "function"
    },
    {
      "inputs": [
        {
          "internalType": "uint256",
          "name": "_mintingFee",
          "type": "uint256"
        }
      ],
      "name": "updateMintingFee",
      "outputs": [],
      "stateMutability": "payable",
      "type": "function"
    },
    {
      "inputs": [
        {
          "internalType": "uint256",
          "name": "tokenId",
          "type": "uint256"
        }
      ],
      "name": "uri",
      "outputs": [
        {
          "internalType": "string",
          "name": "",
          "type": "string"
        }
      ],
      "stateMutability": "view",
      "type": "function"
    }
  ],
  "bytecode": "0x60a06040819052600060808190526200001b91600491620000db565b50606460095566038d7ea4c68000600a55655af3107a4000600b553480156200004357600080fd5b506040805160208101909152600081526200005e8162000070565b506200006a3362000089565b620001be565b805162000085906002906020840190620000db565b5050565b600380546001600160a01b038381166001600160a01b0319831681179093556040519116919082907f8be0079c531659141344cd1fd0a4f28419497f9722a3daafe3b4186f6b6457e090600090a35050565b828054620000e99062000181565b90600052602060002090601f0160209004810192826200010d576000855562000158565b82601f106200012857805160ff191683800117855562000158565b8280016001018555821562000158579182015b82811115620001585782518255916020019190600101906200013b565b50620001669291506200016a565b5090565b5b808211156200016657600081556001016200016b565b600181811c908216806200019657607f821691505b60208210811415620001b857634e487b7160e01b600052602260045260246000fd5b50919050565b612d7a80620001ce6000396000f3fe6080604052600436106101805760003560e01c806385313915116100d1578063c0275a251161008a578063f23a6e6111610064578063f23a6e6114610464578063f242432a14610490578063f2fde38b146104b0578063f5430340146104d057600080fd5b8063c0275a25146103e8578063e985e9c5146103fb578063f2259a801461044457600080fd5b806385313915146103205780638da5cb5b14610333578063a1c11ca81461035b578063a22cb4651461036e578063b59d88a91461038e578063bc197c81146103a357600080fd5b8063426179cb1161013e57806359322b371161011857806359322b37146102c15780635a5b0f56146102d4578063715018a6146102e9578063775cdaad146102fe57600080fd5b8063426179cb1461026e5780634a4bbdf9146102815780634e1273f41461029457600080fd5b8062fdd58e1461018557806301ffc9a7146101b857806304a59f0c146101e85780630e89341c1461020a5780631c4c9dad146102375780632eb2c2d61461024c575b600080fd5b34801561019157600080fd5b506101a56101a03660046124d8565b6104e3565b6040519081526020015b60405180910390f35b3480156101c457600080fd5b506101d86101d33660046125cc565b61057a565b60405190151581526020016101af565b3480156101f457600080fd5b506101fd61058b565b6040516101af9190612934565b34801561021657600080fd5b5061022a61022536600461267d565b6107b7565b6040516101af91906129fc565b34801561024357600080fd5b50600b546101a5565b34801561025857600080fd5b5061026c6102673660046123a6565b6107c2565b005b61026c61027c36600461267d565b610859565b61026c61028f36600461267d565b610928565b3480156102a057600080fd5b506102b46102af366004612501565b610957565b6040516101af91906129c4565b61026c6102cf36600461267d565b610ab9565b3480156102e057600080fd5b506009546101a5565b3480156102f557600080fd5b5061026c610ae8565b34801561030a57600080fd5b50610313610b1e565b6040516101af91906128e6565b61026c61032e3660046126b6565b610cba565b34801561033f57600080fd5b506003546040516001600160a01b0390911681526020016101af565b61026c610369366004612695565b610f68565b34801561037a57600080fd5b5061026c6103893660046124af565b611125565b34801561039a57600080fd5b50600a546101a5565b3480156103af57600080fd5b506103cf6103be3660046123a6565b63bc197c8160e01b95945050505050565b6040516001600160e01b031990911681526020016101af565b61026c6103f636600461267d565b611134565b34801561040757600080fd5b506101d8610416366004612374565b6001600160a01b03918216600090815260016020908152604080832093909416825291909152205460ff1690565b34801561045057600080fd5b506101fd61045f36600461267d565b611163565b34801561047057600080fd5b506103cf61047f36600461244c565b63f23a6e6160e01b95945050505050565b34801561049c57600080fd5b5061026c6104ab36600461244c565b611409565b3480156104bc57600080fd5b5061026c6104cb36600461235a565b611490565b6101a56104de366004612604565b61152b565b60006001600160a01b0383166105545760405162461bcd60e51b815260206004820152602b60248201527f455243313135353a2062616c616e636520717565727920666f7220746865207a60448201526a65726f206164647265737360a81b60648201526084015b60405180910390fd5b506000908152602081815260408083206001600160a01b03949094168352929052205490565b6000610585826116b8565b92915050565b6060600061059860075490565b905060008060015b838111610606576000818152600d602052604090206008015460ff1680156105e157506000818152600d60205260409020600501546001600160a01b031633145b156105f4576105f1600183612b3f565b91505b806105fe81612c45565b9150506105a0565b5060008167ffffffffffffffff81111561063057634e487b7160e01b600052604160045260246000fd5b60405190808252806020026020018201604052801561066957816020015b610656612149565b81526020019060019003908161064e5790505b50905060015b8481116107ae576000818152600d602052604090206008015460ff1680156106b057506000818152600d60205260409020600501546001600160a01b031633145b1561079c576000818152600d6020908152604091829020825161016081018452815460c0820190815260018301546001600160a01b0390811660e0840152600284015461010080850191909152600385015460ff80821615156101208701529190048116151561014085015291835260048401549483019490945260058301549093169381019390935260068101546060840152600781015460808401526008810154909116151560a0830152835190919084908790811061078257634e487b7160e01b600052603260045260246000fd5b6020908102919091010152610798600186612b3f565b9450505b806107a681612c45565b91505061066f565b50949350505050565b6060610585826116dd565b6001600160a01b0385163314806107de57506107de8533610416565b6108455760405162461bcd60e51b815260206004820152603260248201527f455243313135353a207472616e736665722063616c6c6572206973206e6f74206044820152711bdddb995c881b9bdc88185c1c1c9bdd995960721b606482015260840161054b565b61085285858585856117bd565b5050505050565b6000818152600d602052604090208054600582015460079092015490916001600160a01b03169060603383146108dd5760405162461bcd60e51b815260206004820152602360248201527f4f6e6c79207468652073656c6c65722063616e2063616e63656c207468652073604482015262616c6560e81b606482015260840161054b565b6108ea30338685856119b6565b6000858152600d6020526040812060078101919091556005810180546001600160a01b03191690556008908101805460ff1916905561085290611ad5565b6003546001600160a01b031633146109525760405162461bcd60e51b815260040161054b90612ae6565b600955565b606081518351146109bc5760405162461bcd60e51b815260206004820152602960248201527f455243313135353a206163636f756e747320616e6420696473206c656e677468604482015268040dad2e6dac2e8c6d60bb1b606482015260840161054b565b6000835167ffffffffffffffff8111156109e657634e487b7160e01b600052604160045260246000fd5b604051908082528060200260200182016040528015610a0f578160200160208202803683370190505b50905060005b8451811015610ab157610a76858281518110610a4157634e487b7160e01b600052603260045260246000fd5b6020026020010151858381518110610a6957634e487b7160e01b600052603260045260246000fd5b60200260200101516104e3565b828281518110610a9657634e487b7160e01b600052603260045260246000fd5b6020908102919091010152610aaa81612c45565b9050610a15565b509392505050565b6003546001600160a01b03163314610ae35760405162461bcd60e51b815260040161054b90612ae6565b600b55565b6003546001600160a01b03163314610b125760405162461bcd60e51b815260040161054b90612ae6565b610b1c6000611b2c565b565b60606000610b2b60065490565b905060008060015b838111610b6c576000610b4633836104e3565b1115610b5a57610b57600184612b3f565b92505b80610b6481612c45565b915050610b33565b5060008267ffffffffffffffff811115610b9657634e487b7160e01b600052604160045260246000fd5b604051908082528060200260200182016040528015610bef57816020015b6040805160a081018252600080825260208083018290529282018190526060820181905260808201528252600019909201910181610bb45790505b50905060015b8481116107ae576000610c0833836104e3565b1115610ca8576000818152600c6020908152604091829020825160a0810184528154815260018201546001600160a01b031692810192909252600281015492820192909252600382015460ff8082161515606084015261010090910416151560808201528351849086908110610c8e57634e487b7160e01b600052603260045260246000fd5b6020908102919091010152610ca4600185612b3f565b9350505b80610cb281612c45565b915050610bf5565b60008111610d0a5760405162461bcd60e51b815260206004820152601c60248201527f5072696365206d757374206265206174206c6561737420312077656900000000604482015260640161054b565b6060610d1933308686856119b6565b610d27600780546001019055565b6000610d3260075490565b90506040518060c00160405280600c60008881526020019081526020016000206040518060a0016040529081600082015481526020016001820160009054906101000a90046001600160a01b03166001600160a01b03166001600160a01b03168152602001600282015481526020016003820160009054906101000a900460ff161515151581526020016003820160019054906101000a900460ff1615151515815250508152602001828152602001336001600160a01b0316815260200184815260200185815260200160011515815250600d60008381526020019081526020016000206000820151816000016000820151816000015560208201518160010160006101000a8154816001600160a01b0302191690836001600160a01b031602179055506040820151816002015560608201518160030160006101000a81548160ff02191690831515021790555060808201518160030160016101000a81548160ff02191690831515021790555050506020820151816004015560408201518160050160006101000a8154816001600160a01b0302191690836001600160a01b03160217905550606082015181600601556080820151816007015560a08201518160080160006101000a81548160ff021916908315150217905550905050610f1e600880546001019055565b604080513381526020810185905290810185905285907f7bb754e08cb84d9d03b1897a0f97cadcae639d5c40ac9ee86ce78c0509f7b3bc9060600160405180910390a25050505050565b6000828152600d602052604081208054600182015460069092015490926001600160a01b039092169190610f9d908590612b77565b9050600060095482610faf9190612b57565b6000878152600d6020526040812060058101546007909101549293506001600160a01b031691610fe0908890612b96565b90506060610fee8486612b3f565b3410156110505760405162461bcd60e51b815260206004820152602a60248201527f496e73756666696369656e742076616c75652073656e7420746f20637265617460448201526965207468652073616c6560b01b606482015260840161054b565b61105d3033898b856119b6565b6040516001600160a01b0387169085156108fc029086906000818181858888f19350505050158015611093573d6000803e3d6000fd5b506040516001600160a01b0384169086156108fc029087906000818181858888f193505050501580156110ca573d6000803e3d6000fd5b506000898152600d602052604090206007018290558161111a576000898152600d602052604090206005810180546001600160a01b03191690556008908101805460ff1916905561111a90611ad5565b505050505050505050565b611130338383611b7e565b5050565b6003546001600160a01b0316331461115e5760405162461bcd60e51b815260040161054b90612ae6565b600a55565b6060600061116f612149565b600061117a60085490565b67ffffffffffffffff8111156111a057634e487b7160e01b600052604160045260246000fd5b6040519080825280602002602001820160405280156111d957816020015b6111c6612149565b8152602001906001900390816111be5790505b50905060015b60075481116107ae576000818152600d6020908152604091829020825161016081018452815460c0820190815260018301546001600160a01b0390811660e0840152600284015461010080850191909152600385015460ff80821615156101208701529190048116151561014085015291835260048401549483019490945260058301549093169381019390935260068101546060840152600781015460808401526008015416151560a082015292508515801561129e57508260a001515b80156112ad5750825160600151155b80156112bc5750825160800151155b156112ff57828285815181106112e257634e487b7160e01b600052603260045260246000fd5b60209081029190910101526112f8600185612b3f565b93506113f7565b85600114801561131057508260a001515b801561131e57508251606001515b801561132d5750825160800151155b1561135357828285815181106112e257634e487b7160e01b600052603260045260246000fd5b85600214801561136457508260a001515b80156113735750825160600151155b801561138157508251608001515b156113a757828285815181106112e257634e487b7160e01b600052603260045260246000fd5b8560041480156113b857508260a001515b156113f757828285815181106113de57634e487b7160e01b600052603260045260246000fd5b60209081029190910101526113f4600185612b3f565b93505b8061140181612c45565b9150506111df565b6001600160a01b03851633148061142557506114258533610416565b6114835760405162461bcd60e51b815260206004820152602960248201527f455243313135353a2063616c6c6572206973206e6f74206f776e6572206e6f7260448201526808185c1c1c9bdd995960ba1b606482015260840161054b565b61085285858585856119b6565b6003546001600160a01b031633146114ba5760405162461bcd60e51b815260040161054b90612ae6565b6001600160a01b03811661151f5760405162461bcd60e51b815260206004820152602660248201527f4f776e61626c653a206e6577206f776e657220697320746865207a65726f206160448201526564647265737360d01b606482015260840161054b565b61152881611b2c565b50565b600080821561154857600b546115419086612b77565b9050611558565b600a546115559086612b77565b90505b8034146115a75760405162461bcd60e51b815260206004820152601f60248201527f496e73756666696369656e74206d696e74696e672076616c75652073656e7400604482015260640161054b565b6003546040516001600160a01b039091169082156108fc029083906000818181858888f193505050501580156115e1573d6000803e3d6000fd5b506115f0600680546001019055565b60006115fb60065490565b9050606061160b33838984611c5f565b6116158289611d73565b506040805160a081018252828152336020808301918252828401998a5297151560608301908152961515608083019081526000858152600c909952929097209051815595516001870180546001600160a01b0319166001600160a01b0390921691909117905595516002860155925160039094018054955161ffff1990961694151561ff0019169490941761010095151595909502949094179092559392505050565b60006001600160e01b03198216630271189760e51b1480610585575061058582611dd7565b6000818152600560205260408120805460609291906116fb90612bdd565b80601f016020809104026020016040519081016040528092919081815260200182805461172790612bdd565b80156117745780601f1061174957610100808354040283529160200191611774565b820191906000526020600020905b81548152906001019060200180831161175757829003601f168201915b5050505050905060008151116117925761178d83611e27565b6117b6565b6004816040516020016117a692919061279d565b6040516020818303038152906040525b9392505050565b815183511461181f5760405162461bcd60e51b815260206004820152602860248201527f455243313135353a2069647320616e6420616d6f756e7473206c656e677468206044820152670dad2e6dac2e8c6d60c31b606482015260840161054b565b6001600160a01b0384166118455760405162461bcd60e51b815260040161054b90612a57565b3360005b845181101561194857600085828151811061187457634e487b7160e01b600052603260045260246000fd5b6020026020010151905060008583815181106118a057634e487b7160e01b600052603260045260246000fd5b602090810291909101810151600084815280835260408082206001600160a01b038e1683529093529190912054909150818110156118f05760405162461bcd60e51b815260040161054b90612a9c565b6000838152602081815260408083206001600160a01b038e8116855292528083208585039055908b1682528120805484929061192d908490612b3f565b925050819055505050508061194190612c45565b9050611849565b50846001600160a01b0316866001600160a01b0316826001600160a01b03167f4a39dc06d4c0dbc64b70af90fd698a233a518aa5d07e595d983b8c0526c8f7fb87876040516119989291906129d7565b60405180910390a46119ae818787878787611ebb565b505050505050565b6001600160a01b0384166119dc5760405162461bcd60e51b815260040161054b90612a57565b3360006119e885612026565b905060006119f585612026565b90506000868152602081815260408083206001600160a01b038c16845290915290205485811015611a385760405162461bcd60e51b815260040161054b90612a9c565b6000878152602081815260408083206001600160a01b038d8116855292528083208985039055908a16825281208054889290611a75908490612b3f565b909155505060408051888152602081018890526001600160a01b03808b16928c821692918816917fc3d58168c5ae7397731d063d5bbf3d657854427343f4c083240f7aacaa2d0f62910160405180910390a461111a848a8a8a8a8a61207f565b805480611b245760405162461bcd60e51b815260206004820152601b60248201527f436f756e7465723a2064656372656d656e74206f766572666c6f770000000000604482015260640161054b565b600019019055565b600380546001600160a01b038381166001600160a01b0319831681179093556040519116919082907f8be0079c531659141344cd1fd0a4f28419497f9722a3daafe3b4186f6b6457e090600090a35050565b816001600160a01b0316836001600160a01b03161415611bf25760405162461bcd60e51b815260206004820152602960248201527f455243313135353a2073657474696e6720617070726f76616c20737461747573604482015268103337b91039b2b63360b91b606482015260840161054b565b6001600160a01b03838116600081815260016020908152604080832094871680845294825291829020805460ff191686151590811790915591519182527f17307eab39ab6107e8899845ad3d59bd9653f200f220920489ca2b5937696c31910160405180910390a3505050565b6001600160a01b038416611cbf5760405162461bcd60e51b815260206004820152602160248201527f455243313135353a206d696e7420746f20746865207a65726f206164647265736044820152607360f81b606482015260840161054b565b336000611ccb85612026565b90506000611cd885612026565b90506000868152602081815260408083206001600160a01b038b16845290915281208054879290611d0a908490612b3f565b909155505060408051878152602081018790526001600160a01b03808a1692600092918716917fc3d58168c5ae7397731d063d5bbf3d657854427343f4c083240f7aacaa2d0f62910160405180910390a4611d6a8360008989898961207f565b50505050505050565b60008281526005602090815260409091208251611d92928401906121a4565b50817f6bb7ff708619ba0610cba295a58592e0451dee2622938c8755667688daf3529b611dbe846107b7565b604051611dcb91906129fc565b60405180910390a25050565b60006001600160e01b03198216636cdb3d1360e11b1480611e0857506001600160e01b031982166303a24d0760e21b145b8061058557506301ffc9a760e01b6001600160e01b0319831614610585565b606060028054611e3690612bdd565b80601f0160208091040260200160405190810160405280929190818152602001828054611e6290612bdd565b8015611eaf5780601f10611e8457610100808354040283529160200191611eaf565b820191906000526020600020905b815481529060010190602001808311611e9257829003601f168201915b50505050509050919050565b6001600160a01b0384163b156119ae5760405163bc197c8160e01b81526001600160a01b0385169063bc197c8190611eff9089908990889088908890600401612843565b602060405180830381600087803b158015611f1957600080fd5b505af1925050508015611f49575060408051601f3d908101601f19168201909252611f46918101906125e8565b60015b611ff657611f55612c8c565b806308c379a01415611f8f5750611f6a612ca4565b80611f755750611f91565b8060405162461bcd60e51b815260040161054b91906129fc565b505b60405162461bcd60e51b815260206004820152603460248201527f455243313135353a207472616e7366657220746f206e6f6e20455243313135356044820152732932b1b2b4bb32b91034b6b83632b6b2b73a32b960611b606482015260840161054b565b6001600160e01b0319811663bc197c8160e01b14611d6a5760405162461bcd60e51b815260040161054b90612a0f565b6040805160018082528183019092526060916000919060208083019080368337019050509050828160008151811061206e57634e487b7160e01b600052603260045260246000fd5b602090810291909101015292915050565b6001600160a01b0384163b156119ae5760405163f23a6e6160e01b81526001600160a01b0385169063f23a6e61906120c390899089908890889088906004016128a1565b602060405180830381600087803b1580156120dd57600080fd5b505af192505050801561210d575060408051601f3d908101601f1916820190925261210a918101906125e8565b60015b61211957611f55612c8c565b6001600160e01b0319811663f23a6e6160e01b14611d6a5760405162461bcd60e51b815260040161054b90612a0f565b6040805161016081018252600060c0820181815260e08301829052610100830182905261012083018290526101408301829052825260208201819052918101829052606081018290526080810182905260a081019190915290565b8280546121b090612bdd565b90600052602060002090601f0160209004810192826121d25760008555612218565b82601f106121eb57805160ff1916838001178555612218565b82800160010185558215612218579182015b828111156122185782518255916020019190600101906121fd565b50612224929150612228565b5090565b5b808211156122245760008155600101612229565b600067ffffffffffffffff83111561225757612257612c76565b60405161226e601f8501601f191660200182612c18565b80915083815284848401111561228357600080fd5b83836020830137600060208583010152509392505050565b80356001600160a01b03811681146122b257600080fd5b919050565b600082601f8301126122c7578081fd5b813560206122d482612b1b565b6040516122e18282612c18565b8381528281019150858301600585901b87018401881015612300578586fd5b855b8581101561231e57813584529284019290840190600101612302565b5090979650505050505050565b803580151581146122b257600080fd5b600082601f83011261234b578081fd5b6117b68383356020850161223d565b60006020828403121561236b578081fd5b6117b68261229b565b60008060408385031215612386578081fd5b61238f8361229b565b915061239d6020840161229b565b90509250929050565b600080600080600060a086880312156123bd578081fd5b6123c68661229b565b94506123d46020870161229b565b9350604086013567ffffffffffffffff808211156123f0578283fd5b6123fc89838a016122b7565b94506060880135915080821115612411578283fd5b61241d89838a016122b7565b93506080880135915080821115612432578283fd5b5061243f8882890161233b565b9150509295509295909350565b600080600080600060a08688031215612463578081fd5b61246c8661229b565b945061247a6020870161229b565b93506040860135925060608601359150608086013567ffffffffffffffff8111156124a3578182fd5b61243f8882890161233b565b600080604083850312156124c1578182fd5b6124ca8361229b565b915061239d6020840161232b565b600080604083850312156124ea578182fd5b6124f38361229b565b946020939093013593505050565b60008060408385031215612513578182fd5b823567ffffffffffffffff8082111561252a578384fd5b818501915085601f83011261253d578384fd5b8135602061254a82612b1b565b6040516125578282612c18565b8381528281019150858301600585901b870184018b1015612576578889fd5b8896505b8487101561259f5761258b8161229b565b83526001969096019591830191830161257a565b50965050860135925050808211156125b5578283fd5b506125c2858286016122b7565b9150509250929050565b6000602082840312156125dd578081fd5b81356117b681612d2e565b6000602082840312156125f9578081fd5b81516117b681612d2e565b60008060008060808587031215612619578182fd5b843567ffffffffffffffff81111561262f578283fd5b8501601f8101871361263f578283fd5b61264e8782356020840161223d565b945050602085013592506126646040860161232b565b91506126726060860161232b565b905092959194509250565b60006020828403121561268e578081fd5b5035919050565b600080604083850312156126a7578182fd5b50508035926020909101359150565b6000806000606084860312156126ca578081fd5b505081359360208301359350604090920135919050565b6000815180845260208085019450808401835b83811015612710578151875295820195908201906001016126f4565b509495945050505050565b60008151808452612733816020860160208601612bad565b601f01601f19169290920160200192915050565b60008151612759818560208601612bad565b9290920192915050565b805182526020808201516001600160a01b031690830152604080820151908301526060808201511515908301526080908101511515910152565b600080845482600182811c9150808316806127b957607f831692505b60208084108214156127d957634e487b7160e01b87526022600452602487fd5b8180156127ed57600181146127fe5761282a565b60ff1986168952848901965061282a565b60008b815260209020885b868110156128225781548b820152908501908301612809565b505084890196505b50505050505061283a8185612747565b95945050505050565b6001600160a01b0386811682528516602082015260a06040820181905260009061286f908301866126e1565b828103606084015261288181866126e1565b90508281036080840152612895818561271b565b98975050505050505050565b6001600160a01b03868116825285166020820152604081018490526060810183905260a0608082018190526000906128db9083018461271b565b979650505050505050565b6020808252825182820181905260009190848201906040850190845b8181101561292857612915838551612763565b9284019260a09290920191600101612902565b50909695505050505050565b602080825282518282018190526000919060409081850190868401855b828110156129b7578151612966858251612763565b8087015160a086810191909152868201516001600160a01b031660c0870152606082015160e08701526080820151610100870152015115156101208501526101409093019290850190600101612951565b5091979650505050505050565b6020815260006117b660208301846126e1565b6040815260006129ea60408301856126e1565b828103602084015261283a81856126e1565b6020815260006117b6602083018461271b565b60208082526028908201527f455243313135353a204552433131353552656365697665722072656a656374656040820152676420746f6b656e7360c01b606082015260800190565b60208082526025908201527f455243313135353a207472616e7366657220746f20746865207a65726f206164604082015264647265737360d81b606082015260800190565b6020808252602a908201527f455243313135353a20696e73756666696369656e742062616c616e636520666f60408201526939103a3930b739b332b960b11b606082015260800190565b6020808252818101527f4f776e61626c653a2063616c6c6572206973206e6f7420746865206f776e6572604082015260600190565b600067ffffffffffffffff821115612b3557612b35612c76565b5060051b60200190565b60008219821115612b5257612b52612c60565b500190565b600082612b7257634e487b7160e01b81526012600452602481fd5b500490565b6000816000190483118215151615612b9157612b91612c60565b500290565b600082821015612ba857612ba8612c60565b500390565b60005b83811015612bc8578181015183820152602001612bb0565b83811115612bd7576000848401525b50505050565b600181811c90821680612bf157607f821691505b60208210811415612c1257634e487b7160e01b600052602260045260246000fd5b50919050565b601f8201601f1916810167ffffffffffffffff81118282101715612c3e57612c3e612c76565b6040525050565b6000600019821415612c5957612c59612c60565b5060010190565b634e487b7160e01b600052601160045260246000fd5b634e487b7160e01b600052604160045260246000fd5b600060033d1115612ca157600481823e5160e01c5b90565b600060443d1015612cb25790565b6040516003193d81016004833e81513d67ffffffffffffffff8160248401118184111715612ce257505050505090565b8285019150815181811115612cfa5750505050505090565b843d8701016020828501011115612d145750505050505090565b612d2360208286010187612c18565b509095945050505050565b6001600160e01b03198116811461152857600080fdfea2646970667358221220501e4dd2f81431aac348fdaa9929e897fbcdaccfbc4321712483fdd804982d1164736f6c63430008040033",
  "linkReferences": {},
  "deployedLinkReferences": {}
}