{
  "_format": "hh-sol-artifact-1",
  "contractName": "NFTMarketplace",
  "sourceName": "contracts/NFTMarketplace.sol",
  "abi": [
    {
      "inputs": [],
      "stateMutability": "nonpayable",
      "type": "constructor"
    },
    {
      "anonymous": false,
      "inputs": [
        {
          "indexed": true,
          "internalType": "address",
          "name": "account",
          "type": "address"
        },
        {
          "indexed": true,
          "internalType": "address",
          "name": "operator",
          "type": "address"
        },
        {
          "indexed": false,
          "internalType": "bool",
          "name": "approved",
          "type": "bool"
        }
      ],
      "name": "ApprovalForAll",
      "type": "event"
    },
    {
      "anonymous": false,
      "inputs": [
        {
          "indexed": true,
          "internalType": "uint256",
          "name": "tokenId",
          "type": "uint256"
        },
        {
          "indexed": false,
          "internalType": "uint256",
          "name": "offerId",
          "type": "uint256"
        },
        {
          "indexed": false,
          "internalType": "address",
          "name": "buyer",
          "type": "address"
        },
        {
          "indexed": false,
          "internalType": "address",
          "name": "seller",
          "type": "address"
        },
        {
          "indexed": false,
          "internalType": "uint256",
          "name": "price",
          "type": "uint256"
        },
        {
          "indexed": false,
          "internalType": "uint256",
          "name": "amount",
          "type": "uint256"
        }
      ],
      "name": "MarketItemSold",
      "type": "event"
    },
    {
      "anonymous": false,
      "inputs": [
        {
          "indexed": true,
          "internalType": "uint256",
          "name": "tokenId",
          "type": "uint256"
        },
        {
          "indexed": false,
          "internalType": "uint256",
          "name": "offerId",
          "type": "uint256"
        },
        {
          "indexed": false,
          "internalType": "address",
          "name": "seller",
          "type": "address"
        },
        {
          "indexed": false,
          "internalType": "uint256",
          "name": "amount",
          "type": "uint256"
        }
      ],
      "name": "MarketOfferCancelled",
      "type": "event"
    },
    {
      "anonymous": false,
      "inputs": [
        {
          "indexed": true,
          "internalType": "uint256",
          "name": "tokenId",
          "type": "uint256"
        },
        {
          "indexed": false,
          "internalType": "uint256",
          "name": "offerId",
          "type": "uint256"
        },
        {
          "indexed": false,
          "internalType": "address",
          "name": "seller",
          "type": "address"
        },
        {
          "indexed": false,
          "internalType": "uint256",
          "name": "price",
          "type": "uint256"
        },
        {
          "indexed": false,
          "internalType": "uint256",
          "name": "amount",
          "type": "uint256"
        }
      ],
      "name": "MarketOfferCreated",
      "type": "event"
    },
    {
      "anonymous": false,
      "inputs": [
        {
          "indexed": true,
          "internalType": "address",
          "name": "previousOwner",
          "type": "address"
        },
        {
          "indexed": true,
          "internalType": "address",
          "name": "newOwner",
          "type": "address"
        }
      ],
      "name": "OwnershipTransferred",
      "type": "event"
    },
    {
      "anonymous": false,
      "inputs": [
        {
          "indexed": true,
          "internalType": "uint256",
          "name": "tokenId",
          "type": "uint256"
        },
        {
          "indexed": false,
          "internalType": "address",
          "name": "creator",
          "type": "address"
        },
        {
          "indexed": false,
          "internalType": "uint256",
          "name": "totalAmount",
          "type": "uint256"
        },
        {
          "indexed": false,
          "internalType": "bool",
          "name": "isPrivate",
          "type": "bool"
        },
        {
          "indexed": false,
          "internalType": "bool",
          "name": "isFungible",
          "type": "bool"
        },
        {
          "indexed": false,
          "internalType": "uint256",
          "name": "fees",
          "type": "uint256"
        }
      ],
      "name": "TokenMinted",
      "type": "event"
    },
    {
      "anonymous": false,
      "inputs": [
        {
          "indexed": true,
          "internalType": "address",
          "name": "operator",
          "type": "address"
        },
        {
          "indexed": true,
          "internalType": "address",
          "name": "from",
          "type": "address"
        },
        {
          "indexed": true,
          "internalType": "address",
          "name": "to",
          "type": "address"
        },
        {
          "indexed": false,
          "internalType": "uint256[]",
          "name": "ids",
          "type": "uint256[]"
        },
        {
          "indexed": false,
          "internalType": "uint256[]",
          "name": "values",
          "type": "uint256[]"
        }
      ],
      "name": "TransferBatch",
      "type": "event"
    },
    {
      "anonymous": false,
      "inputs": [
        {
          "indexed": true,
          "internalType": "address",
          "name": "operator",
          "type": "address"
        },
        {
          "indexed": true,
          "internalType": "address",
          "name": "from",
          "type": "address"
        },
        {
          "indexed": true,
          "internalType": "address",
          "name": "to",
          "type": "address"
        },
        {
          "indexed": false,
          "internalType": "uint256",
          "name": "id",
          "type": "uint256"
        },
        {
          "indexed": false,
          "internalType": "uint256",
          "name": "value",
          "type": "uint256"
        }
      ],
      "name": "TransferSingle",
      "type": "event"
    },
    {
      "anonymous": false,
      "inputs": [
        {
          "indexed": false,
          "internalType": "string",
          "name": "value",
          "type": "string"
        },
        {
          "indexed": true,
          "internalType": "uint256",
          "name": "id",
          "type": "uint256"
        }
      ],
      "name": "URI",
      "type": "event"
    },
    {
      "inputs": [],
      "name": "airdrop",
      "outputs": [],
      "stateMutability": "payable",
      "type": "function"
    },
    {
      "inputs": [
        {
          "internalType": "address",
          "name": "account",
          "type": "address"
        },
        {
          "internalType": "uint256",
          "name": "id",
          "type": "uint256"
        }
      ],
      "name": "balanceOf",
      "outputs": [
        {
          "internalType": "uint256",
          "name": "",
          "type": "uint256"
        }
      ],
      "stateMutability": "view",
      "type": "function"
    },
    {
      "inputs": [
        {
          "internalType": "address[]",
          "name": "accounts",
          "type": "address[]"
        },
        {
          "internalType": "uint256[]",
          "name": "ids",
          "type": "uint256[]"
        }
      ],
      "name": "balanceOfBatch",
      "outputs": [
        {
          "internalType": "uint256[]",
          "name": "",
          "type": "uint256[]"
        }
      ],
      "stateMutability": "view",
      "type": "function"
    },
    {
      "inputs": [
        {
          "internalType": "uint256",
          "name": "offerId",
          "type": "uint256"
        }
      ],
      "name": "cancelMarketOffer",
      "outputs": [],
      "stateMutability": "nonpayable",
      "type": "function"
    },
    {
      "inputs": [
        {
          "internalType": "uint256",
          "name": "tokenId",
          "type": "uint256"
        },
        {
          "internalType": "uint256",
          "name": "amount",
          "type": "uint256"
        },
        {
          "internalType": "uint256",
          "name": "price",
          "type": "uint256"
        }
      ],
      "name": "createMarketOffer",
      "outputs": [],
      "stateMutability": "nonpayable",
      "type": "function"
    },
    {
      "inputs": [
        {
          "internalType": "uint256",
          "name": "offerId",
          "type": "uint256"
        },
        {
          "internalType": "uint256",
          "name": "amount",
          "type": "uint256"
        }
      ],
      "name": "createMarketSale",
      "outputs": [],
      "stateMutability": "payable",
      "type": "function"
    },
    {
      "inputs": [
        {
          "internalType": "string",
          "name": "tokenURI",
          "type": "string"
        },
        {
          "internalType": "uint256",
          "name": "amount",
          "type": "uint256"
        },
        {
          "internalType": "bool",
          "name": "isPrivate",
          "type": "bool"
        },
        {
          "internalType": "bool",
          "name": "isFungible",
          "type": "bool"
        }
      ],
      "name": "createToken",
      "outputs": [
        {
          "internalType": "uint256",
          "name": "",
          "type": "uint256"
        }
      ],
      "stateMutability": "payable",
      "type": "function"
    },
    {
      "inputs": [
        {
          "internalType": "uint256",
          "name": "tokenType",
          "type": "uint256"
        }
      ],
      "name": "fetchMarketOffers",
      "outputs": [
        {
          "components": [
            {
              "components": [
                {
                  "internalType": "uint256",
                  "name": "tokenId",
                  "type": "uint256"
                },
                {
                  "internalType": "address payable",
                  "name": "creator",
                  "type": "address"
                },
                {
                  "internalType": "uint256",
                  "name": "totalAmount",
                  "type": "uint256"
                },
                {
                  "internalType": "bool",
                  "name": "isPrivate",
                  "type": "bool"
                },
                {
                  "internalType": "bool",
                  "name": "isFungible",
                  "type": "bool"
                }
              ],
              "internalType": "struct NFTMarketplace.MarketItem",
              "name": "item",
              "type": "tuple"
            },
            {
              "internalType": "uint256",
              "name": "offerId",
              "type": "uint256"
            },
            {
              "internalType": "address payable",
              "name": "seller",
              "type": "address"
            },
            {
              "internalType": "uint256",
              "name": "price",
              "type": "uint256"
            },
            {
              "internalType": "uint256",
              "name": "amount",
              "type": "uint256"
            },
            {
              "internalType": "bool",
              "name": "isActive",
              "type": "bool"
            }
          ],
          "internalType": "struct NFTMarketplace.MarketOffer[]",
          "name": "",
          "type": "tuple[]"
        }
      ],
      "stateMutability": "view",
      "type": "function"
    },
    {
      "inputs": [],
      "name": "fetchMyOffers",
      "outputs": [
        {
          "components": [
            {
              "components": [
                {
                  "internalType": "uint256",
                  "name": "tokenId",
                  "type": "uint256"
                },
                {
                  "internalType": "address payable",
                  "name": "creator",
                  "type": "address"
                },
                {
                  "internalType": "uint256",
                  "name": "totalAmount",
                  "type": "uint256"
                },
                {
                  "internalType": "bool",
                  "name": "isPrivate",
                  "type": "bool"
                },
                {
                  "internalType": "bool",
                  "name": "isFungible",
                  "type": "bool"
                }
              ],
              "internalType": "struct NFTMarketplace.MarketItem",
              "name": "item",
              "type": "tuple"
            },
            {
              "internalType": "uint256",
              "name": "offerId",
              "type": "uint256"
            },
            {
              "internalType": "address payable",
              "name": "seller",
              "type": "address"
            },
            {
              "internalType": "uint256",
              "name": "price",
              "type": "uint256"
            },
            {
              "internalType": "uint256",
              "name": "amount",
              "type": "uint256"
            },
            {
              "internalType": "bool",
              "name": "isActive",
              "type": "bool"
            }
          ],
          "internalType": "struct NFTMarketplace.MarketOffer[]",
          "name": "",
          "type": "tuple[]"
        }
      ],
      "stateMutability": "view",
      "type": "function"
    },
    {
      "inputs": [],
      "name": "fetchOwnedItems",
      "outputs": [
        {
          "components": [
            {
              "internalType": "uint256",
              "name": "tokenId",
              "type": "uint256"
            },
            {
              "internalType": "address payable",
              "name": "creator",
              "type": "address"
            },
            {
              "internalType": "uint256",
              "name": "totalAmount",
              "type": "uint256"
            },
            {
              "internalType": "bool",
              "name": "isPrivate",
              "type": "bool"
            },
            {
              "internalType": "bool",
              "name": "isFungible",
              "type": "bool"
            }
          ],
          "internalType": "struct NFTMarketplace.MarketItem[]",
          "name": "",
          "type": "tuple[]"
        }
      ],
      "stateMutability": "view",
      "type": "function"
    },
    {
      "inputs": [],
      "name": "getCreatorFee",
      "outputs": [
        {
          "internalType": "uint256",
          "name": "",
          "type": "uint256"
        }
      ],
      "stateMutability": "view",
      "type": "function"
    },
    {
      "inputs": [],
      "name": "getFungMintingFee",
      "outputs": [
        {
          "internalType": "uint256",
          "name": "",
          "type": "uint256"
        }
      ],
      "stateMutability": "view",
      "type": "function"
    },
    {
      "inputs": [],
      "name": "getMintingFee",
      "outputs": [
        {
          "internalType": "uint256",
          "name": "",
          "type": "uint256"
        }
      ],
      "stateMutability": "view",
      "type": "function"
    },
    {
      "inputs": [
        {
          "internalType": "address",
          "name": "account",
          "type": "address"
        },
        {
          "internalType": "address",
          "name": "operator",
          "type": "address"
        }
      ],
      "name": "isApprovedForAll",
      "outputs": [
        {
          "internalType": "bool",
          "name": "",
          "type": "bool"
        }
      ],
      "stateMutability": "view",
      "type": "function"
    },
    {
      "inputs": [
        {
          "internalType": "address",
          "name": "",
          "type": "address"
        },
        {
          "internalType": "address",
          "name": "",
          "type": "address"
        },
        {
          "internalType": "uint256[]",
          "name": "",
          "type": "uint256[]"
        },
        {
          "internalType": "uint256[]",
          "name": "",
          "type": "uint256[]"
        },
        {
          "internalType": "bytes",
          "name": "",
          "type": "bytes"
        }
      ],
      "name": "onERC1155BatchReceived",
      "outputs": [
        {
          "internalType": "bytes4",
          "name": "",
          "type": "bytes4"
        }
      ],
      "stateMutability": "nonpayable",
      "type": "function"
    },
    {
      "inputs": [
        {
          "internalType": "address",
          "name": "",
          "type": "address"
        },
        {
          "internalType": "address",
          "name": "",
          "type": "address"
        },
        {
          "internalType": "uint256",
          "name": "",
          "type": "uint256"
        },
        {
          "internalType": "uint256",
          "name": "",
          "type": "uint256"
        },
        {
          "internalType": "bytes",
          "name": "",
          "type": "bytes"
        }
      ],
      "name": "onERC1155Received",
      "outputs": [
        {
          "internalType": "bytes4",
          "name": "",
          "type": "bytes4"
        }
      ],
      "stateMutability": "nonpayable",
      "type": "function"
    },
    {
      "inputs": [],
      "name": "owner",
      "outputs": [
        {
          "internalType": "address",
          "name": "",
          "type": "address"
        }
      ],
      "stateMutability": "view",
      "type": "function"
    },
    {
      "inputs": [],
      "name": "renounceOwnership",
      "outputs": [],
      "stateMutability": "nonpayable",
      "type": "function"
    },
    {
      "inputs": [
        {
          "internalType": "address",
          "name": "from",
          "type": "address"
        },
        {
          "internalType": "address",
          "name": "to",
          "type": "address"
        },
        {
          "internalType": "uint256[]",
          "name": "ids",
          "type": "uint256[]"
        },
        {
          "internalType": "uint256[]",
          "name": "amounts",
          "type": "uint256[]"
        },
        {
          "internalType": "bytes",
          "name": "data",
          "type": "bytes"
        }
      ],
      "name": "safeBatchTransferFrom",
      "outputs": [],
      "stateMutability": "nonpayable",
      "type": "function"
    },
    {
      "inputs": [
        {
          "internalType": "address",
          "name": "from",
          "type": "address"
        },
        {
          "internalType": "address",
          "name": "to",
          "type": "address"
        },
        {
          "internalType": "uint256",
          "name": "id",
          "type": "uint256"
        },
        {
          "internalType": "uint256",
          "name": "amount",
          "type": "uint256"
        },
        {
          "internalType": "bytes",
          "name": "data",
          "type": "bytes"
        }
      ],
      "name": "safeTransferFrom",
      "outputs": [],
      "stateMutability": "nonpayable",
      "type": "function"
    },
    {
      "inputs": [
        {
          "internalType": "address",
          "name": "operator",
          "type": "address"
        },
        {
          "internalType": "bool",
          "name": "approved",
          "type": "bool"
        }
      ],
      "name": "setApprovalForAll",
      "outputs": [],
      "stateMutability": "nonpayable",
      "type": "function"
    },
    {
      "inputs": [
        {
          "internalType": "bytes4",
          "name": "interfaceId",
          "type": "bytes4"
        }
      ],
      "name": "supportsInterface",
      "outputs": [
        {
          "internalType": "bool",
          "name": "",
          "type": "bool"
        }
      ],
      "stateMutability": "view",
      "type": "function"
    },
    {
      "inputs": [
        {
          "internalType": "address",
          "name": "newOwner",
          "type": "address"
        }
      ],
      "name": "transferOwnership",
      "outputs": [],
      "stateMutability": "nonpayable",
      "type": "function"
    },
    {
      "inputs": [
        {
          "internalType": "uint256",
          "name": "_creatorFee",
          "type": "uint256"
        }
      ],
      "name": "updateCreatorFee",
      "outputs": [],
      "stateMutability": "payable",
      "type": "function"
    },
    {
      "inputs": [
        {
          "internalType": "uint256",
          "name": "_fungMintingFee",
          "type": "uint256"
        }
      ],
      "name": "updateFungMintingFee",
      "outputs": [],
      "stateMutability": "payable",
      "type": "function"
    },
    {
      "inputs": [
        {
          "internalType": "uint256",
          "name": "_mintingFee",
          "type": "uint256"
        }
      ],
      "name": "updateMintingFee",
      "outputs": [],
      "stateMutability": "payable",
      "type": "function"
    },
    {
      "inputs": [
        {
          "internalType": "uint256",
          "name": "tokenId",
          "type": "uint256"
        }
      ],
      "name": "uri",
      "outputs": [
        {
          "internalType": "string",
          "name": "",
          "type": "string"
        }
      ],
      "stateMutability": "view",
      "type": "function"
    }
  ],
  "bytecode": "0x60a06040819052600060808190526200001b91600491620000db565b50606460095566038d7ea4c68000600a556509184e72a000600b553480156200004357600080fd5b506040805160208101909152600081526200005e8162000070565b506200006a3362000089565b620001be565b805162000085906002906020840190620000db565b5050565b600380546001600160a01b038381166001600160a01b0319831681179093556040519116919082907f8be0079c531659141344cd1fd0a4f28419497f9722a3daafe3b4186f6b6457e090600090a35050565b828054620000e99062000181565b90600052602060002090601f0160209004810192826200010d576000855562000158565b82601f106200012857805160ff191683800117855562000158565b8280016001018555821562000158579182015b82811115620001585782518255916020019190600101906200013b565b50620001669291506200016a565b5090565b5b808211156200016657600081556001016200016b565b600181811c908216806200019657607f821691505b60208210811415620001b857634e487b7160e01b600052602260045260246000fd5b50919050565b6139bf80620001ce6000396000f3fe60806040526004361061019b5760003560e01c8063775cdaad116100ec578063c0275a251161008a578063f23a6e6111610064578063f23a6e61146104a1578063f242432a146104cd578063f2fde38b146104ed578063f54303401461050d57600080fd5b8063c0275a2514610425578063e985e9c514610438578063f2259a801461048157600080fd5b8063a1c11ca8116100c6578063a1c11ca814610398578063a22cb465146103ab578063b59d88a9146103cb578063bc197c81146103e057600080fd5b8063775cdaad1461032e57806385313915146103505780638da5cb5b1461037057600080fd5b80633884d635116101595780634e1273f4116101335780634e1273f4146102c457806359322b37146102f15780635a5b0f5614610304578063715018a61461031957600080fd5b80633884d63514610289578063426179cb146102915780634a4bbdf9146102b157600080fd5b8062fdd58e146101a057806301ffc9a7146101d357806304a59f0c146102035780630e89341c146102255780631c4c9dad146102525780632eb2c2d614610267575b600080fd5b3480156101ac57600080fd5b506101c06101bb366004612d16565b610520565b6040519081526020015b60405180910390f35b3480156101df57600080fd5b506101f36101ee366004612e09565b6105b7565b60405190151581526020016101ca565b34801561020f57600080fd5b506102186105c8565b6040516101ca9190613170565b34801561023157600080fd5b50610245610240366004612eb9565b6107f3565b6040516101ca9190613238565b34801561025e57600080fd5b50600b546101c0565b34801561027357600080fd5b50610287610282366004612be6565b6107fe565b005b610287610895565b34801561029d57600080fd5b506102876102ac366004612eb9565b610fac565b6102876102bf366004612eb9565b6110c5565b3480156102d057600080fd5b506102e46102df366004612d3f565b6110f4565b6040516101ca9190613200565b6102876102ff366004612eb9565b611255565b34801561031057600080fd5b506009546101c0565b34801561032557600080fd5b50610287611284565b34801561033a57600080fd5b506103436112ba565b6040516101ca9190613122565b34801561035c57600080fd5b5061028761036b366004612ef2565b611455565b34801561037c57600080fd5b506003546040516001600160a01b0390911681526020016101ca565b6102876103a6366004612ed1565b6116ff565b3480156103b757600080fd5b506102876103c6366004612ced565b611914565b3480156103d757600080fd5b50600a546101c0565b3480156103ec57600080fd5b5061040c6103fb366004612be6565b63bc197c8160e01b95945050505050565b6040516001600160e01b031990911681526020016101ca565b610287610433366004612eb9565b611923565b34801561044457600080fd5b506101f3610453366004612bb4565b6001600160a01b03918216600090815260016020908152604080832093909416825291909152205460ff1690565b34801561048d57600080fd5b5061021861049c366004612eb9565b611952565b3480156104ad57600080fd5b5061040c6104bc366004612c8b565b63f23a6e6160e01b95945050505050565b3480156104d957600080fd5b506102876104e8366004612c8b565b611bf7565b3480156104f957600080fd5b50610287610508366004612b9a565b611c7e565b6101c061051b366004612e41565b611d19565b60006001600160a01b0383166105915760405162461bcd60e51b815260206004820152602b60248201527f455243313135353a2062616c616e636520717565727920666f7220746865207a60448201526a65726f206164647265737360a81b60648201526084015b60405180910390fd5b506000908152602081815260408083206001600160a01b03949094168352929052205490565b60006105c282611ef7565b92915050565b606060006105d560075490565b905060008060015b838111610643576000818152600d602052604090206008015460ff16801561061e57506000818152600d60205260409020600501546001600160a01b031633145b156106315761062e60018361337a565b91505b8061063b8161347f565b9150506105dd565b506000816001600160401b0381111561066c57634e487b7160e01b600052604160045260246000fd5b6040519080825280602002602001820160405280156106a557816020015b61069261298a565b81526020019060019003908161068a5790505b50905060015b8481116107ea576000818152600d602052604090206008015460ff1680156106ec57506000818152600d60205260409020600501546001600160a01b031633145b156107d8576000818152600d6020908152604091829020825161016081018452815460c0820190815260018301546001600160a01b0390811660e0840152600284015461010080850191909152600385015460ff80821615156101208701529190048116151561014085015291835260048401549483019490945260058301549093169381019390935260068101546060840152600781015460808401526008810154909116151560a083015283519091908490879081106107be57634e487b7160e01b600052603260045260246000fd5b60209081029190910101526107d460018661337a565b9450505b806107e28161347f565b9150506106ab565b50949350505050565b60606105c282611f1c565b6001600160a01b03851633148061081a575061081a8533610453565b6108815760405162461bcd60e51b815260206004820152603260248201527f455243313135353a207472616e736665722063616c6c6572206973206e6f74206044820152711bdddb995c881b9bdc88185c1c1c9bdd995960721b6064820152608401610588565b61088e8585858585611ffc565b5050505050565b6003546001600160a01b031633146108bf5760405162461bcd60e51b815260040161058890613322565b6000604051806101c001604052806040518060800160405280604a8152602001613818604a913981526020016040518060800160405280604a81526020016138ac604a913981526020016040518060800160405280604a8152602001613612604a913981526020016040518060800160405280604a81526020016136f0604a913981526020016040518060800160405280604a8152602001613940604a913981526020016040518060800160405280604a81526020016136a6604a913981526020016040518060800160405280604a8152602001613862604a913981526020016040518060800160405280604a81526020016135c8604a913981526020016040518060800160405280604a815260200161373a604a913981526020016040518060800160405280604a81526020016137ce604a913981526020016040518060800160405280604a815260200161357e604a913981526020016040518060800160405280604a8152602001613784604a913981526020016040518060800160405280604a815260200161365c604a913981526020016040518060800160405280604a81526020016138f6604a913981525090506000604051806101c00160405280602362ffffff168152602001601962ffffff168152602001602862ffffff168152602001603262ffffff168152602001602362ffffff168152602001601462ffffff168152602001606462ffffff168152602001603262ffffff168152602001603c62ffffff168152602001603762ffffff168152602001604662ffffff168152602001603262ffffff168152602001620f424062ffffff168152602001620186a062ffffff1681525090506000604051806101c00160405280600015151515815260200160001515151581526020016000151515158152602001600015151515815260200160001515151581526020016000151515158152602001600015151515815260200160001515151581526020016001151515158152602001600115151515815260200160011515151581526020016001151515158152602001600015151515815260200160001515151581525090506000604051806101c00160405280600015151515815260200160001515151581526020016000151515158152602001600015151515815260200160001515151581526020016000151515158152602001600015151515815260200160001515151581526020016000151515158152602001600015151515815260200160001515151581526020016000151515158152602001600115151515815260200160011515151581525090506000604051806101c00160405280600f62ffffff168152602001600562ffffff168152602001601962ffffff168152602001602862ffffff168152602001601962ffffff168152602001600f62ffffff168152602001605062ffffff168152602001601962ffffff168152602001601e62ffffff168152602001602d62ffffff168152602001603c62ffffff168152602001602d62ffffff168152602001620c350062ffffff168152602001620124f862ffffff1681525090506000604051806101c00160405280662386f26fc100006001600160401b0316815260200166470de4df8200006001600160401b0316815260200166354a6ba7a180006001600160401b031681526020016618de76816d80006001600160401b031681526020016658d15e176280006001600160401b0316815260200166038d7ea4c680006001600160401b0316815260200166071afd498d00006001600160401b031681526020016613e52b9abe00006001600160401b0316815260200167016345785d8a00006001600160401b0316815260200166c3663566a580006001600160401b03168152602001670214e8348c4f00006001600160401b0316815260200167016345785d8a00006001600160401b031681526020016509184e72a0006001600160401b03168152602001650ae9f7bcc0006001600160401b0316815250905060005b600e811015610fa357610f258782600e8110610ea757634e487b7160e01b600052603260045260246000fd5b60200201518783600e8110610ecc57634e487b7160e01b600052603260045260246000fd5b602002015162ffffff168784600e8110610ef657634e487b7160e01b600052603260045260246000fd5b60200201518785600e8110610f1b57634e487b7160e01b600052603260045260246000fd5b6020020151611d19565b50610f91610f3482600161337a565b8483600e8110610f5457634e487b7160e01b600052603260045260246000fd5b602002015162ffffff168484600e8110610f7e57634e487b7160e01b600052603260045260246000fd5b60200201516001600160401b0316611455565b80610f9b8161347f565b915050610e7b565b50505050505050565b6000818152600d602052604090208054600582015460079092015490916001600160a01b03169060603383146110305760405162461bcd60e51b815260206004820152602360248201527f4f6e6c79207468652073656c6c65722063616e2063616e63656c207468652073604482015262616c6560e81b6064820152608401610588565b61103d30338685856121f5565b6000858152600d6020526040812060078101919091556005810180546001600160a01b03191690556008908101805460ff1916905561107b9061231f565b6040805186815233602082015290810183905284907f3fdca928b1865603b1e7482f642b63f4808e0cd3272a0a0e974ddcee373e8938906060015b60405180910390a25050505050565b6003546001600160a01b031633146110ef5760405162461bcd60e51b815260040161058890613322565b600955565b606081518351146111595760405162461bcd60e51b815260206004820152602960248201527f455243313135353a206163636f756e747320616e6420696473206c656e677468604482015268040dad2e6dac2e8c6d60bb1b6064820152608401610588565b600083516001600160401b0381111561118257634e487b7160e01b600052604160045260246000fd5b6040519080825280602002602001820160405280156111ab578160200160208202803683370190505b50905060005b845181101561124d576112128582815181106111dd57634e487b7160e01b600052603260045260246000fd5b602002602001015185838151811061120557634e487b7160e01b600052603260045260246000fd5b6020026020010151610520565b82828151811061123257634e487b7160e01b600052603260045260246000fd5b60209081029190910101526112468161347f565b90506111b1565b509392505050565b6003546001600160a01b0316331461127f5760405162461bcd60e51b815260040161058890613322565b600b55565b6003546001600160a01b031633146112ae5760405162461bcd60e51b815260040161058890613322565b6112b86000612376565b565b606060006112c760065490565b905060008060015b8381116113085760006112e23383610520565b11156112f6576112f360018461337a565b92505b806113008161347f565b9150506112cf565b506000826001600160401b0381111561133157634e487b7160e01b600052604160045260246000fd5b60405190808252806020026020018201604052801561138a57816020015b6040805160a08101825260008082526020808301829052928201819052606082018190526080820152825260001990920191018161134f5790505b50905060015b8481116107ea5760006113a33383610520565b1115611443576000818152600c6020908152604091829020825160a0810184528154815260018201546001600160a01b031692810192909252600281015492820192909252600382015460ff808216151560608401526101009091041615156080820152835184908690811061142957634e487b7160e01b600052603260045260246000fd5b602090810291909101015261143f60018561337a565b9350505b8061144d8161347f565b915050611390565b600081116114a55760405162461bcd60e51b815260206004820152601c60248201527f5072696365206d757374206265206174206c65617374203120776569000000006044820152606401610588565b60606114b433308686856121f5565b6114c2600780546001019055565b60006114cd60075490565b90506040518060c00160405280600c60008881526020019081526020016000206040518060a0016040529081600082015481526020016001820160009054906101000a90046001600160a01b03166001600160a01b03166001600160a01b03168152602001600282015481526020016003820160009054906101000a900460ff161515151581526020016003820160019054906101000a900460ff1615151515815250508152602001828152602001336001600160a01b0316815260200184815260200185815260200160011515815250600d60008381526020019081526020016000206000820151816000016000820151816000015560208201518160010160006101000a8154816001600160a01b0302191690836001600160a01b031602179055506040820151816002015560608201518160030160006101000a81548160ff02191690831515021790555060808201518160030160016101000a81548160ff02191690831515021790555050506020820151816004015560408201518160050160006101000a8154816001600160a01b0302191690836001600160a01b03160217905550606082015181600601556080820151816007015560a08201518160080160006101000a81548160ff0219169083151502179055509050506116b9600880546001019055565b604080518281523360208201529081018490526060810185905285907f5018fe313dfa61e452b0230bbc0edeb12208931a9fea00bc5d3ad3e6599f7f34906080016110b6565b6000828152600d602052604081208054600182015460069092015490926001600160a01b0390921691906117349085906133b2565b90506000600954826117469190613392565b6000878152600d6020526040812060058101546007909101549293506001600160a01b0316916117779088906133d1565b90506060611785848661337a565b3410156117e75760405162461bcd60e51b815260206004820152602a60248201527f496e73756666696369656e742076616c75652073656e7420746f20637265617460448201526965207468652073616c6560b01b6064820152608401610588565b6117f43033898b856121f5565b6040516001600160a01b0387169085156108fc029086906000818181858888f1935050505015801561182a573d6000803e3d6000fd5b506040516001600160a01b0384169086156108fc029087906000818181858888f19350505050158015611861573d6000803e3d6000fd5b506000898152600d60205260409020600701829055816118b1576000898152600d602052604090206005810180546001600160a01b03191690556008908101805460ff191690556118b19061231f565b604080518a81523360208201526001600160a01b0385168183015260608101879052608081018a9052905188917f46e3967d9aef98d74780ace0931f6e82e00d91621c0b6c95867374a16047f909919081900360a00190a2505050505050505050565b61191f3383836123c8565b5050565b6003546001600160a01b0316331461194d5760405162461bcd60e51b815260040161058890613322565b600a55565b6060600061195e61298a565b600061196960085490565b6001600160401b0381111561198e57634e487b7160e01b600052604160045260246000fd5b6040519080825280602002602001820160405280156119c757816020015b6119b461298a565b8152602001906001900390816119ac5790505b50905060015b60075481116107ea576000818152600d6020908152604091829020825161016081018452815460c0820190815260018301546001600160a01b0390811660e0840152600284015461010080850191909152600385015460ff80821615156101208701529190048116151561014085015291835260048401549483019490945260058301549093169381019390935260068101546060840152600781015460808401526008015416151560a0820152925085158015611a8c57508260a001515b8015611a9b5750825160600151155b8015611aaa5750825160800151155b15611aed5782828581518110611ad057634e487b7160e01b600052603260045260246000fd5b6020908102919091010152611ae660018561337a565b9350611be5565b856001148015611afe57508260a001515b8015611b0c57508251606001515b8015611b1b5750825160800151155b15611b415782828581518110611ad057634e487b7160e01b600052603260045260246000fd5b856002148015611b5257508260a001515b8015611b615750825160600151155b8015611b6f57508251608001515b15611b955782828581518110611ad057634e487b7160e01b600052603260045260246000fd5b856003148015611ba657508260a001515b15611be55782828581518110611bcc57634e487b7160e01b600052603260045260246000fd5b6020908102919091010152611be260018561337a565b93505b80611bef8161347f565b9150506119cd565b6001600160a01b038516331480611c135750611c138533610453565b611c715760405162461bcd60e51b815260206004820152602960248201527f455243313135353a2063616c6c6572206973206e6f74206f776e6572206e6f7260448201526808185c1c1c9bdd995960ba1b6064820152608401610588565b61088e85858585856121f5565b6003546001600160a01b03163314611ca85760405162461bcd60e51b815260040161058890613322565b6001600160a01b038116611d0d5760405162461bcd60e51b815260206004820152602660248201527f4f776e61626c653a206e6577206f776e657220697320746865207a65726f206160448201526564647265737360d01b6064820152608401610588565b611d1681612376565b50565b6000808215611d3657600b54611d2f90866133b2565b9050611d46565b600a54611d4390866133b2565b90505b80341015611d965760405162461bcd60e51b815260206004820152601f60248201527f496e73756666696369656e74206d696e74696e672076616c75652073656e74006044820152606401610588565b6003546040516001600160a01b039091169082156108fc029083906000818181858888f19350505050158015611dd0573d6000803e3d6000fd5b50611ddf600680546001019055565b6000611dea60065490565b90506060611dfa338389846124a9565b611e0482896125b4565b6040805160a080820183528482523360208084018281528486018d81528c151560608088018281528e15156080808b0182815260008f8152600c8a528d90209b518c55965160018c0180546001600160a01b0319166001600160a01b03909216919091179055945160028b0155905160039099018054955161ffff1990961699151561ff00191699909917610100951515959095029490941790975587519485529284018e9052958301919091529281019290925291810185905283917faa6f015c9b3821c211517250bad94098ee0848b9c60c383145315e7f97b4da98910160405180910390a2509695505050505050565b60006001600160e01b03198216630271189760e51b14806105c257506105c282612618565b600081815260056020526040812080546060929190611f3a90613418565b80601f0160208091040260200160405190810160405280929190818152602001828054611f6690613418565b8015611fb35780601f10611f8857610100808354040283529160200191611fb3565b820191906000526020600020905b815481529060010190602001808311611f9657829003601f168201915b505050505090506000815111611fd157611fcc83612668565b611ff5565b600481604051602001611fe5929190612fd9565b6040516020818303038152906040525b9392505050565b815183511461205e5760405162461bcd60e51b815260206004820152602860248201527f455243313135353a2069647320616e6420616d6f756e7473206c656e677468206044820152670dad2e6dac2e8c6d60c31b6064820152608401610588565b6001600160a01b0384166120845760405162461bcd60e51b815260040161058890613293565b3360005b84518110156121875760008582815181106120b357634e487b7160e01b600052603260045260246000fd5b6020026020010151905060008583815181106120df57634e487b7160e01b600052603260045260246000fd5b602090810291909101810151600084815280835260408082206001600160a01b038e16835290935291909120549091508181101561212f5760405162461bcd60e51b8152600401610588906132d8565b6000838152602081815260408083206001600160a01b038e8116855292528083208585039055908b1682528120805484929061216c90849061337a565b92505081905550505050806121809061347f565b9050612088565b50846001600160a01b0316866001600160a01b0316826001600160a01b03167f4a39dc06d4c0dbc64b70af90fd698a233a518aa5d07e595d983b8c0526c8f7fb87876040516121d7929190613213565b60405180910390a46121ed8187878787876126fc565b505050505050565b6001600160a01b03841661221b5760405162461bcd60e51b815260040161058890613293565b33600061222785612867565b9050600061223485612867565b90506000868152602081815260408083206001600160a01b038c168452909152902054858110156122775760405162461bcd60e51b8152600401610588906132d8565b6000878152602081815260408083206001600160a01b038d8116855292528083208985039055908a168252812080548892906122b490849061337a565b909155505060408051888152602081018890526001600160a01b03808b16928c821692918816917fc3d58168c5ae7397731d063d5bbf3d657854427343f4c083240f7aacaa2d0f62910160405180910390a4612314848a8a8a8a8a6128c0565b505050505050505050565b80548061236e5760405162461bcd60e51b815260206004820152601b60248201527f436f756e7465723a2064656372656d656e74206f766572666c6f7700000000006044820152606401610588565b600019019055565b600380546001600160a01b038381166001600160a01b0319831681179093556040519116919082907f8be0079c531659141344cd1fd0a4f28419497f9722a3daafe3b4186f6b6457e090600090a35050565b816001600160a01b0316836001600160a01b0316141561243c5760405162461bcd60e51b815260206004820152602960248201527f455243313135353a2073657474696e6720617070726f76616c20737461747573604482015268103337b91039b2b63360b91b6064820152608401610588565b6001600160a01b03838116600081815260016020908152604080832094871680845294825291829020805460ff191686151590811790915591519182527f17307eab39ab6107e8899845ad3d59bd9653f200f220920489ca2b5937696c31910160405180910390a3505050565b6001600160a01b0384166125095760405162461bcd60e51b815260206004820152602160248201527f455243313135353a206d696e7420746f20746865207a65726f206164647265736044820152607360f81b6064820152608401610588565b33600061251585612867565b9050600061252285612867565b90506000868152602081815260408083206001600160a01b038b1684529091528120805487929061255490849061337a565b909155505060408051878152602081018790526001600160a01b03808a1692600092918716917fc3d58168c5ae7397731d063d5bbf3d657854427343f4c083240f7aacaa2d0f62910160405180910390a4610fa3836000898989896128c0565b600082815260056020908152604090912082516125d3928401906129e5565b50817f6bb7ff708619ba0610cba295a58592e0451dee2622938c8755667688daf3529b6125ff846107f3565b60405161260c9190613238565b60405180910390a25050565b60006001600160e01b03198216636cdb3d1360e11b148061264957506001600160e01b031982166303a24d0760e21b145b806105c257506301ffc9a760e01b6001600160e01b03198316146105c2565b60606002805461267790613418565b80601f01602080910402602001604051908101604052809291908181526020018280546126a390613418565b80156126f05780601f106126c5576101008083540402835291602001916126f0565b820191906000526020600020905b8154815290600101906020018083116126d357829003601f168201915b50505050509050919050565b6001600160a01b0384163b156121ed5760405163bc197c8160e01b81526001600160a01b0385169063bc197c8190612740908990899088908890889060040161307f565b602060405180830381600087803b15801561275a57600080fd5b505af192505050801561278a575060408051601f3d908101601f1916820190925261278791810190612e25565b60015b612837576127966134c6565b806308c379a014156127d057506127ab6134de565b806127b657506127d2565b8060405162461bcd60e51b81526004016105889190613238565b505b60405162461bcd60e51b815260206004820152603460248201527f455243313135353a207472616e7366657220746f206e6f6e20455243313135356044820152732932b1b2b4bb32b91034b6b83632b6b2b73a32b960611b6064820152608401610588565b6001600160e01b0319811663bc197c8160e01b14610fa35760405162461bcd60e51b81526004016105889061324b565b604080516001808252818301909252606091600091906020808301908036833701905050905082816000815181106128af57634e487b7160e01b600052603260045260246000fd5b602090810291909101015292915050565b6001600160a01b0384163b156121ed5760405163f23a6e6160e01b81526001600160a01b0385169063f23a6e619061290490899089908890889088906004016130dd565b602060405180830381600087803b15801561291e57600080fd5b505af192505050801561294e575060408051601f3d908101601f1916820190925261294b91810190612e25565b60015b61295a576127966134c6565b6001600160e01b0319811663f23a6e6160e01b14610fa35760405162461bcd60e51b81526004016105889061324b565b6040805161016081018252600060c0820181815260e08301829052610100830182905261012083018290526101408301829052825260208201819052918101829052606081018290526080810182905260a081019190915290565b8280546129f190613418565b90600052602060002090601f016020900481019282612a135760008555612a59565b82601f10612a2c57805160ff1916838001178555612a59565b82800160010185558215612a59579182015b82811115612a59578251825591602001919060010190612a3e565b50612a65929150612a69565b5090565b5b80821115612a655760008155600101612a6a565b60006001600160401b03831115612a9757612a976134b0565b604051612aae601f8501601f191660200182613453565b809150838152848484011115612ac357600080fd5b83836020830137600060208583010152509392505050565b80356001600160a01b0381168114612af257600080fd5b919050565b600082601f830112612b07578081fd5b81356020612b1482613357565b604051612b218282613453565b8381528281019150858301600585901b87018401881015612b40578586fd5b855b85811015612b5e57813584529284019290840190600101612b42565b5090979650505050505050565b80358015158114612af257600080fd5b600082601f830112612b8b578081fd5b611ff583833560208501612a7e565b600060208284031215612bab578081fd5b611ff582612adb565b60008060408385031215612bc6578081fd5b612bcf83612adb565b9150612bdd60208401612adb565b90509250929050565b600080600080600060a08688031215612bfd578081fd5b612c0686612adb565b9450612c1460208701612adb565b935060408601356001600160401b0380821115612c2f578283fd5b612c3b89838a01612af7565b94506060880135915080821115612c50578283fd5b612c5c89838a01612af7565b93506080880135915080821115612c71578283fd5b50612c7e88828901612b7b565b9150509295509295909350565b600080600080600060a08688031215612ca2578081fd5b612cab86612adb565b9450612cb960208701612adb565b9350604086013592506060860135915060808601356001600160401b03811115612ce1578182fd5b612c7e88828901612b7b565b60008060408385031215612cff578182fd5b612d0883612adb565b9150612bdd60208401612b6b565b60008060408385031215612d28578182fd5b612d3183612adb565b946020939093013593505050565b60008060408385031215612d51578182fd5b82356001600160401b0380821115612d67578384fd5b818501915085601f830112612d7a578384fd5b81356020612d8782613357565b604051612d948282613453565b8381528281019150858301600585901b870184018b1015612db3578889fd5b8896505b84871015612ddc57612dc881612adb565b835260019690960195918301918301612db7565b5096505086013592505080821115612df2578283fd5b50612dff85828601612af7565b9150509250929050565b600060208284031215612e1a578081fd5b8135611ff581613567565b600060208284031215612e36578081fd5b8151611ff581613567565b60008060008060808587031215612e56578182fd5b84356001600160401b03811115612e6b578283fd5b8501601f81018713612e7b578283fd5b612e8a87823560208401612a7e565b94505060208501359250612ea060408601612b6b565b9150612eae60608601612b6b565b905092959194509250565b600060208284031215612eca578081fd5b5035919050565b60008060408385031215612ee3578182fd5b50508035926020909101359150565b600080600060608486031215612f06578081fd5b505081359360208301359350604090920135919050565b6000815180845260208085019450808401835b83811015612f4c57815187529582019590820190600101612f30565b509495945050505050565b60008151808452612f6f8160208601602086016133e8565b601f01601f19169290920160200192915050565b60008151612f958185602086016133e8565b9290920192915050565b805182526020808201516001600160a01b031690830152604080820151908301526060808201511515908301526080908101511515910152565b600080845482600182811c915080831680612ff557607f831692505b602080841082141561301557634e487b7160e01b87526022600452602487fd5b818015613029576001811461303a57613066565b60ff19861689528489019650613066565b60008b815260209020885b8681101561305e5781548b820152908501908301613045565b505084890196505b5050505050506130768185612f83565b95945050505050565b6001600160a01b0386811682528516602082015260a0604082018190526000906130ab90830186612f1d565b82810360608401526130bd8186612f1d565b905082810360808401526130d18185612f57565b98975050505050505050565b6001600160a01b03868116825285166020820152604081018490526060810183905260a06080820181905260009061311790830184612f57565b979650505050505050565b6020808252825182820181905260009190848201906040850190845b8181101561316457613151838551612f9f565b9284019260a0929092019160010161313e565b50909695505050505050565b602080825282518282018190526000919060409081850190868401855b828110156131f35781516131a2858251612f9f565b8087015160a086810191909152868201516001600160a01b031660c0870152606082015160e0870152608082015161010087015201511515610120850152610140909301929085019060010161318d565b5091979650505050505050565b602081526000611ff56020830184612f1d565b6040815260006132266040830185612f1d565b82810360208401526130768185612f1d565b602081526000611ff56020830184612f57565b60208082526028908201527f455243313135353a204552433131353552656365697665722072656a656374656040820152676420746f6b656e7360c01b606082015260800190565b60208082526025908201527f455243313135353a207472616e7366657220746f20746865207a65726f206164604082015264647265737360d81b606082015260800190565b6020808252602a908201527f455243313135353a20696e73756666696369656e742062616c616e636520666f60408201526939103a3930b739b332b960b11b606082015260800190565b6020808252818101527f4f776e61626c653a2063616c6c6572206973206e6f7420746865206f776e6572604082015260600190565b60006001600160401b03821115613370576133706134b0565b5060051b60200190565b6000821982111561338d5761338d61349a565b500190565b6000826133ad57634e487b7160e01b81526012600452602481fd5b500490565b60008160001904831182151516156133cc576133cc61349a565b500290565b6000828210156133e3576133e361349a565b500390565b60005b838110156134035781810151838201526020016133eb565b83811115613412576000848401525b50505050565b600181811c9082168061342c57607f821691505b6020821081141561344d57634e487b7160e01b600052602260045260246000fd5b50919050565b601f8201601f191681016001600160401b0381118282101715613478576134786134b0565b6040525050565b60006000198214156134935761349361349a565b5060010190565b634e487b7160e01b600052601160045260246000fd5b634e487b7160e01b600052604160045260246000fd5b600060033d11156134db57600481823e5160e01c5b90565b600060443d10156134ec5790565b6040516003193d81016004833e81513d6001600160401b03816024840111818411171561351b57505050505090565b82850191508151818111156135335750505050505090565b843d870101602082850101111561354d5750505050505090565b61355c60208286010187613453565b509095945050505050565b6001600160e01b031981168114611d1657600080fdfe68747470733a2f2f697066732e696e667572612e696f2f697066732f516d5468585454784d6f6a384e64614e4e634678537861636e675258483458746779526d514d4a335a334468357168747470733a2f2f697066732e696e667572612e696f2f697066732f516d5279746a476236633870453532334c35327638483145446941446965397879796936656f323836394c77715068747470733a2f2f697066732e696e667572612e696f2f697066732f516d547072516346424b56444d664b33735444413468784e79436d62537a586466365a67544d797057463735466668747470733a2f2f697066732e696e667572612e696f2f697066732f516d5169393776456d4651554237455a76336a6d39615a48754656776e584769727746634558784c6d784275315568747470733a2f2f697066732e696e667572612e696f2f697066732f516d51706a4a41716247793345374d3379464c394b795a543957456f57664e33544568507279527179697071457268747470733a2f2f697066732e696e667572612e696f2f697066732f516d6167424a6174577559675368383733776b3143347839636937545a53364d73554353365957484a6b4d68396d68747470733a2f2f697066732e696e667572612e696f2f697066732f516d50554b737a51344e55705a626d4378713144586a4352735372416f706a50365970686d66484c3478736e395668747470733a2f2f697066732e696e667572612e696f2f697066732f516d57464a486d5a46356f4e684c5a58474c5a667a686a4e6247696d73353641376d4862576d77364a445537773268747470733a2f2f697066732e696e667572612e696f2f697066732f516d597575534e794875517154714c785855374c77566569707133723644476a59686a35354b51394b6f6a4a6d7268747470733a2f2f697066732e696e667572612e696f2f697066732f516d6468567667736750633346434a454a6454334b6165707a69504b6933646b79656f36357768367a4d574d6e4168747470733a2f2f697066732e696e667572612e696f2f697066732f516d665674417054684151677a7a6262516d437262757845396978334d56534d714b4b79674635784e6d6977613468747470733a2f2f697066732e696e667572612e696f2f697066732f516d55353656504b5872564b4e775a57354a6a4d4e4a5542594b566d3866785a776f6f79545353526e514143537668747470733a2f2f697066732e696e667572612e696f2f697066732f516d5951713369483236525a37674555377a4b7277757541627a776f6d6d366b4c45635378464c38684c6170627568747470733a2f2f697066732e696e667572612e696f2f697066732f516d516b6e654e51597a4d6668656979703155614e3158413563486642684c434474326b46726846544773474864a26469706673582212206e4730b70c52865ac411435b562ac91f16b1a721bc54fc441cac0b148c6a8a5964736f6c63430008040033",
  "linkReferences": {},
  "deployedLinkReferences": {}
}