{
  "_format": "hh-sol-artifact-1",
  "contractName": "OrderTracker",
  "sourceName": "contracts/OrderTracker.sol",
  "abi": [
    {
      "inputs": [],
      "stateMutability": "nonpayable",
      "type": "constructor"
    },
    {
      "anonymous": false,
      "inputs": [
        {
          "indexed": false,
          "internalType": "string",
          "name": "message",
          "type": "string"
        },
        {
          "indexed": false,
          "internalType": "uint256",
          "name": "orderId",
          "type": "uint256"
        },
        {
          "indexed": false,
          "internalType": "address",
          "name": "to",
          "type": "address"
        },
        {
          "indexed": false,
          "internalType": "uint256",
          "name": "deliveryDate",
          "type": "uint256"
        }
      ],
      "name": "CancelOrder",
      "type": "event"
    },
    {
      "anonymous": false,
      "inputs": [
        {
          "indexed": false,
          "internalType": "string",
          "name": "message",
          "type": "string"
        },
        {
          "indexed": false,
          "internalType": "uint256",
          "name": "orderId",
          "type": "uint256"
        },
        {
          "indexed": false,
          "internalType": "address",
          "name": "to",
          "type": "address"
        },
        {
          "indexed": false,
          "internalType": "uint256",
          "name": "deliveryDate",
          "type": "uint256"
        }
      ],
      "name": "ConfirmDeliver",
      "type": "event"
    },
    {
      "anonymous": false,
      "inputs": [
        {
          "indexed": false,
          "internalType": "string",
          "name": "message",
          "type": "string"
        },
        {
          "indexed": false,
          "internalType": "address",
          "name": "addressrestaurant",
          "type": "address"
        },
        {
          "indexed": false,
          "internalType": "uint256",
          "name": "orderId",
          "type": "uint256"
        },
        {
          "indexed": false,
          "internalType": "string",
          "name": "restaurant",
          "type": "string"
        },
        {
          "indexed": false,
          "internalType": "uint256",
          "name": "creationDate",
          "type": "uint256"
        }
      ],
      "name": "CreateOrder",
      "type": "event"
    },
    {
      "anonymous": false,
      "inputs": [
        {
          "indexed": false,
          "internalType": "string",
          "name": "message",
          "type": "string"
        },
        {
          "indexed": false,
          "internalType": "address",
          "name": "addressrestaurant",
          "type": "address"
        },
        {
          "indexed": false,
          "internalType": "uint256",
          "name": "orderId",
          "type": "uint256"
        },
        {
          "indexed": false,
          "internalType": "address",
          "name": "to",
          "type": "address"
        },
        {
          "indexed": false,
          "internalType": "uint256",
          "name": "deliverDate",
          "type": "uint256"
        }
      ],
      "name": "DeliverOder",
      "type": "event"
    },
    {
      "anonymous": false,
      "inputs": [
        {
          "indexed": true,
          "internalType": "bytes32",
          "name": "role",
          "type": "bytes32"
        },
        {
          "indexed": true,
          "internalType": "bytes32",
          "name": "previousAdminRole",
          "type": "bytes32"
        },
        {
          "indexed": true,
          "internalType": "bytes32",
          "name": "newAdminRole",
          "type": "bytes32"
        }
      ],
      "name": "RoleAdminChanged",
      "type": "event"
    },
    {
      "anonymous": false,
      "inputs": [
        {
          "indexed": true,
          "internalType": "bytes32",
          "name": "role",
          "type": "bytes32"
        },
        {
          "indexed": true,
          "internalType": "address",
          "name": "account",
          "type": "address"
        },
        {
          "indexed": true,
          "internalType": "address",
          "name": "sender",
          "type": "address"
        }
      ],
      "name": "RoleGranted",
      "type": "event"
    },
    {
      "anonymous": false,
      "inputs": [
        {
          "indexed": true,
          "internalType": "bytes32",
          "name": "role",
          "type": "bytes32"
        },
        {
          "indexed": true,
          "internalType": "address",
          "name": "account",
          "type": "address"
        },
        {
          "indexed": true,
          "internalType": "address",
          "name": "sender",
          "type": "address"
        }
      ],
      "name": "RoleRevoked",
      "type": "event"
    },
    {
      "anonymous": false,
      "inputs": [
        {
          "indexed": false,
          "internalType": "string",
          "name": "message",
          "type": "string"
        },
        {
          "indexed": false,
          "internalType": "uint256",
          "name": "orderId",
          "type": "uint256"
        },
        {
          "indexed": false,
          "internalType": "uint64",
          "name": "temperature",
          "type": "uint64"
        }
      ],
      "name": "TempRegistered",
      "type": "event"
    },
    {
      "inputs": [],
      "name": "BOT_ROLE",
      "outputs": [
        {
          "internalType": "bytes32",
          "name": "",
          "type": "bytes32"
        }
      ],
      "stateMutability": "view",
      "type": "function"
    },
    {
      "inputs": [],
      "name": "CLIENT_ROLE",
      "outputs": [
        {
          "internalType": "bytes32",
          "name": "",
          "type": "bytes32"
        }
      ],
      "stateMutability": "view",
      "type": "function"
    },
    {
      "inputs": [],
      "name": "DEFAULT_ADMIN_ROLE",
      "outputs": [
        {
          "internalType": "bytes32",
          "name": "",
          "type": "bytes32"
        }
      ],
      "stateMutability": "view",
      "type": "function"
    },
    {
      "inputs": [],
      "name": "RESTAURANT_ROLE",
      "outputs": [
        {
          "internalType": "bytes32",
          "name": "",
          "type": "bytes32"
        }
      ],
      "stateMutability": "view",
      "type": "function"
    },
    {
      "inputs": [
        {
          "internalType": "uint256",
          "name": "orderId",
          "type": "uint256"
        }
      ],
      "name": "cancelOrder",
      "outputs": [
        {
          "internalType": "enum OrderTracker.OrderStatus",
          "name": "",
          "type": "uint8"
        }
      ],
      "stateMutability": "nonpayable",
      "type": "function"
    },
    {
      "inputs": [
        {
          "internalType": "uint256",
          "name": "orderId",
          "type": "uint256"
        }
      ],
      "name": "confirmDelivery",
      "outputs": [],
      "stateMutability": "nonpayable",
      "type": "function"
    },
    {
      "inputs": [],
      "name": "contractOwner",
      "outputs": [
        {
          "internalType": "address",
          "name": "",
          "type": "address"
        }
      ],
      "stateMutability": "view",
      "type": "function"
    },
    {
      "inputs": [
        {
          "internalType": "string",
          "name": "restaurant",
          "type": "string"
        },
        {
          "internalType": "string",
          "name": "destination",
          "type": "string"
        },
        {
          "internalType": "string[]",
          "name": "items",
          "type": "string[]"
        },
        {
          "internalType": "uint64",
          "name": "price",
          "type": "uint64"
        },
        {
          "internalType": "uint256",
          "name": "deliveryTime",
          "type": "uint256"
        },
        {
          "internalType": "uint64",
          "name": "temp",
          "type": "uint64"
        }
      ],
      "name": "createOrder",
      "outputs": [],
      "stateMutability": "nonpayable",
      "type": "function"
    },
    {
      "inputs": [
        {
          "internalType": "uint256",
          "name": "orderId",
          "type": "uint256"
        }
      ],
      "name": "deliverOrder",
      "outputs": [],
      "stateMutability": "nonpayable",
      "type": "function"
    },
    {
      "inputs": [],
      "name": "disableAccessControl",
      "outputs": [],
      "stateMutability": "nonpayable",
      "type": "function"
    },
    {
      "inputs": [],
      "name": "disableContract",
      "outputs": [],
      "stateMutability": "nonpayable",
      "type": "function"
    },
    {
      "inputs": [],
      "name": "enableAccessControl",
      "outputs": [],
      "stateMutability": "nonpayable",
      "type": "function"
    },
    {
      "inputs": [],
      "name": "enableContract",
      "outputs": [],
      "stateMutability": "nonpayable",
      "type": "function"
    },
    {
      "inputs": [
        {
          "internalType": "uint256",
          "name": "orderId",
          "type": "uint256"
        }
      ],
      "name": "getAllStatus",
      "outputs": [
        {
          "internalType": "enum OrderTracker.OrderStatus[]",
          "name": "",
          "type": "uint8[]"
        }
      ],
      "stateMutability": "view",
      "type": "function"
    },
    {
      "inputs": [
        {
          "internalType": "uint256",
          "name": "orderId",
          "type": "uint256"
        }
      ],
      "name": "getAllTemps",
      "outputs": [
        {
          "internalType": "uint64[]",
          "name": "",
          "type": "uint64[]"
        }
      ],
      "stateMutability": "view",
      "type": "function"
    },
    {
      "inputs": [
        {
          "internalType": "uint256",
          "name": "orderId",
          "type": "uint256"
        }
      ],
      "name": "getCurrentStatus",
      "outputs": [
        {
          "internalType": "enum OrderTracker.OrderStatus",
          "name": "",
          "type": "uint8"
        }
      ],
      "stateMutability": "view",
      "type": "function"
    },
    {
      "inputs": [
        {
          "internalType": "uint256",
          "name": "orderId",
          "type": "uint256"
        }
      ],
      "name": "getCurrentTemp",
      "outputs": [
        {
          "internalType": "uint64",
          "name": "",
          "type": "uint64"
        }
      ],
      "stateMutability": "view",
      "type": "function"
    },
    {
      "inputs": [
        {
          "internalType": "uint256",
          "name": "orderId",
          "type": "uint256"
        }
      ],
      "name": "getOrder",
      "outputs": [
        {
          "internalType": "string",
          "name": "",
          "type": "string"
        },
        {
          "internalType": "string",
          "name": "",
          "type": "string"
        },
        {
          "internalType": "string[]",
          "name": "",
          "type": "string[]"
        },
        {
          "internalType": "uint64",
          "name": "",
          "type": "uint64"
        },
        {
          "internalType": "uint256",
          "name": "",
          "type": "uint256"
        },
        {
          "internalType": "uint256",
          "name": "",
          "type": "uint256"
        },
        {
          "internalType": "enum OrderTracker.OrderStatus",
          "name": "",
          "type": "uint8"
        }
      ],
      "stateMutability": "view",
      "type": "function"
    },
    {
      "inputs": [
        {
          "internalType": "bytes32",
          "name": "role",
          "type": "bytes32"
        }
      ],
      "name": "getRoleAdmin",
      "outputs": [
        {
          "internalType": "bytes32",
          "name": "",
          "type": "bytes32"
        }
      ],
      "stateMutability": "view",
      "type": "function"
    },
    {
      "inputs": [
        {
          "internalType": "uint256",
          "name": "orderId",
          "type": "uint256"
        },
        {
          "internalType": "uint256",
          "name": "timestamp",
          "type": "uint256"
        }
      ],
      "name": "getStatus",
      "outputs": [
        {
          "internalType": "enum OrderTracker.OrderStatus",
          "name": "",
          "type": "uint8"
        }
      ],
      "stateMutability": "view",
      "type": "function"
    },
    {
      "inputs": [
        {
          "internalType": "uint256",
          "name": "orderId",
          "type": "uint256"
        },
        {
          "internalType": "uint256",
          "name": "timestamp",
          "type": "uint256"
        }
      ],
      "name": "getTemperature",
      "outputs": [
        {
          "internalType": "uint64",
          "name": "",
          "type": "uint64"
        }
      ],
      "stateMutability": "view",
      "type": "function"
    },
    {
      "inputs": [
        {
          "internalType": "uint256",
          "name": "orderId",
          "type": "uint256"
        }
      ],
      "name": "getTimestamp",
      "outputs": [],
      "stateMutability": "nonpayable",
      "type": "function"
    },
    {
      "inputs": [],
      "name": "globalOrderId",
      "outputs": [
        {
          "internalType": "uint256",
          "name": "",
          "type": "uint256"
        }
      ],
      "stateMutability": "view",
      "type": "function"
    },
    {
      "inputs": [
        {
          "internalType": "bytes32",
          "name": "role",
          "type": "bytes32"
        },
        {
          "internalType": "address",
          "name": "account",
          "type": "address"
        }
      ],
      "name": "grantRole",
      "outputs": [],
      "stateMutability": "nonpayable",
      "type": "function"
    },
    {
      "inputs": [],
      "name": "hasAccessControl",
      "outputs": [
        {
          "internalType": "bool",
          "name": "",
          "type": "bool"
        }
      ],
      "stateMutability": "view",
      "type": "function"
    },
    {
      "inputs": [
        {
          "internalType": "bytes32",
          "name": "role",
          "type": "bytes32"
        },
        {
          "internalType": "address",
          "name": "account",
          "type": "address"
        }
      ],
      "name": "hasRole",
      "outputs": [
        {
          "internalType": "bool",
          "name": "",
          "type": "bool"
        }
      ],
      "stateMutability": "view",
      "type": "function"
    },
    {
      "inputs": [],
      "name": "isActive",
      "outputs": [
        {
          "internalType": "bool",
          "name": "",
          "type": "bool"
        }
      ],
      "stateMutability": "view",
      "type": "function"
    },
    {
      "inputs": [
        {
          "internalType": "uint256",
          "name": "orderId",
          "type": "uint256"
        }
      ],
      "name": "orderReady",
      "outputs": [
        {
          "internalType": "enum OrderTracker.OrderStatus",
          "name": "",
          "type": "uint8"
        }
      ],
      "stateMutability": "nonpayable",
      "type": "function"
    },
    {
      "inputs": [
        {
          "internalType": "uint256",
          "name": "orderId",
          "type": "uint256"
        },
        {
          "internalType": "uint64",
          "name": "temperature",
          "type": "uint64"
        }
      ],
      "name": "registerTemp",
      "outputs": [],
      "stateMutability": "nonpayable",
      "type": "function"
    },
    {
      "inputs": [
        {
          "internalType": "bytes32",
          "name": "role",
          "type": "bytes32"
        },
        {
          "internalType": "address",
          "name": "account",
          "type": "address"
        }
      ],
      "name": "renounceRole",
      "outputs": [],
      "stateMutability": "nonpayable",
      "type": "function"
    },
    {
      "inputs": [
        {
          "internalType": "bytes32",
          "name": "role",
          "type": "bytes32"
        },
        {
          "internalType": "address",
          "name": "account",
          "type": "address"
        }
      ],
      "name": "revokeRole",
      "outputs": [],
      "stateMutability": "nonpayable",
      "type": "function"
    },
    {
      "inputs": [
        {
          "internalType": "bytes32",
          "name": "role",
          "type": "bytes32"
        },
        {
          "internalType": "address",
          "name": "ads",
          "type": "address"
        }
      ],
      "name": "setRole",
      "outputs": [],
      "stateMutability": "nonpayable",
      "type": "function"
    },
    {
      "inputs": [
        {
          "internalType": "bytes4",
          "name": "interfaceId",
          "type": "bytes4"
        }
      ],
      "name": "supportsInterface",
      "outputs": [
        {
          "internalType": "bool",
          "name": "",
          "type": "bool"
        }
      ],
      "stateMutability": "view",
      "type": "function"
    },
    {
      "inputs": [
        {
          "internalType": "uint256",
          "name": "",
          "type": "uint256"
        }
      ],
      "name": "timestamps",
      "outputs": [
        {
          "internalType": "uint256",
          "name": "",
          "type": "uint256"
        }
      ],
      "stateMutability": "view",
      "type": "function"
    }
  ],
  "bytecode": "0x60806040523480156200001157600080fd5b5033600160006101000a81548173ffffffffffffffffffffffffffffffffffffffff021916908373ffffffffffffffffffffffffffffffffffffffff1602179055506000600281905550620000af7fc2cb5479d14cfa18e53b560bfea0d9d05effc64c2108615d5a1b26e7756a206c600160009054906101000a900473ffffffffffffffffffffffffffffffffffffffff16620000eb60201b60201c565b6001600360006101000a81548160ff0219169083151502179055506001600360016101000a81548160ff02191690831515021790555062000264565b620000fd82826200010160201b60201c565b5050565b620001138282620001f260201b60201c565b620001ee57600160008084815260200190815260200160002060000160008373ffffffffffffffffffffffffffffffffffffffff1673ffffffffffffffffffffffffffffffffffffffff16815260200190815260200160002060006101000a81548160ff021916908315150217905550620001936200025c60201b60201c565b73ffffffffffffffffffffffffffffffffffffffff168173ffffffffffffffffffffffffffffffffffffffff16837f2f8788117e7eff1d82e926ec794901d17c78024a50270940304540a733656f0d60405160405180910390a45b5050565b600080600084815260200190815260200160002060000160008373ffffffffffffffffffffffffffffffffffffffff1673ffffffffffffffffffffffffffffffffffffffff16815260200190815260200160002060009054906101000a900460ff16905092915050565b600033905090565b6151d580620002746000396000f3fe608060405234801561001057600080fd5b50600436106102065760003560e01c806391d148541161011a578063b633620c116100ad578063ddff5e7d1161007c578063ddff5e7d146105f3578063dff872031461060f578063eae6f6521461062b578063fd84cb9714610649578063fe05fbdc1461066557610206565b8063b633620c14610567578063ce606ee014610583578063d09ef241146105a1578063d547741f146105d757610206565b8063a217fddf116100e9578063a217fddf146104cb578063a745da65146104e9578063b150377414610519578063b2653a431461053757610206565b806391d148541461041f5780639403a6cd1461044f578063944a98941461046b578063a0aa13c61461049b57610206565b806336f5f45e1161019d578063514fcac71161016c578063514fcac71461037b578063760b04dd146103ab57806386d1c2b0146103b5578063894ba833146103e55780638bc33af3146103ef57610206565b806336f5f45e146103195780633cd9529814610323578063495ac47e146103415780635049abc81461035f57610206565b8063248a9ca3116101d9578063248a9ca3146102a75780632f2ff15d146102d757806336568abe146102f3578063367edd321461030f57610206565b806301ffc9a71461020b57806310b90b1d1461023b5780631de6555e1461025957806322f3e2d414610289575b600080fd5b61022560048036038101906102209190613b31565b610695565b6040516102329190614355565b60405180910390f35b61024361070f565b6040516102509190614355565b60405180910390f35b610273600480360381019061026e9190613c62565b610722565b60405161028091906147f0565b60405180910390f35b610291610813565b60405161029e9190614355565b60405180910390f35b6102c160048036038101906102bc9190613acc565b610826565b6040516102ce9190614370565b60405180910390f35b6102f160048036038101906102ec9190613af5565b610845565b005b61030d60048036038101906103089190613af5565b610866565b005b6103176108e9565b005b6103216109e6565b005b61032b610ae3565b60405161033891906147d5565b60405180910390f35b610349610ae9565b6040516103569190614370565b60405180910390f35b61037960048036038101906103749190613c9e565b610b0d565b005b61039560048036038101906103909190613c39565b610ee9565b6040516103a2919061438b565b60405180910390f35b6103b3611164565b005b6103cf60048036038101906103ca9190613c39565b611260565b6040516103dc91906147f0565b60405180910390f35b6103ed611342565b005b61040960048036038101906104049190613c39565b61143e565b60405161041691906147d5565b60405180910390f35b61043960048036038101906104349190613af5565b611462565b6040516104469190614355565b60405180910390f35b61046960048036038101906104649190613b5a565b6114cc565b005b61048560048036038101906104809190613c39565b611a64565b6040516104929190614333565b60405180910390f35b6104b560048036038101906104b09190613c39565b611c9a565b6040516104c2919061438b565b60405180910390f35b6104d3611d75565b6040516104e09190614370565b60405180910390f35b61050360048036038101906104fe9190613c62565b611d7c565b604051610510919061438b565b60405180910390f35b610521611e66565b60405161052e9190614370565b60405180910390f35b610551600480360381019061054c9190613c39565b611e8a565b60405161055e9190614311565b60405180910390f35b610581600480360381019061057c9190613c39565b612115565b005b61058b612344565b60405161059891906142f6565b60405180910390f35b6105bb60048036038101906105b69190613c39565b61236a565b6040516105ce97969594939291906143c8565b60405180910390f35b6105f160048036038101906105ec9190613af5565b612638565b005b61060d60048036038101906106089190613c39565b612659565b005b61062960048036038101906106249190613af5565b6129d3565b005b6106336129e1565b6040516106409190614370565b60405180910390f35b610663600480360381019061065e9190613c39565b612a05565b005b61067f600480360381019061067a9190613c39565b612e4f565b60405161068c919061438b565b60405180910390f35b60007f7965db0b000000000000000000000000000000000000000000000000000000007bffffffffffffffffffffffffffffffffffffffffffffffffffffffff1916827bffffffffffffffffffffffffffffffffffffffffffffffffffffffff1916148061070857506107078261318e565b5b9050919050565b600360009054906101000a900460ff1681565b600082600060056000838152602001908152602001600020600501805490501415610782576040517f08c379a0000000000000000000000000000000000000000000000000000000008152600401610779906144cc565b60405180910390fd5b600360019054906101000a900460ff166107d1576040517f08c379a00000000000000000000000000000000000000000000000000000000081526004016107c89061450c565b60405180910390fd5b60086000858152602001908152602001600020600084815260200190815260200160002060009054906101000a900467ffffffffffffffff1691505092915050565b600360019054906101000a900460ff1681565b6000806000838152602001908152602001600020600101549050919050565b61084e82610826565b610857816131f8565b610861838361320c565b505050565b61086e6132ec565b73ffffffffffffffffffffffffffffffffffffffff168173ffffffffffffffffffffffffffffffffffffffff16146108db576040517f08c379a00000000000000000000000000000000000000000000000000000000081526004016108d2906147b5565b60405180910390fd5b6108e582826132f4565b5050565b600360019054906101000a900460ff1615610939576040517f08c379a00000000000000000000000000000000000000000000000000000000081526004016109309061446c565b60405180910390fd5b600160009054906101000a900473ffffffffffffffffffffffffffffffffffffffff1673ffffffffffffffffffffffffffffffffffffffff163373ffffffffffffffffffffffffffffffffffffffff16146109c9576040517f08c379a00000000000000000000000000000000000000000000000000000000081526004016109c09061452c565b60405180910390fd5b6001600360016101000a81548160ff021916908315150217905550565b600360009054906101000a900460ff1615610a36576040517f08c379a0000000000000000000000000000000000000000000000000000000008152600401610a2d9061448c565b60405180910390fd5b600160009054906101000a900473ffffffffffffffffffffffffffffffffffffffff1673ffffffffffffffffffffffffffffffffffffffff163373ffffffffffffffffffffffffffffffffffffffff1614610ac6576040517f08c379a0000000000000000000000000000000000000000000000000000000008152600401610abd9061452c565b60405180910390fd5b6001600360006101000a81548160ff021916908315150217905550565b60025481565b7fc2cb5479d14cfa18e53b560bfea0d9d05effc64c2108615d5a1b26e7756a206c81565b81600060056000838152602001908152602001600020600501805490501415610b6b576040517f08c379a0000000000000000000000000000000000000000000000000000000008152600401610b62906144cc565b60405180910390fd5b600360019054906101000a900460ff16610bba576040517f08c379a0000000000000000000000000000000000000000000000000000000008152600401610bb19061450c565b60405180910390fd5b600360009054906101000a900460ff1615610c3957610bf97f6d5c9827c1f410bbb61d3b2a0a34b6b30492d9a1fd38588edca7ec4562ab9c9b33611462565b610c38576040517f08c379a0000000000000000000000000000000000000000000000000000000008152600401610c2f90614735565b60405180910390fd5b5b60026004811115610c73577f4e487b7100000000000000000000000000000000000000000000000000000000600052602160045260246000fd5b6005600085815260200190815260200160002060090160089054906101000a900460ff166004811115610ccf577f4e487b7100000000000000000000000000000000000000000000000000000000600052602160045260246000fd5b14610d0f576040517f08c379a0000000000000000000000000000000000000000000000000000000008152600401610d0690614755565b60405180910390fd5b60044290806001815401808255809150506001900390600052602060002001600090919091909150558160086000858152602001908152602001600020600042815260200190815260200160002060006101000a81548167ffffffffffffffff021916908367ffffffffffffffff1602179055506005600084815260200190815260200160002060090160089054906101000a900460ff1660066000858152602001908152602001600020600042815260200190815260200160002060006101000a81548160ff02191690836004811115610e13577f4e487b7100000000000000000000000000000000000000000000000000000000600052602160045260246000fd5b02179055506005600084815260200190815260200160002060090160009054906101000a900467ffffffffffffffff1667ffffffffffffffff168267ffffffffffffffff161015610e6d57610e6783610ee9565b50610eab565b816005600085815260200190815260200160002060090160006101000a81548167ffffffffffffffff021916908367ffffffffffffffff1602179055505b7f70c7d013ca8558d1f2cf544b0fff95dd30082bbf85f145c8db5fe938d342d9b28383604051610edc9291906145d6565b60405180910390a1505050565b600081600060056000838152602001908152602001600020600501805490501415610f49576040517f08c379a0000000000000000000000000000000000000000000000000000000008152600401610f40906144cc565b60405180910390fd5b600360019054906101000a900460ff16610f98576040517f08c379a0000000000000000000000000000000000000000000000000000000008152600401610f8f9061450c565b60405180910390fd5b600360009054906101000a900460ff161561101757610fd77f6d5c9827c1f410bbb61d3b2a0a34b6b30492d9a1fd38588edca7ec4562ab9c9b33611462565b611016576040517f08c379a000000000000000000000000000000000000000000000000000000000815260040161100d90614735565b60405180910390fd5b5b600460066000858152602001908152602001600020600042815260200190815260200160002060006101000a81548160ff02191690836004811115611085577f4e487b7100000000000000000000000000000000000000000000000000000000600052602160045260246000fd5b021790555060046005600085815260200190815260200160002060090160086101000a81548160ff021916908360048111156110ea577f4e487b7100000000000000000000000000000000000000000000000000000000600052602160045260246000fd5b02179055507ffc49b8c0759a2dea8b58d789d960d45cc6732fbd6b220078781256f49981d02283334260405161112293929190614612565b60405180910390a160066000848152602001908152602001600020600042815260200190815260200160002060009054906101000a900460ff16915050919050565b600360009054906101000a900460ff166111b3576040517f08c379a00000000000000000000000000000000000000000000000000000000081526004016111aa90614795565b60405180910390fd5b600160009054906101000a900473ffffffffffffffffffffffffffffffffffffffff1673ffffffffffffffffffffffffffffffffffffffff163373ffffffffffffffffffffffffffffffffffffffff1614611243576040517f08c379a000000000000000000000000000000000000000000000000000000000815260040161123a9061452c565b60405180910390fd5b6000600360006101000a81548160ff021916908315150217905550565b6000816000600560008381526020019081526020016000206005018054905014156112c0576040517f08c379a00000000000000000000000000000000000000000000000000000000081526004016112b7906144cc565b60405180910390fd5b600360019054906101000a900460ff1661130f576040517f08c379a00000000000000000000000000000000000000000000000000000000081526004016113069061450c565b60405180910390fd5b6005600084815260200190815260200160002060090160009054906101000a900467ffffffffffffffff16915050919050565b600360019054906101000a900460ff16611391576040517f08c379a0000000000000000000000000000000000000000000000000000000008152600401611388906144ec565b60405180910390fd5b600160009054906101000a900473ffffffffffffffffffffffffffffffffffffffff1673ffffffffffffffffffffffffffffffffffffffff163373ffffffffffffffffffffffffffffffffffffffff1614611421576040517f08c379a00000000000000000000000000000000000000000000000000000000081526004016114189061452c565b60405180910390fd5b6000600360016101000a81548160ff021916908315150217905550565b6004818154811061144e57600080fd5b906000526020600020016000915090505481565b600080600084815260200190815260200160002060000160008373ffffffffffffffffffffffffffffffffffffffff1673ffffffffffffffffffffffffffffffffffffffff16815260200190815260200160002060009054906101000a900460ff16905092915050565b600360019054906101000a900460ff1661151b576040517f08c379a00000000000000000000000000000000000000000000000000000000081526004016115129061450c565b60405180910390fd5b600360009054906101000a900460ff161561159b5761155a7fc2cb5479d14cfa18e53b560bfea0d9d05effc64c2108615d5a1b26e7756a206c33611462565b1561159a576040517f08c379a0000000000000000000000000000000000000000000000000000000008152600401611591906145b6565b60405180910390fd5b5b600442908060018154018082558091505060019003906000526020600020016000909190919091505560405180610160016040528060025481526020018a8a8080601f016020809104026020016040519081016040528093929190818152602001838380828437600081840152601f19601f82011690508083019250505050505050815260200188888080601f016020809104026020016040519081016040528093929190818152602001838380828437600081840152601f19601f820116905080830192505050505050508152602001600160009054906101000a900473ffffffffffffffffffffffffffffffffffffffff1673ffffffffffffffffffffffffffffffffffffffff1681526020013373ffffffffffffffffffffffffffffffffffffffff1681526020018686906116d39190614ac5565b81526020018467ffffffffffffffff16815260200142815260200183426116fa9190614970565b81526020018267ffffffffffffffff16815260200160006004811115611749577f4e487b7100000000000000000000000000000000000000000000000000000000600052602160045260246000fd5b81525060056000600254815260200190815260200160002060008201518160000155602082015181600101908051906020019061178792919061377a565b5060408201518160020190805190602001906117a492919061377a565b5060608201518160030160006101000a81548173ffffffffffffffffffffffffffffffffffffffff021916908373ffffffffffffffffffffffffffffffffffffffff16021790555060808201518160040160006101000a81548173ffffffffffffffffffffffffffffffffffffffff021916908373ffffffffffffffffffffffffffffffffffffffff16021790555060a082015181600501908051906020019061184f929190613800565b5060c08201518160060160006101000a81548167ffffffffffffffff021916908367ffffffffffffffff16021790555060e0820151816007015561010082015181600801556101208201518160090160006101000a81548167ffffffffffffffff021916908367ffffffffffffffff1602179055506101408201518160090160086101000a81548160ff02191690836004811115611916577f4e487b7100000000000000000000000000000000000000000000000000000000600052602160045260246000fd5b02179055509050506119487fa5ff3ec7a96cdbba4d2d5172d66bbc73c6db3885f29b21be5da9fa7a7c025232336133d5565b80600860006002548152602001908152602001600020600042815260200190815260200160002060006101000a81548167ffffffffffffffff021916908367ffffffffffffffff1602179055506001600760003373ffffffffffffffffffffffffffffffffffffffff1673ffffffffffffffffffffffffffffffffffffffff1681526020019081526020016000206000600254815260200190815260200160002060006101000a81548160ff0219169083151502179055507f027ec508f7b1464444b803196f6b6772df07d0b50c8d4bb0b9485bab84938c01336002548b8b42604051611a399594939291906146d4565b60405180910390a160026000815480929190611a5490614bbb565b9190505550505050505050505050565b606081600060056000838152602001908152602001600020600501805490501415611ac4576040517f08c379a0000000000000000000000000000000000000000000000000000000008152600401611abb906144cc565b60405180910390fd5b600360019054906101000a900460ff16611b13576040517f08c379a0000000000000000000000000000000000000000000000000000000008152600401611b0a9061450c565b60405180910390fd5b600060048054905067ffffffffffffffff811115611b5a577f4e487b7100000000000000000000000000000000000000000000000000000000600052604160045260246000fd5b604051908082528060200260200182016040528015611b885781602001602082028036833780820191505090505b509050600080600090505b600480549050811015611c8e5760048181548110611bda577f4e487b7100000000000000000000000000000000000000000000000000000000600052603260045260246000fd5b9060005260206000200154915060086000878152602001908152602001600020600083815260200190815260200160002060009054906101000a900467ffffffffffffffff16838281518110611c59577f4e487b7100000000000000000000000000000000000000000000000000000000600052603260045260246000fd5b602002602001019067ffffffffffffffff16908167ffffffffffffffff16815250508080611c8690614bbb565b915050611b93565b50819350505050919050565b600081600060056000838152602001908152602001600020600501805490501415611cfa576040517f08c379a0000000000000000000000000000000000000000000000000000000008152600401611cf1906144cc565b60405180910390fd5b600360019054906101000a900460ff16611d49576040517f08c379a0000000000000000000000000000000000000000000000000000000008152600401611d409061450c565b60405180910390fd5b6005600084815260200190815260200160002060090160089054906101000a900460ff16915050919050565b6000801b81565b600082600060056000838152602001908152602001600020600501805490501415611ddc576040517f08c379a0000000000000000000000000000000000000000000000000000000008152600401611dd3906144cc565b60405180910390fd5b600360019054906101000a900460ff16611e2b576040517f08c379a0000000000000000000000000000000000000000000000000000000008152600401611e229061450c565b60405180910390fd5b60066000858152602001908152602001600020600084815260200190815260200160002060009054906101000a900460ff1691505092915050565b7f6d5c9827c1f410bbb61d3b2a0a34b6b30492d9a1fd38588edca7ec4562ab9c9b81565b606081600060056000838152602001908152602001600020600501805490501415611eea576040517f08c379a0000000000000000000000000000000000000000000000000000000008152600401611ee1906144cc565b60405180910390fd5b600360019054906101000a900460ff16611f39576040517f08c379a0000000000000000000000000000000000000000000000000000000008152600401611f309061450c565b60405180910390fd5b600060048054905067ffffffffffffffff811115611f80577f4e487b7100000000000000000000000000000000000000000000000000000000600052604160045260246000fd5b604051908082528060200260200182016040528015611fae5781602001602082028036833780820191505090505b509050600080600090505b6004805490508110156121095760048181548110612000577f4e487b7100000000000000000000000000000000000000000000000000000000600052603260045260246000fd5b9060005260206000200154915060066000878152602001908152602001600020600083815260200190815260200160002060009054906101000a900460ff16838281518110612078577f4e487b7100000000000000000000000000000000000000000000000000000000600052603260045260246000fd5b602002602001019060048111156120b8577f4e487b7100000000000000000000000000000000000000000000000000000000600052602160045260246000fd5b908160048111156120f2577f4e487b7100000000000000000000000000000000000000000000000000000000600052602160045260246000fd5b81525050808061210190614bbb565b915050611fb9565b50819350505050919050565b80600060056000838152602001908152602001600020600501805490501415612173576040517f08c379a000000000000000000000000000000000000000000000000000000000815260040161216a906144cc565b60405180910390fd5b600360019054906101000a900460ff166121c2576040517f08c379a00000000000000000000000000000000000000000000000000000000081526004016121b99061450c565b60405180910390fd5b600360009054906101000a900460ff1615612241576122017f6d5c9827c1f410bbb61d3b2a0a34b6b30492d9a1fd38588edca7ec4562ab9c9b33611462565b612240576040517f08c379a000000000000000000000000000000000000000000000000000000000815260040161223790614735565b60405180910390fd5b5b6002600481111561227b577f4e487b7100000000000000000000000000000000000000000000000000000000600052602160045260246000fd5b6005600084815260200190815260200160002060090160089054906101000a900460ff1660048111156122d7577f4e487b7100000000000000000000000000000000000000000000000000000000600052602160045260246000fd5b14612317576040517f08c379a000000000000000000000000000000000000000000000000000000000815260040161230e90614755565b60405180910390fd5b60056000838152602001908152602001600020600801544211156123405761233e82610ee9565b505b5050565b600160009054906101000a900473ffffffffffffffffffffffffffffffffffffffff1681565b606080606060008060008060056000898152602001908152602001600020600101600560008a8152602001908152602001600020600201600560008b8152602001908152602001600020600501600560008c815260200190815260200160002060060160009054906101000a900467ffffffffffffffff16600560008d815260200190815260200160002060070154600560008e815260200190815260200160002060080154600560008f815260200190815260200160002060090160089054906101000a900460ff1686805461244090614b58565b80601f016020809104026020016040519081016040528092919081815260200182805461246c90614b58565b80156124b95780601f1061248e576101008083540402835291602001916124b9565b820191906000526020600020905b81548152906001019060200180831161249c57829003601f168201915b505050505096508580546124cc90614b58565b80601f01602080910402602001604051908101604052809291908181526020018280546124f890614b58565b80156125455780601f1061251a57610100808354040283529160200191612545565b820191906000526020600020905b81548152906001019060200180831161252857829003601f168201915b5050505050955084805480602002602001604051908101604052809291908181526020016000905b8282101561261957838290600052602060002001805461258c90614b58565b80601f01602080910402602001604051908101604052809291908181526020018280546125b890614b58565b80156126055780601f106125da57610100808354040283529160200191612605565b820191906000526020600020905b8154815290600101906020018083116125e857829003601f168201915b50505050508152602001906001019061256d565b5050505094509650965096509650965096509650919395979092949650565b61264182610826565b61264a816131f8565b61265483836132f4565b505050565b806000600560008381526020019081526020016000206005018054905014156126b7576040517f08c379a00000000000000000000000000000000000000000000000000000000081526004016126ae906144cc565b60405180910390fd5b600360019054906101000a900460ff16612706576040517f08c379a00000000000000000000000000000000000000000000000000000000081526004016126fd9061450c565b60405180910390fd5b600360009054906101000a900460ff1615612785576127457fc2cb5479d14cfa18e53b560bfea0d9d05effc64c2108615d5a1b26e7756a206c33611462565b612784576040517f08c379a000000000000000000000000000000000000000000000000000000000815260040161277b906144ac565b60405180910390fd5b5b600160048111156127bf577f4e487b7100000000000000000000000000000000000000000000000000000000600052602160045260246000fd5b6005600084815260200190815260200160002060090160089054906101000a900460ff16600481111561281b577f4e487b7100000000000000000000000000000000000000000000000000000000600052602160045260246000fd5b1461285b576040517f08c379a000000000000000000000000000000000000000000000000000000000815260040161285290614775565b60405180910390fd5b6004429080600181540180825580915050600190039060005260206000200160009091909190915055600260066000848152602001908152602001600020600042815260200190815260200160002060006101000a81548160ff021916908360048111156128f2577f4e487b7100000000000000000000000000000000000000000000000000000000600052602160045260246000fd5b021790555060026005600084815260200190815260200160002060090160086101000a81548160ff02191690836004811115612957577f4e487b7100000000000000000000000000000000000000000000000000000000600052602160045260246000fd5b02179055507fc952cd3a6142c9aaf4ab72ed95b97ac11ec0446cafb28d8c1d4389dbee7faa1f33836005600086815260200190815260200160002060040160009054906101000a900473ffffffffffffffffffffffffffffffffffffffff16426040516129c7949392919061465c565b60405180910390a15050565b6129dd82826133d5565b5050565b7fa5ff3ec7a96cdbba4d2d5172d66bbc73c6db3885f29b21be5da9fa7a7c02523281565b80600060056000838152602001908152602001600020600501805490501415612a63576040517f08c379a0000000000000000000000000000000000000000000000000000000008152600401612a5a906144cc565b60405180910390fd5b600360019054906101000a900460ff16612ab2576040517f08c379a0000000000000000000000000000000000000000000000000000000008152600401612aa99061450c565b60405180910390fd5b600360009054906101000a900460ff1615612b3157612af17fa5ff3ec7a96cdbba4d2d5172d66bbc73c6db3885f29b21be5da9fa7a7c02523233611462565b612b30576040517f08c379a0000000000000000000000000000000000000000000000000000000008152600401612b2790614596565b60405180910390fd5b5b60026004811115612b6b577f4e487b7100000000000000000000000000000000000000000000000000000000600052602160045260246000fd5b6005600084815260200190815260200160002060090160089054906101000a900460ff166004811115612bc7577f4e487b7100000000000000000000000000000000000000000000000000000000600052602160045260246000fd5b14612c07576040517f08c379a0000000000000000000000000000000000000000000000000000000008152600401612bfe90614755565b60405180910390fd5b6004429080600181540180825580915050600190039060005260206000200160009091909190915055600360066000848152602001908152602001600020600042815260200190815260200160002060006101000a81548160ff02191690836004811115612c9e577f4e487b7100000000000000000000000000000000000000000000000000000000600052602160045260246000fd5b021790555060036005600084815260200190815260200160002060090160086101000a81548160ff02191690836004811115612d03577f4e487b7100000000000000000000000000000000000000000000000000000000600052602160045260246000fd5b02179055506000600760006005600086815260200190815260200160002060030160009054906101000a900473ffffffffffffffffffffffffffffffffffffffff1673ffffffffffffffffffffffffffffffffffffffff1673ffffffffffffffffffffffffffffffffffffffff168152602001908152602001600020600084815260200190815260200160002060006101000a81548160ff0219169083151502179055506001600760003373ffffffffffffffffffffffffffffffffffffffff1673ffffffffffffffffffffffffffffffffffffffff168152602001908152602001600020600084815260200190815260200160002060006101000a81548160ff0219169083151502179055507f1bb34ad58dcd7ef687e41ffc7d63f436736e7ad1910bb22e75b00a6b8a228598823342604051612e439392919061454c565b60405180910390a15050565b600081600060056000838152602001908152602001600020600501805490501415612eaf576040517f08c379a0000000000000000000000000000000000000000000000000000000008152600401612ea6906144cc565b60405180910390fd5b600360019054906101000a900460ff16612efe576040517f08c379a0000000000000000000000000000000000000000000000000000000008152600401612ef59061450c565b60405180910390fd5b600360009054906101000a900460ff1615612f7d57612f3d7fc2cb5479d14cfa18e53b560bfea0d9d05effc64c2108615d5a1b26e7756a206c33611462565b612f7c576040517f08c379a0000000000000000000000000000000000000000000000000000000008152600401612f73906144ac565b60405180910390fd5b5b60006004811115612fb7577f4e487b7100000000000000000000000000000000000000000000000000000000600052602160045260246000fd5b6005600085815260200190815260200160002060090160089054906101000a900460ff166004811115613013577f4e487b7100000000000000000000000000000000000000000000000000000000600052602160045260246000fd5b14613053576040517f08c379a000000000000000000000000000000000000000000000000000000000815260040161304a906146b4565b60405180910390fd5b6004429080600181540180825580915050600190039060005260206000200160009091909190915055600160066000858152602001908152602001600020600042815260200190815260200160002060006101000a81548160ff021916908360048111156130ea577f4e487b7100000000000000000000000000000000000000000000000000000000600052602160045260246000fd5b021790555060016005600085815260200190815260200160002060090160086101000a81548160ff0219169083600481111561314f577f4e487b7100000000000000000000000000000000000000000000000000000000600052602160045260246000fd5b021790555060066000848152602001908152602001600020600042815260200190815260200160002060009054906101000a900460ff16915050919050565b60007f01ffc9a7000000000000000000000000000000000000000000000000000000007bffffffffffffffffffffffffffffffffffffffffffffffffffffffff1916827bffffffffffffffffffffffffffffffffffffffffffffffffffffffff1916149050919050565b613209816132046132ec565b6133e3565b50565b6132168282611462565b6132e857600160008084815260200190815260200160002060000160008373ffffffffffffffffffffffffffffffffffffffff1673ffffffffffffffffffffffffffffffffffffffff16815260200190815260200160002060006101000a81548160ff02191690831515021790555061328d6132ec565b73ffffffffffffffffffffffffffffffffffffffff168173ffffffffffffffffffffffffffffffffffffffff16837f2f8788117e7eff1d82e926ec794901d17c78024a50270940304540a733656f0d60405160405180910390a45b5050565b600033905090565b6132fe8282611462565b156133d157600080600084815260200190815260200160002060000160008373ffffffffffffffffffffffffffffffffffffffff1673ffffffffffffffffffffffffffffffffffffffff16815260200190815260200160002060006101000a81548160ff0219169083151502179055506133766132ec565b73ffffffffffffffffffffffffffffffffffffffff168173ffffffffffffffffffffffffffffffffffffffff16837ff6391f5c32d9c69d2a47ea670b442974b53935d1edc7fd64eb21e047a839171b60405160405180910390a45b5050565b6133df828261320c565b5050565b6133ed8282611462565b61347c576134128173ffffffffffffffffffffffffffffffffffffffff166014613480565b6134208360001c6020613480565b6040516020016134319291906142bc565b6040516020818303038152906040526040517f08c379a000000000000000000000000000000000000000000000000000000000815260040161347391906143a6565b60405180910390fd5b5050565b60606000600283600261349391906149c6565b61349d9190614970565b67ffffffffffffffff8111156134dc577f4e487b7100000000000000000000000000000000000000000000000000000000600052604160045260246000fd5b6040519080825280601f01601f19166020018201604052801561350e5781602001600182028036833780820191505090505b5090507f30000000000000000000000000000000000000000000000000000000000000008160008151811061356c577f4e487b7100000000000000000000000000000000000000000000000000000000600052603260045260246000fd5b60200101907effffffffffffffffffffffffffffffffffffffffffffffffffffffffffffff1916908160001a9053507f7800000000000000000000000000000000000000000000000000000000000000816001815181106135f6577f4e487b7100000000000000000000000000000000000000000000000000000000600052603260045260246000fd5b60200101907effffffffffffffffffffffffffffffffffffffffffffffffffffffffffffff1916908160001a9053506000600184600261363691906149c6565b6136409190614970565b90505b600181111561372c577f3031323334353637383961626364656600000000000000000000000000000000600f8616601081106136a8577f4e487b7100000000000000000000000000000000000000000000000000000000600052603260045260246000fd5b1a60f81b8282815181106136e5577f4e487b7100000000000000000000000000000000000000000000000000000000600052603260045260246000fd5b60200101907effffffffffffffffffffffffffffffffffffffffffffffffffffffffffffff1916908160001a905350600485901c94508061372590614b2e565b9050613643565b5060008414613770576040517f08c379a00000000000000000000000000000000000000000000000000000000081526004016137679061444c565b60405180910390fd5b8091505092915050565b82805461378690614b58565b90600052602060002090601f0160209004810192826137a857600085556137ef565b82601f106137c157805160ff19168380011785556137ef565b828001600101855582156137ef579182015b828111156137ee5782518255916020019190600101906137d3565b5b5090506137fc9190613860565b5090565b82805482825590600052602060002090810192821561384f579160200282015b8281111561384e57825182908051906020019061383e92919061377a565b5091602001919060010190613820565b5b50905061385c919061387d565b5090565b5b80821115613879576000816000905550600101613861565b5090565b5b8082111561389d576000818161389491906138a1565b5060010161387e565b5090565b5080546138ad90614b58565b6000825580601f106138bf57506138de565b601f0160209004906000526020600020908101906138dd9190613860565b5b50565b60006138f46138ef84614830565b61480b565b9050808382526020820190508285602086028201111561391357600080fd5b60005b8581101561395d57813567ffffffffffffffff81111561393557600080fd5b8086016139428982613a78565b85526020850194506020840193505050600181019050613916565b5050509392505050565b600061397a6139758461485c565b61480b565b90508281526020810184848401111561399257600080fd5b61399d848285614aec565b509392505050565b6000813590506139b48161512c565b92915050565b60008083601f8401126139cc57600080fd5b8235905067ffffffffffffffff8111156139e557600080fd5b6020830191508360208202830111156139fd57600080fd5b9250929050565b600081359050613a1381615143565b92915050565b600081359050613a288161515a565b92915050565b60008083601f840112613a4057600080fd5b8235905067ffffffffffffffff811115613a5957600080fd5b602083019150836001820283011115613a7157600080fd5b9250929050565b600082601f830112613a8957600080fd5b8135613a99848260208601613967565b91505092915050565b600081359050613ab181615171565b92915050565b600081359050613ac681615188565b92915050565b600060208284031215613ade57600080fd5b6000613aec84828501613a04565b91505092915050565b60008060408385031215613b0857600080fd5b6000613b1685828601613a04565b9250506020613b27858286016139a5565b9150509250929050565b600060208284031215613b4357600080fd5b6000613b5184828501613a19565b91505092915050565b600080600080600080600080600060c08a8c031215613b7857600080fd5b60008a013567ffffffffffffffff811115613b9257600080fd5b613b9e8c828d01613a2e565b995099505060208a013567ffffffffffffffff811115613bbd57600080fd5b613bc98c828d01613a2e565b975097505060408a013567ffffffffffffffff811115613be857600080fd5b613bf48c828d016139ba565b95509550506060613c078c828d01613ab7565b9350506080613c188c828d01613aa2565b92505060a0613c298c828d01613ab7565b9150509295985092959850929598565b600060208284031215613c4b57600080fd5b6000613c5984828501613aa2565b91505092915050565b60008060408385031215613c7557600080fd5b6000613c8385828601613aa2565b9250506020613c9485828601613aa2565b9150509250929050565b60008060408385031215613cb157600080fd5b6000613cbf85828601613aa2565b9250506020613cd085828601613ab7565b9150509250929050565b6000613ce68383613e7c565b60208301905092915050565b6000613cfe8383613ec7565b905092915050565b6000613d12838361429e565b60208301905092915050565b613d2781614a20565b82525050565b6000613d38826148bd565b613d428185614932565b9350613d4d8361488d565b8060005b83811015613d7e578151613d658882613cda565b9750613d70836148e9565b925050600181019050613d51565b5085935050505092915050565b6000613d96826148c8565b613da08185614910565b935083602082028501613db28561489d565b8060005b85811015613dee5784840389528151613dcf8582613cf2565b9450613dda836148f6565b925060208a01995050600181019050613db6565b50829750879550505050505092915050565b6000613e0b826148d3565b613e158185614921565b9350613e20836148ad565b8060005b83811015613e51578151613e388882613d06565b9750613e4383614903565b925050600181019050613e24565b5085935050505092915050565b613e6781614a32565b82525050565b613e7681614a3e565b82525050565b613e8581614ada565b82525050565b613e9481614ada565b82525050565b6000613ea68385614954565b9350613eb3838584614aec565b613ebc83614cc0565b840190509392505050565b6000613ed2826148de565b613edc8185614943565b9350613eec818560208601614afb565b613ef581614cc0565b840191505092915050565b6000613f0b826148de565b613f158185614954565b9350613f25818560208601614afb565b613f2e81614cc0565b840191505092915050565b6000613f44826148de565b613f4e8185614965565b9350613f5e818560208601614afb565b80840191505092915050565b6000613f77602083614954565b9150613f8282614cd1565b602082019050919050565b6000613f9a601883614954565b9150613fa582614cfa565b602082019050919050565b6000613fbd601e83614954565b9150613fc882614d23565b602082019050919050565b6000613fe0601b83614954565b9150613feb82614d4c565b602082019050919050565b6000614003602883614954565b915061400e82614d75565b604082019050919050565b6000614026601983614954565b915061403182614dc4565b602082019050919050565b6000614049601883614954565b915061405482614ded565b602082019050919050565b600061406c601a83614954565b915061407782614e16565b602082019050919050565b600061408f602483614954565b915061409a82614e3f565b604082019050919050565b60006140b2601783614954565b91506140bd82614e8e565b602082019050919050565b60006140d5601c83614954565b91506140e082614eb7565b602082019050919050565b60006140f8602d83614954565b915061410382614ee0565b604082019050919050565b600061411b600e83614954565b915061412682614f2f565b602082019050919050565b600061413e601c83614954565b915061414982614f58565b602082019050919050565b6000614161601c83614954565b915061416c82614f81565b602082019050919050565b6000614184601a83614954565b915061418f82614faa565b602082019050919050565b60006141a7601883614954565b91506141b282614fd3565b602082019050919050565b60006141ca601583614954565b91506141d582614ffc565b602082019050919050565b60006141ed601783614965565b91506141f882615025565b601782019050919050565b6000614210601e83614954565b915061421b8261504e565b602082019050919050565b6000614233601f83614954565b915061423e82615077565b602082019050919050565b6000614256601183614965565b9150614261826150a0565b601182019050919050565b6000614279602f83614954565b9150614284826150c9565b604082019050919050565b61429881614aa7565b82525050565b6142a781614ab1565b82525050565b6142b681614ab1565b82525050565b60006142c7826141e0565b91506142d38285613f39565b91506142de82614249565b91506142ea8284613f39565b91508190509392505050565b600060208201905061430b6000830184613d1e565b92915050565b6000602082019050818103600083015261432b8184613d2d565b905092915050565b6000602082019050818103600083015261434d8184613e00565b905092915050565b600060208201905061436a6000830184613e5e565b92915050565b60006020820190506143856000830184613e6d565b92915050565b60006020820190506143a06000830184613e8b565b92915050565b600060208201905081810360008301526143c08184613f00565b905092915050565b600060e08201905081810360008301526143e2818a613f00565b905081810360208301526143f68189613f00565b9050818103604083015261440a8188613d8b565b905061441960608301876142ad565b614426608083018661428f565b61443360a083018561428f565b61444060c0830184613e8b565b98975050505050505050565b6000602082019050818103600083015261446581613f6a565b9050919050565b6000602082019050818103600083015261448581613f8d565b9050919050565b600060208201905081810360008301526144a581613fb0565b9050919050565b600060208201905081810360008301526144c581613fd3565b9050919050565b600060208201905081810360008301526144e581613ff6565b9050919050565b6000602082019050818103600083015261450581614019565b9050919050565b600060208201905081810360008301526145258161403c565b9050919050565b600060208201905081810360008301526145458161405f565b9050919050565b6000608082019050818103600083015261456581614082565b9050614574602083018661428f565b6145816040830185613d1e565b61458e606083018461428f565b949350505050565b600060208201905081810360008301526145af816140a5565b9050919050565b600060208201905081810360008301526145cf816140c8565b9050919050565b600060608201905081810360008301526145ef816140eb565b90506145fe602083018561428f565b61460b60408301846142ad565b9392505050565b6000608082019050818103600083015261462b8161410e565b905061463a602083018661428f565b6146476040830185613d1e565b614654606083018461428f565b949350505050565b600060a082019050818103600083015261467581614131565b90506146846020830187613d1e565b614691604083018661428f565b61469e6060830185613d1e565b6146ab608083018461428f565b95945050505050565b600060208201905081810360008301526146cd81614154565b9050919050565b600060a08201905081810360008301526146ed81614177565b90506146fc6020830188613d1e565b614709604083018761428f565b818103606083015261471c818587613e9a565b905061472b608083018461428f565b9695505050505050565b6000602082019050818103600083015261474e8161419a565b9050919050565b6000602082019050818103600083015261476e816141bd565b9050919050565b6000602082019050818103600083015261478e81614203565b9050919050565b600060208201905081810360008301526147ae81614226565b9050919050565b600060208201905081810360008301526147ce8161426c565b9050919050565b60006020820190506147ea600083018461428f565b92915050565b600060208201905061480560008301846142ad565b92915050565b6000614815614826565b90506148218282614b8a565b919050565b6000604051905090565b600067ffffffffffffffff82111561484b5761484a614c91565b5b602082029050602081019050919050565b600067ffffffffffffffff82111561487757614876614c91565b5b61488082614cc0565b9050602081019050919050565b6000819050602082019050919050565b6000819050602082019050919050565b6000819050602082019050919050565b600081519050919050565b600081519050919050565b600081519050919050565b600081519050919050565b6000602082019050919050565b6000602082019050919050565b6000602082019050919050565b600082825260208201905092915050565b600082825260208201905092915050565b600082825260208201905092915050565b600082825260208201905092915050565b600082825260208201905092915050565b600081905092915050565b600061497b82614aa7565b915061498683614aa7565b9250827fffffffffffffffffffffffffffffffffffffffffffffffffffffffffffffffff038211156149bb576149ba614c04565b5b828201905092915050565b60006149d182614aa7565b91506149dc83614aa7565b9250817fffffffffffffffffffffffffffffffffffffffffffffffffffffffffffffffff0483118215151615614a1557614a14614c04565b5b828202905092915050565b6000614a2b82614a87565b9050919050565b60008115159050919050565b6000819050919050565b60007fffffffff0000000000000000000000000000000000000000000000000000000082169050919050565b6000819050614a8282615118565b919050565b600073ffffffffffffffffffffffffffffffffffffffff82169050919050565b6000819050919050565b600067ffffffffffffffff82169050919050565b6000614ad23684846138e1565b905092915050565b6000614ae582614a74565b9050919050565b82818337600083830152505050565b60005b83811015614b19578082015181840152602081019050614afe565b83811115614b28576000848401525b50505050565b6000614b3982614aa7565b91506000821415614b4d57614b4c614c04565b5b600182039050919050565b60006002820490506001821680614b7057607f821691505b60208210811415614b8457614b83614c62565b5b50919050565b614b9382614cc0565b810181811067ffffffffffffffff82111715614bb257614bb1614c91565b5b80604052505050565b6000614bc682614aa7565b91507fffffffffffffffffffffffffffffffffffffffffffffffffffffffffffffffff821415614bf957614bf8614c04565b5b600182019050919050565b7f4e487b7100000000000000000000000000000000000000000000000000000000600052601160045260246000fd5b7f4e487b7100000000000000000000000000000000000000000000000000000000600052602160045260246000fd5b7f4e487b7100000000000000000000000000000000000000000000000000000000600052602260045260246000fd5b7f4e487b7100000000000000000000000000000000000000000000000000000000600052604160045260246000fd5b6000601f19601f8301169050919050565b7f537472696e67733a20686578206c656e67746820696e73756666696369656e74600082015250565b7f436f6e747261637420616c726561647920656e61626c65640000000000000000600082015250565b7f41636365737320636f6e74726f6c20616c726561647920656e61626c65640000600082015250565b7f53656e646572206d75737420626520612072657374617572616e740000000000600082015250565b7f4120626174636820776974682074686973206f72646572496420646f6573206e60008201527f6f74206578697374000000000000000000000000000000000000000000000000602082015250565b7f436f6e747261637420616c72656164792064697361626c656400000000000000600082015250565b7f536f7272792c20636f6e74726163742064697361626c65640000000000000000600082015250565b7f4572726f722c206f776e6572206f6e6c792066756e6374696f6e000000000000600082015250565b7f56616363696e65206261746368207375636365737366756c6c792064656c697660008201527f6572656400000000000000000000000000000000000000000000000000000000602082015250565b7f53656e646572206d757374206265206120636c69656e74000000000000000000600082015250565b7f53656e6465722063616e277420626520612072657374617572616e7400000000600082015250565b7f54656d7065726174757265207375636365737366756c6c79207265676973746560008201527f72656420666f72206f7264657200000000000000000000000000000000000000602082015250565b7f4f726465722063616e63656c6564000000000000000000000000000000000000600082015250565b7f4f72646572207375636365737366756c6c792064656c69766572656400000000600082015250565b7f4f72646572206d75737420626520696e207072657061726174696f6e00000000600082015250565b7f4f72646572207375636365737366756c6c792063726561746564000000000000600082015250565b7f53656e646572206d7573742062652061206d616368696e650000000000000000600082015250565b7f4f72646572206e6f7420696e2064656c69766572790000000000000000000000600082015250565b7f416363657373436f6e74726f6c3a206163636f756e7420000000000000000000600082015250565b7f4f72646572206d75737420626520726561647920746f2064656c697665720000600082015250565b7f41636365737320636f6e74726f6c20616c72656164792064697361626c656400600082015250565b7f206973206d697373696e6720726f6c6520000000000000000000000000000000600082015250565b7f416363657373436f6e74726f6c3a2063616e206f6e6c792072656e6f756e636560008201527f20726f6c657320666f722073656c660000000000000000000000000000000000602082015250565b6005811061512957615128614c33565b5b50565b61513581614a20565b811461514057600080fd5b50565b61514c81614a3e565b811461515757600080fd5b50565b61516381614a48565b811461516e57600080fd5b50565b61517a81614aa7565b811461518557600080fd5b50565b61519181614ab1565b811461519c57600080fd5b5056fea264697066735822122023e41bb4a64d018f9585e95fd0db0f8b4533d48739e11dad173f122ba15aac4664736f6c63430008040033",
  "linkReferences": {},
  "deployedLinkReferences": {}
}